{
  "abi": [
    {
      "inputs": [],
      "name": "getValue",
      "outputs": [
        {
          "internalType": "uint256",
          "name": "",
          "type": "uint256"
        }
      ],
      "stateMutability": "view",
      "type": "function"
    },
    {
      "inputs": [
        {
          "internalType": "uint256",
          "name": "_value",
          "type": "uint256"
        }
      ],
      "name": "initialize",
      "outputs": [],
      "stateMutability": "nonpayable",
      "type": "function"
    }
  ],
  "bytecode": {
    "object": "0x608060405234801561001057600080fd5b5060eb8061001f6000396000f3fe6080604052348015600f57600080fd5b506004361060325760003560e01c806320965255146037578063fe4b84df14604f575b600080fd5b603d6061565b60405190815260200160405180910390f35b605f605a3660046073565b600055565b005b60008054606e90600a608b565b905090565b600060208284031215608457600080fd5b5035919050565b808202811582820484141760af57634e487b7160e01b600052601160045260246000fd5b9291505056fea2646970667358221220f1ac18e8845839d7923aafa61c30bc6f43c4d8a3af5837175cbe792c5b2f25f764736f6c63430008150033",
    "linkReferences": {}
  },
  "methodIdentifiers": {
    "getValue()": "20965255",
    "initialize(uint256)": "fe4b84df"
  },
  "id": 17
}