{
  "abi": [
    {
      "inputs": [],
      "name": "GetMsgData",
      "outputs": [
        {
          "internalType": "bytes",
          "name": "",
          "type": "bytes"
        }
      ],
      "stateMutability": "payable",
      "type": "function"
    },
    {
      "inputs": [
        {
          "internalType": "int256",
          "name": "i",
          "type": "int256"
        }
      ],
      "name": "GetMsgData2",
      "outputs": [
        {
          "internalType": "bytes",
          "name": "",
          "type": "bytes"
        }
      ],
      "stateMutability": "payable",
      "type": "function"
    },
    {
      "inputs": [],
      "name": "GetOrigin",
      "outputs": [
        {
          "internalType": "address",
          "name": "",
          "type": "address"
        }
      ],
      "stateMutability": "view",
      "type": "function"
    },
    {
      "inputs": [],
      "name": "GetSender",
      "outputs": [
        {
          "internalType": "address",
          "name": "",
          "type": "address"
        }
      ],
      "stateMutability": "view",
      "type": "function"
    },
    {
      "inputs": [],
      "name": "IsCallerEOA",
      "outputs": [
        {
          "internalType": "bool",
          "name": "",
          "type": "bool"
        }
      ],
      "stateMutability": "view",
      "type": "function"
    },
    {
      "stateMutability": "payable",
      "type": "receive"
    }
  ],
  "bytecode": {
    "object": "0x608060405234801561001057600080fd5b506101fa806100206000396000f3fe60806040526004361061004e5760003560e01c80631be67ae71461005a5780636bc5ecff1461008657806372538ea6146100a6578063768a3a7d146100ae578063cc41ae0c146100c157600080fd5b3661005557005b600080fd5b34801561006657600080fd5b50325b6040516001600160a01b0390911681526020015b60405180910390f35b61009961009436600461015d565b6100de565b60405161007d9190610176565b61009961011e565b3480156100ba57600080fd5b5033610069565b3480156100cd57600080fd5b50604051333214815260200161007d565b60606000368080601f0160208091040260200160405190810160405280939291908181526020018383808284376000920191909152509295945050505050565b60606000368080601f01602080910402602001604051908101604052809392919081815260200183838082843760009201919091525092949350505050565b60006020828403121561016f57600080fd5b5035919050565b600060208083528351808285015260005b818110156101a357858101830151858201604001528201610187565b506000604082860101526040601f19601f830116850101925050509291505056fea2646970667358221220de808cb6246045cbb50739141c5626b930c2209061e6bcdcc4a97f7764b1991764736f6c63430008150033",
    "linkReferences": {}
  },
  "methodIdentifiers": {
    "GetMsgData()": "72538ea6",
    "GetMsgData2(int256)": "6bc5ecff",
    "GetOrigin()": "1be67ae7",
    "GetSender()": "768a3a7d",
    "IsCallerEOA()": "cc41ae0c"
  },
  "id": 17
}