{
  "abi": [
    {
      "inputs": [],
      "name": "GetMsgData",
      "outputs": [
        {
          "internalType": "bytes",
          "name": "",
          "type": "bytes"
        }
      ],
      "stateMutability": "payable",
      "type": "function"
    },
    {
      "inputs": [
        {
          "internalType": "int256",
          "name": "i",
          "type": "int256"
        }
      ],
      "name": "GetMsgData2",
      "outputs": [
        {
          "internalType": "bytes",
          "name": "",
          "type": "bytes"
        }
      ],
      "stateMutability": "payable",
      "type": "function"
    },
    {
      "inputs": [],
      "name": "GetOrigin",
      "outputs": [
        {
          "internalType": "address",
          "name": "",
          "type": "address"
        }
      ],
      "stateMutability": "view",
      "type": "function"
    },
    {
      "inputs": [],
      "name": "GetSender",
      "outputs": [
        {
          "internalType": "address",
          "name": "",
          "type": "address"
        }
      ],
      "stateMutability": "view",
      "type": "function"
    },
    {
      "inputs": [],
      "name": "IsCallerEOA",
      "outputs": [
        {
          "internalType": "bool",
          "name": "",
          "type": "bool"
        }
      ],
      "stateMutability": "view",
      "type": "function"
    },
    {
      "stateMutability": "payable",
      "type": "receive"
    }
  ],
  "bytecode": {
    "object": "0x608060405234801561001057600080fd5b506103ed806100206000396000f3fe60806040526004361061004e5760003560e01c80631be67ae71461005a5780636bc5ecff1461008557806372538ea6146100b5578063768a3a7d146100d3578063cc41ae0c146100fe57610055565b3661005557005b600080fd5b34801561006657600080fd5b5061006f610129565b60405161007c919061024c565b60405180910390f35b61009f600480360381019061009a91906102a2565b610131565b6040516100ac919061035f565b60405180910390f35b6100bd610180565b6040516100ca919061035f565b60405180910390f35b3480156100df57600080fd5b506100e86101cd565b6040516100f5919061024c565b60405180910390f35b34801561010a57600080fd5b506101136101d5565b604051610120919061039c565b60405180910390f35b600032905090565b60606000368080601f016020809104026020016040519081016040528093929190818152602001838380828437600081840152601f19601f820116905080830192505050505050509050919050565b60606000368080601f016020809104026020016040519081016040528093929190818152602001838380828437600081840152601f19601f82011690508083019250505050505050905090565b600033905090565b60003273ffffffffffffffffffffffffffffffffffffffff163373ffffffffffffffffffffffffffffffffffffffff1614905090565b600073ffffffffffffffffffffffffffffffffffffffff82169050919050565b60006102368261020b565b9050919050565b6102468161022b565b82525050565b6000602082019050610261600083018461023d565b92915050565b600080fd5b6000819050919050565b61027f8161026c565b811461028a57600080fd5b50565b60008135905061029c81610276565b92915050565b6000602082840312156102b8576102b7610267565b5b60006102c68482850161028d565b91505092915050565b600081519050919050565b600082825260208201905092915050565b60005b838110156103095780820151818401526020810190506102ee565b60008484015250505050565b6000601f19601f8301169050919050565b6000610331826102cf565b61033b81856102da565b935061034b8185602086016102eb565b61035481610315565b840191505092915050565b600060208201905081810360008301526103798184610326565b905092915050565b60008115159050919050565b61039681610381565b82525050565b60006020820190506103b1600083018461038d565b9291505056fea2646970667358221220845d9b5b9409d55d49f13cecab0f3699667a7637151855da892b6f8c7b4880e464736f6c63430008150033",
    "linkReferences": {}
  },
  "methodIdentifiers": {
    "GetMsgData()": "72538ea6",
    "GetMsgData2(int256)": "6bc5ecff",
    "GetOrigin()": "1be67ae7",
    "GetSender()": "768a3a7d",
    "IsCallerEOA()": "cc41ae0c"
  },
  "id": 26
}