{"abi":[{"type":"function","name":"DeleteDynamicArray","inputs":[],"outputs":[],"stateMutability":"nonpayable"},{"type":"function","name":"DeleteFixedArray","inputs":[],"outputs":[],"stateMutability":"nonpayable"},{"type":"function","name":"GetDynamicArray","inputs":[],"outputs":[{"name":"","type":"uint256[]","internalType":"uint256[]"}],"stateMutability":"view"},{"type":"function","name":"GetFixedArray","inputs":[],"outputs":[{"name":"","type":"uint256[3]","internalType":"uint256[3]"}],"stateMutability":"view"},{"type":"function","name":"ModifyDynamicArray","inputs":[{"name":"index","type":"uint256","internalType":"uint256"},{"name":"value","type":"uint256","internalType":"uint256"}],"outputs":[],"stateMutability":"nonpayable"},{"type":"function","name":"ModifyFixedArray","inputs":[{"name":"index","type":"uint256","internalType":"uint256"},{"name":"value","type":"uint256","internalType":"uint256"}],"outputs":[],"stateMutability":"nonpayable"},{"type":"function","name":"PopFromDynamicArray","inputs":[],"outputs":[],"stateMutability":"nonpayable"},{"type":"function","name":"PushToDynamicArray","inputs":[{"name":"value","type":"uint256","internalType":"uint256"}],"outputs":[],"stateMutability":"nonpayable"},{"type":"function","name":"SliceFromDynamicArray","inputs":[{"name":"start","type":"uint256","internalType":"uint256"},{"name":"end","type":"uint256","internalType":"uint256"}],"outputs":[{"name":"","type":"uint256[]","internalType":"uint256[]"}],"stateMutability":"view"}],"bytecode":{"object":"0x60806040526040518060600160405280600160ff168152602001600260ff168152602001600360ff16815250600090600361003b92919061008a565b506040518060600160405280600961ffff168152602001606361ffff1681526020016103e761ffff1681525060039060036100779291906100cf565b5034801561008457600080fd5b5061013f565b82600381019282156100be579160200282015b828111156100bd578251829060ff1690559160200191906001019061009d565b5b5090506100cb9190610122565b5090565b828054828255906000526020600020908101928215610111579160200282015b82811115610110578251829061ffff169055916020019190600101906100ef565b5b50905061011e9190610122565b5090565b5b8082111561013b576000816000905550600101610123565b5090565b61098e8061014e6000396000f3fe608060405234801561001057600080fd5b50600436106100935760003560e01c806339c42fdc1161006657806339c42fdc146100e457806399890fa6146100ee578063acc2e7601461010c578063d03414b91461012a578063f040819e1461014657610093565b806315af0fd1146100985780631c8cc96f146100b4578063268c7628146100d0578063299ae75d146100da575b600080fd5b6100b260048036038101906100ad9190610527565b610176565b005b6100ce60048036038101906100c99190610567565b6101e4565b005b6100d8610210565b005b6100e261021f565b005b6100ec61022f565b005b6100f6610259565b6040516101039190610652565b60405180910390f35b6101146102b1565b60405161012191906106f8565b60405180910390f35b610144600480360381019061013f9190610527565b6102fc565b005b610160600480360381019061015b9190610527565b610324565b60405161016d9190610652565b60405180910390f35b60038054905082106101bd576040517f08c379a00000000000000000000000000000000000000000000000000000000081526004016101b490610770565b60405180910390fd5b80600383815481106101d2576101d1610790565b5b90600052602060002001819055505050565b600381908060018154018082558091505060019003906000526020600020016000909190919091505550565b60008061021d9190610477565b565b6003600061022d919061048c565b565b6003805480610241576102406107bf565b5b60019003818190600052602060002001600090559055565b606060038054806020026020016040519081016040528092919081815260200182805480156102a757602002820191906000526020600020905b815481526020019060010190808311610293575b5050505050905090565b6102b96104ad565b60006003806020026040519081016040528092919082600380156102f2576020028201915b8154815260200190600101908083116102de575b5050505050905090565b600382101561032057806000836003811061031a57610319610790565b5b01819055505b5050565b6060828211610368576040517f08c379a000000000000000000000000000000000000000000000000000000000815260040161035f9061083a565b60405180910390fd5b6003805490508211156103b0576040517f08c379a00000000000000000000000000000000000000000000000000000000081526004016103a7906108a6565b60405180910390fd5b600083836103be91906108f5565b67ffffffffffffffff8111156103d7576103d6610929565b5b6040519080825280602002602001820160405280156104055781602001602082028036833780820191505090505b50905060008490505b8381101561046c576003818154811061042a57610429610790565b5b906000526020600020015482868361044291906108f5565b8151811061045357610452610790565b5b602002602001018181525050808060010191505061040e565b508091505092915050565b50600081556001016000815560010160009055565b50805460008255906000526020600020908101906104aa91906104cf565b50565b6040518060600160405280600390602082028036833780820191505090505090565b5b808211156104e85760008160009055506001016104d0565b5090565b600080fd5b6000819050919050565b610504816104f1565b811461050f57600080fd5b50565b600081359050610521816104fb565b92915050565b6000806040838503121561053e5761053d6104ec565b5b600061054c85828601610512565b925050602061055d85828601610512565b9150509250929050565b60006020828403121561057d5761057c6104ec565b5b600061058b84828501610512565b91505092915050565b600081519050919050565b600082825260208201905092915050565b6000819050602082019050919050565b6105c9816104f1565b82525050565b60006105db83836105c0565b60208301905092915050565b6000602082019050919050565b60006105ff82610594565b610609818561059f565b9350610614836105b0565b8060005b8381101561064557815161062c88826105cf565b9750610637836105e7565b925050600181019050610618565b5085935050505092915050565b6000602082019050818103600083015261066c81846105f4565b905092915050565b600060039050919050565b600081905092915050565b6000819050919050565b6000602082019050919050565b6106aa81610674565b6106b4818461067f565b92506106bf8261068a565b8060005b838110156106f05781516106d787826105cf565b96506106e283610694565b9250506001810190506106c3565b505050505050565b600060608201905061070d60008301846106a1565b92915050565b600082825260208201905092915050565b7f496e646578206f7574206f6620626f756e647300000000000000000000000000600082015250565b600061075a601383610713565b915061076582610724565b602082019050919050565b600060208201905081810360008301526107898161074d565b9050919050565b7f4e487b7100000000000000000000000000000000000000000000000000000000600052603260045260246000fd5b7f4e487b7100000000000000000000000000000000000000000000000000000000600052603160045260246000fd5b7f496e76616c696420696e6465782072616e676500000000000000000000000000600082015250565b6000610824601383610713565b915061082f826107ee565b602082019050919050565b6000602082019050818103600083015261085381610817565b9050919050565b7f456e6420696e646578206f7574206f6620626f756e6473000000000000000000600082015250565b6000610890601783610713565b915061089b8261085a565b602082019050919050565b600060208201905081810360008301526108bf81610883565b9050919050565b7f4e487b7100000000000000000000000000000000000000000000000000000000600052601160045260246000fd5b6000610900826104f1565b915061090b836104f1565b9250828203905081811115610923576109226108c6565b5b92915050565b7f4e487b7100000000000000000000000000000000000000000000000000000000600052604160045260246000fdfea264697066735822122092a3996096e800a0c01b450f6a3d4b6f1d97269d622de0cfac750bbb72a3135664736f6c63430008170033","linkReferences":{}},"methodIdentifiers":{"DeleteDynamicArray()":"299ae75d","DeleteFixedArray()":"268c7628","GetDynamicArray()":"99890fa6","GetFixedArray()":"acc2e760","ModifyDynamicArray(uint256,uint256)":"15af0fd1","ModifyFixedArray(uint256,uint256)":"d03414b9","PopFromDynamicArray()":"39c42fdc","PushToDynamicArray(uint256)":"1c8cc96f","SliceFromDynamicArray(uint256,uint256)":"f040819e"},"id":20}