{
  "abi": [
    {
      "inputs": [],
      "name": "DeleteDynamicArray",
      "outputs": [],
      "stateMutability": "nonpayable",
      "type": "function"
    },
    {
      "inputs": [],
      "name": "DeleteFixedArray",
      "outputs": [],
      "stateMutability": "nonpayable",
      "type": "function"
    },
    {
      "inputs": [],
      "name": "GetDynamicArray",
      "outputs": [
        {
          "internalType": "uint256[]",
          "name": "",
          "type": "uint256[]"
        }
      ],
      "stateMutability": "view",
      "type": "function"
    },
    {
      "inputs": [],
      "name": "GetFixedArray",
      "outputs": [
        {
          "internalType": "uint256[3]",
          "name": "",
          "type": "uint256[3]"
        }
      ],
      "stateMutability": "view",
      "type": "function"
    },
    {
      "inputs": [
        {
          "internalType": "uint256",
          "name": "index",
          "type": "uint256"
        },
        {
          "internalType": "uint256",
          "name": "value",
          "type": "uint256"
        }
      ],
      "name": "ModifyDynamicArray",
      "outputs": [],
      "stateMutability": "nonpayable",
      "type": "function"
    },
    {
      "inputs": [
        {
          "internalType": "uint256",
          "name": "index",
          "type": "uint256"
        },
        {
          "internalType": "uint256",
          "name": "value",
          "type": "uint256"
        }
      ],
      "name": "ModifyFixedArray",
      "outputs": [],
      "stateMutability": "nonpayable",
      "type": "function"
    },
    {
      "inputs": [],
      "name": "PopFromDynamicArray",
      "outputs": [],
      "stateMutability": "nonpayable",
      "type": "function"
    },
    {
      "inputs": [
        {
          "internalType": "uint256",
          "name": "value",
          "type": "uint256"
        }
      ],
      "name": "PushToDynamicArray",
      "outputs": [],
      "stateMutability": "nonpayable",
      "type": "function"
    },
    {
      "inputs": [
        {
          "internalType": "uint256",
          "name": "start",
          "type": "uint256"
        },
        {
          "internalType": "uint256",
          "name": "end",
          "type": "uint256"
        }
      ],
      "name": "SliceFromDynamicArray",
      "outputs": [
        {
          "internalType": "uint256[]",
          "name": "",
          "type": "uint256[]"
        }
      ],
      "stateMutability": "view",
      "type": "function"
    }
  ],
  "bytecode": {
    "object": "0x60e060405260016080908152600260a052600360c081905261002391600091610063565b506040805160608101825260098152606360208201526103e79181019190915261005090600390816100a6565b5034801561005d57600080fd5b506100fc565b8260038101928215610096579160200282015b82811115610096578251829060ff16905591602001919060010190610076565b506100a29291506100e7565b5090565b828054828255906000526020600020908101928215610096579160200282015b82811115610096578251829061ffff169055916020019190600101906100c6565b5b808211156100a257600081556001016100e8565b6105db8061010b6000396000f3fe608060405234801561001057600080fd5b50600436106100935760003560e01c806339c42fdc1161006657806339c42fdc1461010a57806399890fa614610112578063acc2e76014610130578063d03414b914610145578063f040819e1461015857600080fd5b806315af0fd1146100985780631c8cc96f146100ad578063268c7628146100f0578063299ae75d14610102575b600080fd5b6100ab6100a6366004610471565b61016b565b005b6100ab6100bb366004610493565b600380546001810182556000919091527fc2575a0e9e593c00f959f8c92f12db2869c3395a3b0502d05e2516446f71f85b0155565b6100ab60008080556001819055600255565b6100ab6101dd565b6100ab6101e9565b61011a610212565b60405161012791906104ac565b60405180910390f35b61013861026a565b60405161012791906104f0565b6100ab610153366004610471565b6102a0565b61011a610166366004610471565b6102c4565b60035482106101b75760405162461bcd60e51b8152602060048201526013602482015272496e646578206f7574206f6620626f756e647360681b60448201526064015b60405180910390fd5b80600383815481106101cb576101cb610521565b6000918252602090912001555050565b565b6101db60036000610419565b60038054806101fa576101fa610537565b60019003818190600052602060002001600090559055565b6060600380548060200260200160405190810160405280929190818152602001828054801561026057602002820191906000526020600020905b81548152602001906001019080831161024c575b5050505050905090565b61027261043a565b604080516060810191829052600080548252909160039060016020850180831161024c575050505050905090565b60038210156102c05780600083600381106102bd576102bd610521565b01555b5050565b606082821161030b5760405162461bcd60e51b8152602060048201526013602482015272496e76616c696420696e6465782072616e676560681b60448201526064016101ae565b60035482111561035d5760405162461bcd60e51b815260206004820152601760248201527f456e6420696e646578206f7574206f6620626f756e647300000000000000000060448201526064016101ae565b60006103698484610563565b67ffffffffffffffff81111561038157610381610576565b6040519080825280602002602001820160405280156103aa578160200160208202803683370190505b509050835b8381101561040f57600381815481106103ca576103ca610521565b90600052602060002001548286836103e29190610563565b815181106103f2576103f2610521565b6020908102919091010152806104078161058c565b9150506103af565b5090505b92915050565b50805460008255906000526020600020908101906104379190610458565b50565b60405180606001604052806003906020820280368337509192915050565b5b8082111561046d5760008155600101610459565b5090565b6000806040838503121561048457600080fd5b50508035926020909101359150565b6000602082840312156104a557600080fd5b5035919050565b6020808252825182820181905260009190848201906040850190845b818110156104e4578351835292840192918401916001016104c8565b50909695505050505050565b60608101818360005b60038110156105185781518352602092830192909101906001016104f9565b50505092915050565b634e487b7160e01b600052603260045260246000fd5b634e487b7160e01b600052603160045260246000fd5b634e487b7160e01b600052601160045260246000fd5b818103818111156104135761041361054d565b634e487b7160e01b600052604160045260246000fd5b60006001820161059e5761059e61054d565b506001019056fea2646970667358221220414b2f91e9f7a8346fca343eeea2c5987dec8e9e00afc9b4e4711e8b2be430fe64736f6c63430008150033",
    "linkReferences": {}
  },
  "methodIdentifiers": {
    "DeleteDynamicArray()": "299ae75d",
    "DeleteFixedArray()": "268c7628",
    "GetDynamicArray()": "99890fa6",
    "GetFixedArray()": "acc2e760",
    "ModifyDynamicArray(uint256,uint256)": "15af0fd1",
    "ModifyFixedArray(uint256,uint256)": "d03414b9",
    "PopFromDynamicArray()": "39c42fdc",
    "PushToDynamicArray(uint256)": "1c8cc96f",
    "SliceFromDynamicArray(uint256,uint256)": "f040819e"
  },
  "id": 21
}