{"abi":[{"type":"constructor","inputs":[],"stateMutability":"nonpayable"},{"type":"function","name":"GetCodeSize","inputs":[],"outputs":[{"name":"","type":"uint256","internalType":"uint256"}],"stateMutability":"pure"},{"type":"function","name":"codeSizeCallInConstructor","inputs":[],"outputs":[{"name":"","type":"uint256","internalType":"uint256"}],"stateMutability":"view"}],"bytecode":{"object":"0x608060405234801561001057600080fd5b5061001f61002a60201b60201c565b600081905550610037565b6000803890508091505090565b60e4806100456000396000f3fe6080604052348015600f57600080fd5b506004361060325760003560e01c806346e4f9651460375780636319eee0146051575b600080fd5b603d606b565b604051604891906095565b60405180910390f35b60576071565b604051606291906095565b60405180910390f35b60005481565b6000803890508091505090565b6000819050919050565b608f81607e565b82525050565b600060208201905060a860008301846088565b9291505056fea26469706673582212208750f164cad910b1bf82d90ae9043c5a9224c888544efd6d09b7b7ece235945964736f6c63430008170033","linkReferences":{}},"methodIdentifiers":{"GetCodeSize()":"6319eee0","codeSizeCallInConstructor()":"46e4f965"},"id":31}