{"abi":[{"type":"constructor","inputs":[],"stateMutability":"nonpayable"},{"type":"function","name":"GetExtCodeSize","inputs":[],"outputs":[{"name":"","type":"uint256","internalType":"uint256"}],"stateMutability":"view"},{"type":"function","name":"extCodeSizeCallInConstructor","inputs":[],"outputs":[{"name":"","type":"uint256","internalType":"uint256"}],"stateMutability":"view"}],"bytecode":{"object":"0x608060405234801561001057600080fd5b5061001f61002a60201b60201c565b60008190555061003e565b6000806000309050803b9150819250505090565b60eb8061004c6000396000f3fe6080604052348015600f57600080fd5b506004361060325760003560e01c8063c930b95d146037578063ce81828f146051575b600080fd5b603d606b565b60405160489190609c565b60405180910390f35b60576071565b60405160629190609c565b60405180910390f35b60005481565b6000806000309050803b9150819250505090565b6000819050919050565b6096816085565b82525050565b600060208201905060af6000830184608f565b9291505056fea26469706673582212205b4dada3be44eb045bdf66e32aca42516410638d003f26717bc4f146ea9a4da564736f6c63430008170033","linkReferences":{}},"methodIdentifiers":{"GetExtCodeSize()":"ce81828f","extCodeSizeCallInConstructor()":"c930b95d"},"id":17}