{
  "abi": [
    {
      "inputs": [
        {
          "internalType": "uint256",
          "name": "a",
          "type": "uint256"
        },
        {
          "internalType": "uint256",
          "name": "b",
          "type": "uint256"
        }
      ],
      "name": "Add",
      "outputs": [
        {
          "internalType": "uint256",
          "name": "",
          "type": "uint256"
        }
      ],
      "stateMutability": "pure",
      "type": "function"
    },
    {
      "inputs": [
        {
          "internalType": "uint256",
          "name": "a",
          "type": "uint256"
        },
        {
          "internalType": "uint256",
          "name": "b",
          "type": "uint256"
        }
      ],
      "name": "Byte",
      "outputs": [
        {
          "internalType": "uint256",
          "name": "",
          "type": "uint256"
        }
      ],
      "stateMutability": "pure",
      "type": "function"
    },
    {
      "inputs": [
        {
          "internalType": "uint256",
          "name": "a",
          "type": "uint256"
        },
        {
          "internalType": "uint256",
          "name": "b",
          "type": "uint256"
        }
      ],
      "name": "Div",
      "outputs": [
        {
          "internalType": "uint256",
          "name": "",
          "type": "uint256"
        }
      ],
      "stateMutability": "pure",
      "type": "function"
    },
    {
      "inputs": [
        {
          "internalType": "uint256",
          "name": "a",
          "type": "uint256"
        },
        {
          "internalType": "uint256",
          "name": "b",
          "type": "uint256"
        }
      ],
      "name": "Eq",
      "outputs": [
        {
          "internalType": "bool",
          "name": "",
          "type": "bool"
        }
      ],
      "stateMutability": "pure",
      "type": "function"
    },
    {
      "inputs": [
        {
          "internalType": "uint256",
          "name": "a",
          "type": "uint256"
        },
        {
          "internalType": "uint256",
          "name": "b",
          "type": "uint256"
        }
      ],
      "name": "Exp",
      "outputs": [
        {
          "internalType": "uint256",
          "name": "",
          "type": "uint256"
        }
      ],
      "stateMutability": "pure",
      "type": "function"
    },
    {
      "inputs": [
        {
          "internalType": "uint256",
          "name": "a",
          "type": "uint256"
        },
        {
          "internalType": "uint256",
          "name": "b",
          "type": "uint256"
        }
      ],
      "name": "Lt",
      "outputs": [
        {
          "internalType": "bool",
          "name": "",
          "type": "bool"
        }
      ],
      "stateMutability": "pure",
      "type": "function"
    },
    {
      "inputs": [
        {
          "internalType": "uint256",
          "name": "a",
          "type": "uint256"
        },
        {
          "internalType": "uint256",
          "name": "b",
          "type": "uint256"
        }
      ],
      "name": "Mod",
      "outputs": [
        {
          "internalType": "uint256",
          "name": "",
          "type": "uint256"
        }
      ],
      "stateMutability": "pure",
      "type": "function"
    },
    {
      "inputs": [
        {
          "internalType": "uint256",
          "name": "a",
          "type": "uint256"
        },
        {
          "internalType": "uint256",
          "name": "b",
          "type": "uint256"
        }
      ],
      "name": "Mul",
      "outputs": [
        {
          "internalType": "uint256",
          "name": "",
          "type": "uint256"
        }
      ],
      "stateMutability": "pure",
      "type": "function"
    },
    {
      "inputs": [
        {
          "internalType": "uint256",
          "name": "a",
          "type": "uint256"
        }
      ],
      "name": "Not",
      "outputs": [
        {
          "internalType": "uint256",
          "name": "",
          "type": "uint256"
        }
      ],
      "stateMutability": "pure",
      "type": "function"
    },
    {
      "inputs": [
        {
          "internalType": "int256",
          "name": "a",
          "type": "int256"
        },
        {
          "internalType": "int256",
          "name": "b",
          "type": "int256"
        }
      ],
      "name": "Sdiv",
      "outputs": [
        {
          "internalType": "int256",
          "name": "",
          "type": "int256"
        }
      ],
      "stateMutability": "pure",
      "type": "function"
    },
    {
      "inputs": [
        {
          "internalType": "int256",
          "name": "a",
          "type": "int256"
        },
        {
          "internalType": "int256",
          "name": "b",
          "type": "int256"
        }
      ],
      "name": "Slt",
      "outputs": [
        {
          "internalType": "bool",
          "name": "",
          "type": "bool"
        }
      ],
      "stateMutability": "pure",
      "type": "function"
    },
    {
      "inputs": [
        {
          "internalType": "int256",
          "name": "a",
          "type": "int256"
        },
        {
          "internalType": "int256",
          "name": "b",
          "type": "int256"
        }
      ],
      "name": "Smod",
      "outputs": [
        {
          "internalType": "int256",
          "name": "",
          "type": "int256"
        }
      ],
      "stateMutability": "pure",
      "type": "function"
    },
    {
      "inputs": [],
      "name": "Stop",
      "outputs": [],
      "stateMutability": "pure",
      "type": "function"
    },
    {
      "inputs": [
        {
          "internalType": "uint256",
          "name": "a",
          "type": "uint256"
        },
        {
          "internalType": "uint256",
          "name": "b",
          "type": "uint256"
        }
      ],
      "name": "Sub",
      "outputs": [
        {
          "internalType": "uint256",
          "name": "",
          "type": "uint256"
        }
      ],
      "stateMutability": "pure",
      "type": "function"
    }
  ],
  "bytecode": {
    "object": "0x608060405234801561001057600080fd5b5061027b806100206000396000f3fe608060405234801561001057600080fd5b50600436106100ea5760003560e01c80639a03fe1d1161008c578063bedf0f4a11610066578063bedf0f4a146101cc578063d65764f4146101d3578063d9c672fe146101e5578063ff392c10146101f857600080fd5b80639a03fe1d14610194578063a3c74c4b146101a7578063a55c0d60146101b957600080fd5b806363468949116100c8578063634689491461013a5780637afbe4f11461014d57806390d2a2401461015f5780639565b8a71461018157600080fd5b80631ec9c2c0146100ef5780633056b9cd146101155780636095374414610128575b600080fd5b6101026100fd36600461020a565b900390565b6040519081526020015b60405180910390f35b61010261012336600461020a565b900a90565b61010261013636600461020a565b0290565b61010261014836600461020a565b900790565b61010261015b36600461020a565b0190565b61017161016d36600461020a565b1390565b604051901515815260200161010c565b61010261018f36600461020a565b900690565b6101026101a236600461020a565b900490565b6101716101b536600461020a565b1490565b6101026101c736600461020a565b901a90565b6101d1005b005b6101716101e136600461020a565b1190565b6101026101f336600461020a565b900590565b61010261020636600461022c565b1990565b6000806040838503121561021d57600080fd5b50508035926020909101359150565b60006020828403121561023e57600080fd5b503591905056fea26469706673582212200cf30842f068b085e88811194ba750d0dfbb909cb0bbdda060a484c47065414b64736f6c63430008150033",
    "linkReferences": {}
  },
  "methodIdentifiers": {
    "Add(uint256,uint256)": "7afbe4f1",
    "Byte(uint256,uint256)": "a55c0d60",
    "Div(uint256,uint256)": "9a03fe1d",
    "Eq(uint256,uint256)": "a3c74c4b",
    "Exp(uint256,uint256)": "3056b9cd",
    "Lt(uint256,uint256)": "d65764f4",
    "Mod(uint256,uint256)": "9565b8a7",
    "Mul(uint256,uint256)": "60953744",
    "Not(uint256)": "ff392c10",
    "Sdiv(int256,int256)": "d9c672fe",
    "Slt(int256,int256)": "90d2a240",
    "Smod(int256,int256)": "63468949",
    "Stop()": "bedf0f4a",
    "Sub(uint256,uint256)": "1ec9c2c0"
  },
  "id": 17
}