{
  "abi": [
    {
      "inputs": [
        {
          "internalType": "uint256",
          "name": "a",
          "type": "uint256"
        },
        {
          "internalType": "uint256",
          "name": "b",
          "type": "uint256"
        }
      ],
      "name": "Add",
      "outputs": [
        {
          "internalType": "uint256",
          "name": "",
          "type": "uint256"
        }
      ],
      "stateMutability": "pure",
      "type": "function"
    },
    {
      "inputs": [
        {
          "internalType": "uint256",
          "name": "a",
          "type": "uint256"
        },
        {
          "internalType": "uint256",
          "name": "b",
          "type": "uint256"
        }
      ],
      "name": "Byte",
      "outputs": [
        {
          "internalType": "uint256",
          "name": "",
          "type": "uint256"
        }
      ],
      "stateMutability": "pure",
      "type": "function"
    },
    {
      "inputs": [
        {
          "internalType": "uint256",
          "name": "a",
          "type": "uint256"
        },
        {
          "internalType": "uint256",
          "name": "b",
          "type": "uint256"
        }
      ],
      "name": "Div",
      "outputs": [
        {
          "internalType": "uint256",
          "name": "",
          "type": "uint256"
        }
      ],
      "stateMutability": "pure",
      "type": "function"
    },
    {
      "inputs": [
        {
          "internalType": "uint256",
          "name": "a",
          "type": "uint256"
        },
        {
          "internalType": "uint256",
          "name": "b",
          "type": "uint256"
        }
      ],
      "name": "Eq",
      "outputs": [
        {
          "internalType": "bool",
          "name": "",
          "type": "bool"
        }
      ],
      "stateMutability": "pure",
      "type": "function"
    },
    {
      "inputs": [
        {
          "internalType": "uint256",
          "name": "a",
          "type": "uint256"
        },
        {
          "internalType": "uint256",
          "name": "b",
          "type": "uint256"
        }
      ],
      "name": "Exp",
      "outputs": [
        {
          "internalType": "uint256",
          "name": "",
          "type": "uint256"
        }
      ],
      "stateMutability": "pure",
      "type": "function"
    },
    {
      "inputs": [
        {
          "internalType": "bytes",
          "name": "a",
          "type": "bytes"
        },
        {
          "internalType": "uint256",
          "name": "length",
          "type": "uint256"
        }
      ],
      "name": "Keccak256",
      "outputs": [
        {
          "internalType": "bytes32",
          "name": "",
          "type": "bytes32"
        }
      ],
      "stateMutability": "pure",
      "type": "function"
    },
    {
      "inputs": [
        {
          "internalType": "bytes",
          "name": "a",
          "type": "bytes"
        }
      ],
      "name": "Keccak256_2",
      "outputs": [
        {
          "internalType": "bytes32",
          "name": "",
          "type": "bytes32"
        }
      ],
      "stateMutability": "pure",
      "type": "function"
    },
    {
      "inputs": [
        {
          "internalType": "uint256",
          "name": "a",
          "type": "uint256"
        },
        {
          "internalType": "uint256",
          "name": "b",
          "type": "uint256"
        }
      ],
      "name": "Lt",
      "outputs": [
        {
          "internalType": "bool",
          "name": "",
          "type": "bool"
        }
      ],
      "stateMutability": "pure",
      "type": "function"
    },
    {
      "inputs": [
        {
          "internalType": "bytes",
          "name": "a",
          "type": "bytes"
        },
        {
          "internalType": "uint256",
          "name": "offset",
          "type": "uint256"
        }
      ],
      "name": "Mload",
      "outputs": [
        {
          "internalType": "bytes32",
          "name": "",
          "type": "bytes32"
        }
      ],
      "stateMutability": "pure",
      "type": "function"
    },
    {
      "inputs": [
        {
          "internalType": "bytes",
          "name": "a",
          "type": "bytes"
        }
      ],
      "name": "Mload_GetLength",
      "outputs": [
        {
          "internalType": "uint256",
          "name": "",
          "type": "uint256"
        }
      ],
      "stateMutability": "pure",
      "type": "function"
    },
    {
      "inputs": [
        {
          "internalType": "uint256",
          "name": "a",
          "type": "uint256"
        },
        {
          "internalType": "uint256",
          "name": "b",
          "type": "uint256"
        }
      ],
      "name": "Mod",
      "outputs": [
        {
          "internalType": "uint256",
          "name": "",
          "type": "uint256"
        }
      ],
      "stateMutability": "pure",
      "type": "function"
    },
    {
      "inputs": [
        {
          "internalType": "uint256",
          "name": "a",
          "type": "uint256"
        },
        {
          "internalType": "uint256",
          "name": "b",
          "type": "uint256"
        }
      ],
      "name": "Mul",
      "outputs": [
        {
          "internalType": "uint256",
          "name": "",
          "type": "uint256"
        }
      ],
      "stateMutability": "pure",
      "type": "function"
    },
    {
      "inputs": [
        {
          "internalType": "uint256",
          "name": "a",
          "type": "uint256"
        }
      ],
      "name": "Not",
      "outputs": [
        {
          "internalType": "uint256",
          "name": "",
          "type": "uint256"
        }
      ],
      "stateMutability": "pure",
      "type": "function"
    },
    {
      "inputs": [
        {
          "internalType": "uint256",
          "name": "a",
          "type": "uint256"
        },
        {
          "internalType": "int256",
          "name": "b",
          "type": "int256"
        }
      ],
      "name": "Sar",
      "outputs": [
        {
          "internalType": "int256",
          "name": "",
          "type": "int256"
        }
      ],
      "stateMutability": "pure",
      "type": "function"
    },
    {
      "inputs": [
        {
          "internalType": "int256",
          "name": "a",
          "type": "int256"
        },
        {
          "internalType": "int256",
          "name": "b",
          "type": "int256"
        }
      ],
      "name": "Sdiv",
      "outputs": [
        {
          "internalType": "int256",
          "name": "",
          "type": "int256"
        }
      ],
      "stateMutability": "pure",
      "type": "function"
    },
    {
      "inputs": [
        {
          "internalType": "uint256",
          "name": "a",
          "type": "uint256"
        },
        {
          "internalType": "uint256",
          "name": "b",
          "type": "uint256"
        }
      ],
      "name": "Shr",
      "outputs": [
        {
          "internalType": "uint256",
          "name": "",
          "type": "uint256"
        }
      ],
      "stateMutability": "pure",
      "type": "function"
    },
    {
      "inputs": [
        {
          "internalType": "int256",
          "name": "a",
          "type": "int256"
        },
        {
          "internalType": "int256",
          "name": "b",
          "type": "int256"
        }
      ],
      "name": "Slt",
      "outputs": [
        {
          "internalType": "bool",
          "name": "",
          "type": "bool"
        }
      ],
      "stateMutability": "pure",
      "type": "function"
    },
    {
      "inputs": [
        {
          "internalType": "int256",
          "name": "a",
          "type": "int256"
        },
        {
          "internalType": "int256",
          "name": "b",
          "type": "int256"
        }
      ],
      "name": "Smod",
      "outputs": [
        {
          "internalType": "int256",
          "name": "",
          "type": "int256"
        }
      ],
      "stateMutability": "pure",
      "type": "function"
    },
    {
      "inputs": [],
      "name": "Stop",
      "outputs": [],
      "stateMutability": "pure",
      "type": "function"
    },
    {
      "inputs": [
        {
          "internalType": "uint256",
          "name": "a",
          "type": "uint256"
        },
        {
          "internalType": "uint256",
          "name": "b",
          "type": "uint256"
        }
      ],
      "name": "Sub",
      "outputs": [
        {
          "internalType": "uint256",
          "name": "",
          "type": "uint256"
        }
      ],
      "stateMutability": "pure",
      "type": "function"
    }
  ],
  "bytecode": {
    "object": "0x608060405234801561001057600080fd5b5061045e806100206000396000f3fe608060405234801561001057600080fd5b506004361061012c5760003560e01c80639c51d6e1116100ad578063d65764f411610071578063d65764f414610266578063d9c672fe14610278578063e10fde0e1461028b578063e6d16624146102a3578063ff392c10146102b657600080fd5b80639c51d6e114610215578063a3c74c4b14610227578063a55c0d6014610239578063bedf0f4a1461024c578063c30f89a01461025357600080fd5b806363468949116100f457806363468949146101a85780637afbe4f1146101bb57806390d2a240146101cd5780639565b8a7146101ef5780639a03fe1d1461020257600080fd5b8063015b40fa146101315780631ec9c2c01461015d5780633056b9cd146101705780633993a320146101835780636095374414610196575b600080fd5b61014a61013f36600461036b565b805160209091012090565b6040519081526020015b60405180910390f35b61014a61016b3660046103a8565b900390565b61014a61017e3660046103a8565b900a90565b61014a6101913660046103ca565b015190565b61014a6101a43660046103a8565b0290565b61014a6101b63660046103a8565b900790565b61014a6101c93660046103a8565b0190565b6101df6101db3660046103a8565b1390565b6040519015158152602001610154565b61014a6101fd3660046103a8565b900690565b61014a6102103660046103a8565b900490565b61014a61022336600461036b565b5190565b6101df6102353660046103a8565b1490565b61014a6102473660046103a8565b901a90565b610251005b005b61014a6102613660046103a8565b901c90565b6101df6102743660046103a8565b1190565b61014a6102863660046103a8565b900590565b61014a6102993660046103ca565b6020919091012090565b61014a6102b13660046103a8565b901d90565b61014a6102c436600461040f565b1990565b634e487b7160e01b600052604160045260246000fd5b600082601f8301126102ef57600080fd5b813567ffffffffffffffff8082111561030a5761030a6102c8565b604051601f8301601f19908116603f01168101908282118183101715610332576103326102c8565b8160405283815286602085880101111561034b57600080fd5b836020870160208301376000602085830101528094505050505092915050565b60006020828403121561037d57600080fd5b813567ffffffffffffffff81111561039457600080fd5b6103a0848285016102de565b949350505050565b600080604083850312156103bb57600080fd5b50508035926020909101359150565b600080604083850312156103dd57600080fd5b823567ffffffffffffffff8111156103f457600080fd5b610400858286016102de565b95602094909401359450505050565b60006020828403121561042157600080fd5b503591905056fea26469706673582212205134c800f74f2af6b6aae4373b11b2434b293ea18ce1e4830f5eee222a6e7af464736f6c63430008150033",
    "linkReferences": {}
  },
  "methodIdentifiers": {
    "Add(uint256,uint256)": "7afbe4f1",
    "Byte(uint256,uint256)": "a55c0d60",
    "Div(uint256,uint256)": "9a03fe1d",
    "Eq(uint256,uint256)": "a3c74c4b",
    "Exp(uint256,uint256)": "3056b9cd",
    "Keccak256(bytes,uint256)": "e10fde0e",
    "Keccak256_2(bytes)": "015b40fa",
    "Lt(uint256,uint256)": "d65764f4",
    "Mload(bytes,uint256)": "3993a320",
    "Mload_GetLength(bytes)": "9c51d6e1",
    "Mod(uint256,uint256)": "9565b8a7",
    "Mul(uint256,uint256)": "60953744",
    "Not(uint256)": "ff392c10",
    "Sar(uint256,int256)": "e6d16624",
    "Sdiv(int256,int256)": "d9c672fe",
    "Shr(uint256,uint256)": "c30f89a0",
    "Slt(int256,int256)": "90d2a240",
    "Smod(int256,int256)": "63468949",
    "Stop()": "bedf0f4a",
    "Sub(uint256,uint256)": "1ec9c2c0"
  },
  "id": 17
}