{
  "abi": [
    {
      "inputs": [
        {
          "internalType": "uint256",
          "name": "a",
          "type": "uint256"
        },
        {
          "internalType": "uint256",
          "name": "b",
          "type": "uint256"
        }
      ],
      "name": "Add",
      "outputs": [
        {
          "internalType": "uint256",
          "name": "",
          "type": "uint256"
        }
      ],
      "stateMutability": "pure",
      "type": "function"
    },
    {
      "inputs": [
        {
          "internalType": "uint256",
          "name": "a",
          "type": "uint256"
        },
        {
          "internalType": "uint256",
          "name": "b",
          "type": "uint256"
        }
      ],
      "name": "Byte",
      "outputs": [
        {
          "internalType": "uint256",
          "name": "",
          "type": "uint256"
        }
      ],
      "stateMutability": "pure",
      "type": "function"
    },
    {
      "inputs": [
        {
          "internalType": "uint256",
          "name": "p",
          "type": "uint256"
        }
      ],
      "name": "Calldataload",
      "outputs": [
        {
          "internalType": "bytes32",
          "name": "",
          "type": "bytes32"
        }
      ],
      "stateMutability": "pure",
      "type": "function"
    },
    {
      "inputs": [],
      "name": "Caller",
      "outputs": [
        {
          "internalType": "address",
          "name": "",
          "type": "address"
        }
      ],
      "stateMutability": "view",
      "type": "function"
    },
    {
      "inputs": [
        {
          "internalType": "uint256",
          "name": "a",
          "type": "uint256"
        },
        {
          "internalType": "uint256",
          "name": "b",
          "type": "uint256"
        }
      ],
      "name": "Div",
      "outputs": [
        {
          "internalType": "uint256",
          "name": "",
          "type": "uint256"
        }
      ],
      "stateMutability": "pure",
      "type": "function"
    },
    {
      "inputs": [
        {
          "internalType": "uint256",
          "name": "a",
          "type": "uint256"
        },
        {
          "internalType": "uint256",
          "name": "b",
          "type": "uint256"
        }
      ],
      "name": "Eq",
      "outputs": [
        {
          "internalType": "bool",
          "name": "",
          "type": "bool"
        }
      ],
      "stateMutability": "pure",
      "type": "function"
    },
    {
      "inputs": [
        {
          "internalType": "uint256",
          "name": "a",
          "type": "uint256"
        },
        {
          "internalType": "uint256",
          "name": "b",
          "type": "uint256"
        }
      ],
      "name": "Exp",
      "outputs": [
        {
          "internalType": "uint256",
          "name": "",
          "type": "uint256"
        }
      ],
      "stateMutability": "pure",
      "type": "function"
    },
    {
      "inputs": [],
      "name": "GetMap1Slot",
      "outputs": [
        {
          "internalType": "uint256",
          "name": "",
          "type": "uint256"
        }
      ],
      "stateMutability": "pure",
      "type": "function"
    },
    {
      "inputs": [
        {
          "internalType": "address",
          "name": "key",
          "type": "address"
        }
      ],
      "name": "GetMap1Value",
      "outputs": [
        {
          "internalType": "uint256",
          "name": "",
          "type": "uint256"
        }
      ],
      "stateMutability": "view",
      "type": "function"
    },
    {
      "inputs": [
        {
          "internalType": "address",
          "name": "key",
          "type": "address"
        }
      ],
      "name": "GetMap1Value2",
      "outputs": [
        {
          "internalType": "uint256",
          "name": "",
          "type": "uint256"
        }
      ],
      "stateMutability": "view",
      "type": "function"
    },
    {
      "inputs": [],
      "name": "GetV0",
      "outputs": [
        {
          "internalType": "uint256",
          "name": "",
          "type": "uint256"
        }
      ],
      "stateMutability": "view",
      "type": "function"
    },
    {
      "inputs": [
        {
          "internalType": "bytes",
          "name": "a",
          "type": "bytes"
        },
        {
          "internalType": "uint256",
          "name": "length",
          "type": "uint256"
        }
      ],
      "name": "Keccak256",
      "outputs": [
        {
          "internalType": "bytes32",
          "name": "",
          "type": "bytes32"
        }
      ],
      "stateMutability": "pure",
      "type": "function"
    },
    {
      "inputs": [
        {
          "internalType": "bytes",
          "name": "a",
          "type": "bytes"
        }
      ],
      "name": "Keccak256_2",
      "outputs": [
        {
          "internalType": "bytes32",
          "name": "",
          "type": "bytes32"
        }
      ],
      "stateMutability": "pure",
      "type": "function"
    },
    {
      "inputs": [
        {
          "internalType": "uint256",
          "name": "a",
          "type": "uint256"
        },
        {
          "internalType": "uint256",
          "name": "b",
          "type": "uint256"
        }
      ],
      "name": "Lt",
      "outputs": [
        {
          "internalType": "bool",
          "name": "",
          "type": "bool"
        }
      ],
      "stateMutability": "pure",
      "type": "function"
    },
    {
      "inputs": [
        {
          "internalType": "bytes",
          "name": "a",
          "type": "bytes"
        },
        {
          "internalType": "uint256",
          "name": "offset",
          "type": "uint256"
        }
      ],
      "name": "Mload",
      "outputs": [
        {
          "internalType": "bytes32",
          "name": "",
          "type": "bytes32"
        }
      ],
      "stateMutability": "pure",
      "type": "function"
    },
    {
      "inputs": [
        {
          "internalType": "bytes",
          "name": "a",
          "type": "bytes"
        }
      ],
      "name": "Mload_GetLength",
      "outputs": [
        {
          "internalType": "uint256",
          "name": "",
          "type": "uint256"
        }
      ],
      "stateMutability": "pure",
      "type": "function"
    },
    {
      "inputs": [
        {
          "internalType": "uint256",
          "name": "a",
          "type": "uint256"
        },
        {
          "internalType": "uint256",
          "name": "b",
          "type": "uint256"
        }
      ],
      "name": "Mod",
      "outputs": [
        {
          "internalType": "uint256",
          "name": "",
          "type": "uint256"
        }
      ],
      "stateMutability": "pure",
      "type": "function"
    },
    {
      "inputs": [
        {
          "internalType": "bytes",
          "name": "a",
          "type": "bytes"
        },
        {
          "internalType": "uint256",
          "name": "offset",
          "type": "uint256"
        },
        {
          "internalType": "bytes32",
          "name": "value",
          "type": "bytes32"
        }
      ],
      "name": "Mstore",
      "outputs": [],
      "stateMutability": "pure",
      "type": "function"
    },
    {
      "inputs": [
        {
          "internalType": "uint256",
          "name": "a",
          "type": "uint256"
        },
        {
          "internalType": "uint256",
          "name": "b",
          "type": "uint256"
        }
      ],
      "name": "Mul",
      "outputs": [
        {
          "internalType": "uint256",
          "name": "",
          "type": "uint256"
        }
      ],
      "stateMutability": "pure",
      "type": "function"
    },
    {
      "inputs": [
        {
          "internalType": "uint256",
          "name": "a",
          "type": "uint256"
        }
      ],
      "name": "Not",
      "outputs": [
        {
          "internalType": "uint256",
          "name": "",
          "type": "uint256"
        }
      ],
      "stateMutability": "pure",
      "type": "function"
    },
    {
      "inputs": [
        {
          "internalType": "uint256",
          "name": "a",
          "type": "uint256"
        },
        {
          "internalType": "int256",
          "name": "b",
          "type": "int256"
        }
      ],
      "name": "Sar",
      "outputs": [
        {
          "internalType": "int256",
          "name": "",
          "type": "int256"
        }
      ],
      "stateMutability": "pure",
      "type": "function"
    },
    {
      "inputs": [
        {
          "internalType": "int256",
          "name": "a",
          "type": "int256"
        },
        {
          "internalType": "int256",
          "name": "b",
          "type": "int256"
        }
      ],
      "name": "Sdiv",
      "outputs": [
        {
          "internalType": "int256",
          "name": "",
          "type": "int256"
        }
      ],
      "stateMutability": "pure",
      "type": "function"
    },
    {
      "inputs": [
        {
          "internalType": "address",
          "name": "key",
          "type": "address"
        },
        {
          "internalType": "uint256",
          "name": "value",
          "type": "uint256"
        }
      ],
      "name": "SetMap1Value",
      "outputs": [],
      "stateMutability": "nonpayable",
      "type": "function"
    },
    {
      "inputs": [
        {
          "internalType": "uint256",
          "name": "value",
          "type": "uint256"
        }
      ],
      "name": "SetV0",
      "outputs": [],
      "stateMutability": "nonpayable",
      "type": "function"
    },
    {
      "inputs": [
        {
          "internalType": "uint256",
          "name": "a",
          "type": "uint256"
        },
        {
          "internalType": "uint256",
          "name": "b",
          "type": "uint256"
        }
      ],
      "name": "Shr",
      "outputs": [
        {
          "internalType": "uint256",
          "name": "",
          "type": "uint256"
        }
      ],
      "stateMutability": "pure",
      "type": "function"
    },
    {
      "inputs": [
        {
          "internalType": "uint256",
          "name": "slot",
          "type": "uint256"
        }
      ],
      "name": "Sload",
      "outputs": [
        {
          "internalType": "uint256",
          "name": "",
          "type": "uint256"
        }
      ],
      "stateMutability": "view",
      "type": "function"
    },
    {
      "inputs": [
        {
          "internalType": "int256",
          "name": "a",
          "type": "int256"
        },
        {
          "internalType": "int256",
          "name": "b",
          "type": "int256"
        }
      ],
      "name": "Slt",
      "outputs": [
        {
          "internalType": "bool",
          "name": "",
          "type": "bool"
        }
      ],
      "stateMutability": "pure",
      "type": "function"
    },
    {
      "inputs": [
        {
          "internalType": "int256",
          "name": "a",
          "type": "int256"
        },
        {
          "internalType": "int256",
          "name": "b",
          "type": "int256"
        }
      ],
      "name": "Smod",
      "outputs": [
        {
          "internalType": "int256",
          "name": "",
          "type": "int256"
        }
      ],
      "stateMutability": "pure",
      "type": "function"
    },
    {
      "inputs": [
        {
          "internalType": "uint256",
          "name": "slot",
          "type": "uint256"
        },
        {
          "internalType": "uint256",
          "name": "value",
          "type": "uint256"
        }
      ],
      "name": "Sstore",
      "outputs": [],
      "stateMutability": "nonpayable",
      "type": "function"
    },
    {
      "inputs": [],
      "name": "Stop",
      "outputs": [],
      "stateMutability": "pure",
      "type": "function"
    },
    {
      "inputs": [
        {
          "internalType": "uint256",
          "name": "a",
          "type": "uint256"
        },
        {
          "internalType": "uint256",
          "name": "b",
          "type": "uint256"
        }
      ],
      "name": "Sub",
      "outputs": [
        {
          "internalType": "uint256",
          "name": "",
          "type": "uint256"
        }
      ],
      "stateMutability": "pure",
      "type": "function"
    }
  ],
  "bytecode": {
    "object": "0x608060405234801561001057600080fd5b5061103d806100206000396000f3fe608060405234801561001057600080fd5b50600436106101e55760003560e01c806390d2a2401161010f578063c30f89a0116100a2578063d9c672fe11610071578063d9c672fe1461064e578063e10fde0e1461067e578063e6d16624146106ae578063ff392c10146106de576101e5565b8063c30f89a0146105b4578063c9efdfeb146105e4578063cdae38cd14610602578063d65764f41461061e576101e5565b8063a3c74c4b116100de578063a3c74c4b1461052e578063a55c0d601461055e578063b98f404e1461058e578063bedf0f4a146105aa576101e5565b806390d2a2401461046e5780639565b8a71461049e5780639a03fe1d146104ce5780639c51d6e1146104fe576101e5565b80634f6bfe9d1161018757806366775dc91161015657806366775dc9146103d45780637350597a146104045780637afbe4f11461042257806387a77dc214610452576101e5565b80634f6bfe9d1461032657806358d82d9614610356578063609537441461037457806363468949146103a4576101e5565b80633056b9cd116101c35780633056b9cd1461027a5780633993a320146102aa57806339ac1267146102da57806349fa02561461030a576101e5565b8063015b40fa146101ea57806314b784b11461021a5780631ec9c2c01461024a575b600080fd5b61020460048036038101906101ff9190610b26565b61070e565b6040516102119190610b88565b60405180910390f35b610234600480360381019061022f9190610bd9565b610727565b6040516102419190610c15565b60405180910390f35b610264600480360381019061025f9190610c30565b610739565b6040516102719190610c15565b60405180910390f35b610294600480360381019061028f9190610c30565b61074d565b6040516102a19190610c15565b60405180910390f35b6102c460048036038101906102bf9190610c70565b610761565b6040516102d19190610b88565b60405180910390f35b6102f460048036038101906102ef9190610bd9565b610778565b6040516103019190610b88565b60405180910390f35b610324600480360381019061031f9190610d2a565b610788565b005b610340600480360381019061033b9190610d6a565b6107d0565b60405161034d9190610c15565b60405180910390f35b61035e610819565b60405161036b9190610c15565b60405180910390f35b61038e60048036038101906103899190610c30565b610827565b60405161039b9190610c15565b60405180910390f35b6103be60048036038101906103b99190610dcd565b61083b565b6040516103cb9190610e1c565b60405180910390f35b6103ee60048036038101906103e99190610d6a565b61084f565b6040516103fb9190610c15565b60405180910390f35b61040c610892565b6040516104199190610e46565b60405180910390f35b61043c60048036038101906104379190610c30565b61089f565b6040516104499190610c15565b60405180910390f35b61046c60048036038101906104679190610bd9565b6108b3565b005b61048860048036038101906104839190610dcd565b6108bd565b6040516104959190610e7c565b60405180910390f35b6104b860048036038101906104b39190610c30565b6108d1565b6040516104c59190610c15565b60405180910390f35b6104e860048036038101906104e39190610c30565b6108e5565b6040516104f59190610c15565b60405180910390f35b61051860048036038101906105139190610b26565b6108f9565b6040516105259190610c15565b60405180910390f35b61054860048036038101906105439190610c30565b61090b565b6040516105559190610e7c565b60405180910390f35b61057860048036038101906105739190610c30565b61091f565b6040516105859190610c15565b60405180910390f35b6105a860048036038101906105a39190610c30565b610933565b005b6105b261093a565b005b6105ce60048036038101906105c99190610c30565b61093c565b6040516105db9190610c15565b60405180910390f35b6105ec610950565b6040516105f99190610c15565b60405180910390f35b61061c60048036038101906106179190610ec3565b610959565b005b61063860048036038101906106339190610c30565b610965565b6040516106459190610e7c565b60405180910390f35b61066860048036038101906106639190610dcd565b610979565b6040516106759190610e1c565b60405180910390f35b61069860048036038101906106939190610c70565b61098d565b6040516106a59190610b88565b60405180910390f35b6106c860048036038101906106c39190610f32565b6109a6565b6040516106d59190610e1c565b60405180910390f35b6106f860048036038101906106f39190610bd9565b6109ba565b6040516107059190610c15565b60405180910390f35b6000806020830183518120809250505080915050919050565b60008082548091505080915050919050565b600080828403809150508091505092915050565b60008082840a809150508091505092915050565b600080828401805180925050508091505092915050565b6000808235905080915050919050565b80600160008473ffffffffffffffffffffffffffffffffffffffff1673ffffffffffffffffffffffffffffffffffffffff168152602001908152602001600020819055505050565b6000600160008373ffffffffffffffffffffffffffffffffffffffff1673ffffffffffffffffffffffffffffffffffffffff168152602001908152602001600020549050919050565b600080600190508091505090565b600080828402809150508091505092915050565b600080828407809150508091505092915050565b600080826001604051602001610866929190610fdb565b6040516020818303038152906040528051906020012060001c905061088a81610727565b915050919050565b6000803390508091505090565b600080828401809150508091505092915050565b8060008190555050565b600080828412809150508091505092915050565b600080828406809150508091505092915050565b600080828404809150508091505092915050565b60008082518091505080915050919050565b600080828414809150508091505092915050565b60008082841a809150508091505092915050565b8082555050565b005b60008082841c809150508091505092915050565b60008054905090565b81830181815250505050565b600080828410809150508091505092915050565b600080828405809150508091505092915050565b6000806020840183812080925050508091505092915050565b60008082841d809150508091505092915050565b60008082198091505080915050919050565b6000604051905090565b600080fd5b600080fd5b600080fd5b600080fd5b6000601f19601f8301169050919050565b7f4e487b7100000000000000000000000000000000000000000000000000000000600052604160045260246000fd5b610a33826109ea565b810181811067ffffffffffffffff82111715610a5257610a516109fb565b5b80604052505050565b6000610a656109cc565b9050610a718282610a2a565b919050565b600067ffffffffffffffff821115610a9157610a906109fb565b5b610a9a826109ea565b9050602081019050919050565b82818337600083830152505050565b6000610ac9610ac484610a76565b610a5b565b905082815260208101848484011115610ae557610ae46109e5565b5b610af0848285610aa7565b509392505050565b600082601f830112610b0d57610b0c6109e0565b5b8135610b1d848260208601610ab6565b91505092915050565b600060208284031215610b3c57610b3b6109d6565b5b600082013567ffffffffffffffff811115610b5a57610b596109db565b5b610b6684828501610af8565b91505092915050565b6000819050919050565b610b8281610b6f565b82525050565b6000602082019050610b9d6000830184610b79565b92915050565b6000819050919050565b610bb681610ba3565b8114610bc157600080fd5b50565b600081359050610bd381610bad565b92915050565b600060208284031215610bef57610bee6109d6565b5b6000610bfd84828501610bc4565b91505092915050565b610c0f81610ba3565b82525050565b6000602082019050610c2a6000830184610c06565b92915050565b60008060408385031215610c4757610c466109d6565b5b6000610c5585828601610bc4565b9250506020610c6685828601610bc4565b9150509250929050565b60008060408385031215610c8757610c866109d6565b5b600083013567ffffffffffffffff811115610ca557610ca46109db565b5b610cb185828601610af8565b9250506020610cc285828601610bc4565b9150509250929050565b600073ffffffffffffffffffffffffffffffffffffffff82169050919050565b6000610cf782610ccc565b9050919050565b610d0781610cec565b8114610d1257600080fd5b50565b600081359050610d2481610cfe565b92915050565b60008060408385031215610d4157610d406109d6565b5b6000610d4f85828601610d15565b9250506020610d6085828601610bc4565b9150509250929050565b600060208284031215610d8057610d7f6109d6565b5b6000610d8e84828501610d15565b91505092915050565b6000819050919050565b610daa81610d97565b8114610db557600080fd5b50565b600081359050610dc781610da1565b92915050565b60008060408385031215610de457610de36109d6565b5b6000610df285828601610db8565b9250506020610e0385828601610db8565b9150509250929050565b610e1681610d97565b82525050565b6000602082019050610e316000830184610e0d565b92915050565b610e4081610cec565b82525050565b6000602082019050610e5b6000830184610e37565b92915050565b60008115159050919050565b610e7681610e61565b82525050565b6000602082019050610e916000830184610e6d565b92915050565b610ea081610b6f565b8114610eab57600080fd5b50565b600081359050610ebd81610e97565b92915050565b600080600060608486031215610edc57610edb6109d6565b5b600084013567ffffffffffffffff811115610efa57610ef96109db565b5b610f0686828701610af8565b9350506020610f1786828701610bc4565b9250506040610f2886828701610eae565b9150509250925092565b60008060408385031215610f4957610f486109d6565b5b6000610f5785828601610bc4565b9250506020610f6885828601610db8565b9150509250929050565b60008160601b9050919050565b6000610f8a82610f72565b9050919050565b6000610f9c82610f7f565b9050919050565b610fb4610faf82610cec565b610f91565b82525050565b6000819050919050565b610fd5610fd082610ba3565b610fba565b82525050565b6000610fe78285610fa3565b601482019150610ff78284610fc4565b602082019150819050939250505056fea26469706673582212204296c9b71948dd343a61464fa42dde30807fa167b55cb244fd58575363d7f45c64736f6c63430008150033",
    "linkReferences": {}
  },
  "methodIdentifiers": {
    "Add(uint256,uint256)": "7afbe4f1",
    "Byte(uint256,uint256)": "a55c0d60",
    "Calldataload(uint256)": "39ac1267",
    "Caller()": "7350597a",
    "Div(uint256,uint256)": "9a03fe1d",
    "Eq(uint256,uint256)": "a3c74c4b",
    "Exp(uint256,uint256)": "3056b9cd",
    "GetMap1Slot()": "58d82d96",
    "GetMap1Value(address)": "4f6bfe9d",
    "GetMap1Value2(address)": "66775dc9",
    "GetV0()": "c9efdfeb",
    "Keccak256(bytes,uint256)": "e10fde0e",
    "Keccak256_2(bytes)": "015b40fa",
    "Lt(uint256,uint256)": "d65764f4",
    "Mload(bytes,uint256)": "3993a320",
    "Mload_GetLength(bytes)": "9c51d6e1",
    "Mod(uint256,uint256)": "9565b8a7",
    "Mstore(bytes,uint256,bytes32)": "cdae38cd",
    "Mul(uint256,uint256)": "60953744",
    "Not(uint256)": "ff392c10",
    "Sar(uint256,int256)": "e6d16624",
    "Sdiv(int256,int256)": "d9c672fe",
    "SetMap1Value(address,uint256)": "49fa0256",
    "SetV0(uint256)": "87a77dc2",
    "Shr(uint256,uint256)": "c30f89a0",
    "Sload(uint256)": "14b784b1",
    "Slt(int256,int256)": "90d2a240",
    "Smod(int256,int256)": "63468949",
    "Sstore(uint256,uint256)": "b98f404e",
    "Stop()": "bedf0f4a",
    "Sub(uint256,uint256)": "1ec9c2c0"
  },
  "id": 17
}