{"abi":[{"type":"function","name":"Add","inputs":[{"name":"a","type":"uint256","internalType":"uint256"},{"name":"b","type":"uint256","internalType":"uint256"}],"outputs":[{"name":"","type":"uint256","internalType":"uint256"}],"stateMutability":"pure"},{"type":"function","name":"Byte","inputs":[{"name":"a","type":"uint256","internalType":"uint256"},{"name":"b","type":"uint256","internalType":"uint256"}],"outputs":[{"name":"","type":"uint256","internalType":"uint256"}],"stateMutability":"pure"},{"type":"function","name":"CallData","inputs":[{"name":"addr","type":"address","internalType":"address"},{"name":"data","type":"bytes","internalType":"bytes"}],"outputs":[{"name":"","type":"bytes","internalType":"bytes"}],"stateMutability":"nonpayable"},{"type":"function","name":"Calldataload","inputs":[{"name":"p","type":"uint256","internalType":"uint256"}],"outputs":[{"name":"","type":"bytes32","internalType":"bytes32"}],"stateMutability":"pure"},{"type":"function","name":"Caller","inputs":[],"outputs":[{"name":"","type":"address","internalType":"address"}],"stateMutability":"view"},{"type":"function","name":"CodeSize","inputs":[],"outputs":[{"name":"","type":"uint256","internalType":"uint256"},{"name":"","type":"uint256","internalType":"uint256"}],"stateMutability":"nonpayable"},{"type":"function","name":"Div","inputs":[{"name":"a","type":"uint256","internalType":"uint256"},{"name":"b","type":"uint256","internalType":"uint256"}],"outputs":[{"name":"","type":"uint256","internalType":"uint256"}],"stateMutability":"pure"},{"type":"function","name":"Eq","inputs":[{"name":"a","type":"uint256","internalType":"uint256"},{"name":"b","type":"uint256","internalType":"uint256"}],"outputs":[{"name":"","type":"bool","internalType":"bool"}],"stateMutability":"pure"},{"type":"function","name":"Exp","inputs":[{"name":"a","type":"uint256","internalType":"uint256"},{"name":"b","type":"uint256","internalType":"uint256"}],"outputs":[{"name":"","type":"uint256","internalType":"uint256"}],"stateMutability":"pure"},{"type":"function","name":"ExtCodeSize","inputs":[],"outputs":[{"name":"","type":"uint256","internalType":"uint256"},{"name":"","type":"uint256","internalType":"uint256"}],"stateMutability":"nonpayable"},{"type":"function","name":"GetMap1Slot","inputs":[],"outputs":[{"name":"","type":"uint256","internalType":"uint256"}],"stateMutability":"pure"},{"type":"function","name":"GetMap1Value","inputs":[{"name":"key","type":"address","internalType":"address"}],"outputs":[{"name":"","type":"uint256","internalType":"uint256"}],"stateMutability":"view"},{"type":"function","name":"GetMap1Value2","inputs":[{"name":"key","type":"address","internalType":"address"}],"outputs":[{"name":"","type":"uint256","internalType":"uint256"}],"stateMutability":"view"},{"type":"function","name":"GetV0","inputs":[],"outputs":[{"name":"","type":"uint256","internalType":"uint256"}],"stateMutability":"view"},{"type":"function","name":"Keccak256","inputs":[{"name":"a","type":"bytes","internalType":"bytes"},{"name":"length","type":"uint256","internalType":"uint256"}],"outputs":[{"name":"","type":"bytes32","internalType":"bytes32"}],"stateMutability":"pure"},{"type":"function","name":"Keccak256_2","inputs":[{"name":"a","type":"bytes","internalType":"bytes"}],"outputs":[{"name":"","type":"bytes32","internalType":"bytes32"}],"stateMutability":"pure"},{"type":"function","name":"Lt","inputs":[{"name":"a","type":"uint256","internalType":"uint256"},{"name":"b","type":"uint256","internalType":"uint256"}],"outputs":[{"name":"","type":"bool","internalType":"bool"}],"stateMutability":"pure"},{"type":"function","name":"Mload","inputs":[{"name":"a","type":"bytes","internalType":"bytes"},{"name":"offset","type":"uint256","internalType":"uint256"}],"outputs":[{"name":"","type":"bytes32","internalType":"bytes32"}],"stateMutability":"pure"},{"type":"function","name":"Mload_GetLength","inputs":[{"name":"a","type":"bytes","internalType":"bytes"}],"outputs":[{"name":"","type":"uint256","internalType":"uint256"}],"stateMutability":"pure"},{"type":"function","name":"Mod","inputs":[{"name":"a","type":"uint256","internalType":"uint256"},{"name":"b","type":"uint256","internalType":"uint256"}],"outputs":[{"name":"","type":"uint256","internalType":"uint256"}],"stateMutability":"pure"},{"type":"function","name":"Mstore","inputs":[{"name":"a","type":"bytes","internalType":"bytes"},{"name":"offset","type":"uint256","internalType":"uint256"},{"name":"value","type":"bytes32","internalType":"bytes32"}],"outputs":[],"stateMutability":"pure"},{"type":"function","name":"Mul","inputs":[{"name":"a","type":"uint256","internalType":"uint256"},{"name":"b","type":"uint256","internalType":"uint256"}],"outputs":[{"name":"","type":"uint256","internalType":"uint256"}],"stateMutability":"pure"},{"type":"function","name":"Not","inputs":[{"name":"a","type":"uint256","internalType":"uint256"}],"outputs":[{"name":"","type":"uint256","internalType":"uint256"}],"stateMutability":"pure"},{"type":"function","name":"Sar","inputs":[{"name":"a","type":"uint256","internalType":"uint256"},{"name":"b","type":"int256","internalType":"int256"}],"outputs":[{"name":"","type":"int256","internalType":"int256"}],"stateMutability":"pure"},{"type":"function","name":"Sdiv","inputs":[{"name":"a","type":"int256","internalType":"int256"},{"name":"b","type":"int256","internalType":"int256"}],"outputs":[{"name":"","type":"int256","internalType":"int256"}],"stateMutability":"pure"},{"type":"function","name":"SetMap1Value","inputs":[{"name":"key","type":"address","internalType":"address"},{"name":"value","type":"uint256","internalType":"uint256"}],"outputs":[],"stateMutability":"nonpayable"},{"type":"function","name":"SetV0","inputs":[{"name":"value","type":"uint256","internalType":"uint256"}],"outputs":[],"stateMutability":"nonpayable"},{"type":"function","name":"Shr","inputs":[{"name":"a","type":"uint256","internalType":"uint256"},{"name":"b","type":"uint256","internalType":"uint256"}],"outputs":[{"name":"","type":"uint256","internalType":"uint256"}],"stateMutability":"pure"},{"type":"function","name":"Sload","inputs":[{"name":"slot","type":"uint256","internalType":"uint256"}],"outputs":[{"name":"","type":"uint256","internalType":"uint256"}],"stateMutability":"view"},{"type":"function","name":"Slt","inputs":[{"name":"a","type":"int256","internalType":"int256"},{"name":"b","type":"int256","internalType":"int256"}],"outputs":[{"name":"","type":"bool","internalType":"bool"}],"stateMutability":"pure"},{"type":"function","name":"Smod","inputs":[{"name":"a","type":"int256","internalType":"int256"},{"name":"b","type":"int256","internalType":"int256"}],"outputs":[{"name":"","type":"int256","internalType":"int256"}],"stateMutability":"pure"},{"type":"function","name":"Sstore","inputs":[{"name":"slot","type":"uint256","internalType":"uint256"},{"name":"value","type":"uint256","internalType":"uint256"}],"outputs":[],"stateMutability":"nonpayable"},{"type":"function","name":"Stop","inputs":[],"outputs":[],"stateMutability":"pure"},{"type":"function","name":"Sub","inputs":[{"name":"a","type":"uint256","internalType":"uint256"},{"name":"b","type":"uint256","internalType":"uint256"}],"outputs":[{"name":"","type":"uint256","internalType":"uint256"}],"stateMutability":"pure"}],"bytecode":{"object":"0x608060405234801561001057600080fd5b5061189f806100206000396000f3fe608060405234801561001057600080fd5b50600436106102065760003560e01c806387a77dc21161011a578063bedf0f4a116100ad578063d65764f41161007c578063d65764f4146106ad578063d9c672fe146106dd578063e10fde0e1461070d578063e6d166241461073d578063ff392c101461076d57610206565b8063bedf0f4a14610639578063c30f89a014610643578063c9efdfeb14610673578063cdae38cd1461069157610206565b80639c51d6e1116100e95780639c51d6e11461058d578063a3c74c4b146105bd578063a55c0d60146105ed578063b98f404e1461061d57610206565b806387a77dc2146104e157806390d2a240146104fd5780639565b8a71461052d5780639a03fe1d1461055d57610206565b80634a7807691161019d578063634689491161016c578063634689491461041457806366775dc9146104445780637350597a146104745780637afbe4f1146104925780637b37a6c1146104c257610206565b80634a780769146103665780634f6bfe9d1461039657806358d82d96146103c657806360953744146103e457610206565b80633056b9cd116101d95780633056b9cd146102ba5780633993a320146102ea57806339ac12671461031a57806349fa02561461034a57610206565b8063015b40fa1461020b57806309fcc0191461023b57806314b784b11461025a5780631ec9c2c01461028a575b600080fd5b61022560048036038101906102209190610ef0565b61079d565b6040516102329190610f52565b60405180910390f35b6102436107b6565b604051610251929190610f86565b60405180910390f35b610274600480360381019061026f9190610fdb565b6108d8565b6040516102819190611008565b60405180910390f35b6102a4600480360381019061029f9190611023565b6108ea565b6040516102b19190611008565b60405180910390f35b6102d460048036038101906102cf9190611023565b6108fe565b6040516102e19190611008565b60405180910390f35b61030460048036038101906102ff9190611063565b610912565b6040516103119190610f52565b60405180910390f35b610334600480360381019061032f9190610fdb565b610929565b6040516103419190610f52565b60405180910390f35b610364600480360381019061035f919061111d565b610939565b005b610380600480360381019061037b919061115d565b610981565b60405161038d9190611238565b60405180910390f35b6103b060048036038101906103ab919061125a565b610a5e565b6040516103bd9190611008565b60405180910390f35b6103ce610aa7565b6040516103db9190611008565b60405180910390f35b6103fe60048036038101906103f99190611023565b610ab5565b60405161040b9190611008565b60405180910390f35b61042e600480360381019061042991906112bd565b610ac9565b60405161043b919061130c565b60405180910390f35b61045e6004803603810190610459919061125a565b610add565b60405161046b9190611008565b60405180910390f35b61047c610b20565b6040516104899190611336565b60405180910390f35b6104ac60048036038101906104a79190611023565b610b2d565b6040516104b99190611008565b60405180910390f35b6104ca610b41565b6040516104d8929190610f86565b60405180910390f35b6104fb60048036038101906104f69190610fdb565b610c63565b005b610517600480360381019061051291906112bd565b610c6d565b604051610524919061136c565b60405180910390f35b61054760048036038101906105429190611023565b610c81565b6040516105549190611008565b60405180910390f35b61057760048036038101906105729190611023565b610c95565b6040516105849190611008565b60405180910390f35b6105a760048036038101906105a29190610ef0565b610ca9565b6040516105b49190611008565b60405180910390f35b6105d760048036038101906105d29190611023565b610cbb565b6040516105e4919061136c565b60405180910390f35b61060760048036038101906106029190611023565b610ccf565b6040516106149190611008565b60405180910390f35b61063760048036038101906106329190611023565b610ce3565b005b610641610cea565b005b61065d60048036038101906106589190611023565b610cec565b60405161066a9190611008565b60405180910390f35b61067b610d00565b6040516106889190611008565b60405180910390f35b6106ab60048036038101906106a691906113b3565b610d09565b005b6106c760048036038101906106c29190611023565b610d15565b6040516106d4919061136c565b60405180910390f35b6106f760048036038101906106f291906112bd565b610d29565b604051610704919061130c565b60405180910390f35b61072760048036038101906107229190611063565b610d3d565b6040516107349190610f52565b60405180910390f35b61075760048036038101906107529190611422565b610d56565b604051610764919061130c565b60405180910390f35b61078760048036038101906107829190610fdb565b610d6a565b6040516107949190611008565b60405180910390f35b6000806020830183518120809250505080915050919050565b60008060008060006040516107ca90610d7c565b604051809103906000f0801580156107e6573d6000803e3d6000fd5b5090508073ffffffffffffffffffffffffffffffffffffffff166346e4f9656040518163ffffffff1660e01b8152600401602060405180830381865afa158015610834573d6000803e3d6000fd5b505050506040513d601f19601f820116820180604052508101906108589190611477565b92508073ffffffffffffffffffffffffffffffffffffffff16636319eee06040518163ffffffff1660e01b8152600401602060405180830381865afa1580156108a5573d6000803e3d6000fd5b505050506040513d601f19601f820116820180604052508101906108c99190611477565b91508282945094505050509091565b60008082548091505080915050919050565b600080828403809150508091505092915050565b60008082840a809150508091505092915050565b600080828401805180925050508091505092915050565b6000808235905080915050919050565b80600160008473ffffffffffffffffffffffffffffffffffffffff1673ffffffffffffffffffffffffffffffffffffffff168152602001908152602001600020819055505050565b60608060008473ffffffffffffffffffffffffffffffffffffffff16846040516109ab91906114e0565b6000604051808303816000865af19150503d80600081146109e8576040519150601f19603f3d011682016040523d82523d6000602084013e6109ed565b606091505b5050905080610a31576040517f08c379a0000000000000000000000000000000000000000000000000000000008152600401610a2890611554565b60405180910390fd5b3d6040519250601f19601f6020830101168301604052808352806000602085013e50819250505092915050565b6000600160008373ffffffffffffffffffffffffffffffffffffffff1673ffffffffffffffffffffffffffffffffffffffff168152602001908152602001600020549050919050565b600080600190508091505090565b600080828402809150508091505092915050565b600080828407809150508091505092915050565b600080826001604051602001610af49291906115dd565b6040516020818303038152906040528051906020012060001c9050610b18816108d8565b915050919050565b6000803390508091505090565b600080828401809150508091505092915050565b6000806000806000604051610b5590610d89565b604051809103906000f080158015610b71573d6000803e3d6000fd5b5090508073ffffffffffffffffffffffffffffffffffffffff1663c930b95d6040518163ffffffff1660e01b8152600401602060405180830381865afa158015610bbf573d6000803e3d6000fd5b505050506040513d601f19601f82011682018060405250810190610be39190611477565b92508073ffffffffffffffffffffffffffffffffffffffff1663ce81828f6040518163ffffffff1660e01b8152600401602060405180830381865afa158015610c30573d6000803e3d6000fd5b505050506040513d601f19601f82011682018060405250810190610c549190611477565b91508282945094505050509091565b8060008190555050565b600080828412809150508091505092915050565b600080828406809150508091505092915050565b600080828404809150508091505092915050565b60008082518091505080915050919050565b600080828414809150508091505092915050565b60008082841a809150508091505092915050565b8082555050565b005b60008082841c809150508091505092915050565b60008054905090565b81830181815250505050565b600080828410809150508091505092915050565b600080828405809150508091505092915050565b6000806020840183812080925050508091505092915050565b60008082841d809150508091505092915050565b60008082198091505080915050919050565b6101298061160a83390190565b6101378061173383390190565b6000604051905090565b600080fd5b600080fd5b600080fd5b600080fd5b6000601f19601f8301169050919050565b7f4e487b7100000000000000000000000000000000000000000000000000000000600052604160045260246000fd5b610dfd82610db4565b810181811067ffffffffffffffff82111715610e1c57610e1b610dc5565b5b80604052505050565b6000610e2f610d96565b9050610e3b8282610df4565b919050565b600067ffffffffffffffff821115610e5b57610e5a610dc5565b5b610e6482610db4565b9050602081019050919050565b82818337600083830152505050565b6000610e93610e8e84610e40565b610e25565b905082815260208101848484011115610eaf57610eae610daf565b5b610eba848285610e71565b509392505050565b600082601f830112610ed757610ed6610daa565b5b8135610ee7848260208601610e80565b91505092915050565b600060208284031215610f0657610f05610da0565b5b600082013567ffffffffffffffff811115610f2457610f23610da5565b5b610f3084828501610ec2565b91505092915050565b6000819050919050565b610f4c81610f39565b82525050565b6000602082019050610f676000830184610f43565b92915050565b6000819050919050565b610f8081610f6d565b82525050565b6000604082019050610f9b6000830185610f77565b610fa86020830184610f77565b9392505050565b610fb881610f6d565b8114610fc357600080fd5b50565b600081359050610fd581610faf565b92915050565b600060208284031215610ff157610ff0610da0565b5b6000610fff84828501610fc6565b91505092915050565b600060208201905061101d6000830184610f77565b92915050565b6000806040838503121561103a57611039610da0565b5b600061104885828601610fc6565b925050602061105985828601610fc6565b9150509250929050565b6000806040838503121561107a57611079610da0565b5b600083013567ffffffffffffffff81111561109857611097610da5565b5b6110a485828601610ec2565b92505060206110b585828601610fc6565b9150509250929050565b600073ffffffffffffffffffffffffffffffffffffffff82169050919050565b60006110ea826110bf565b9050919050565b6110fa816110df565b811461110557600080fd5b50565b600081359050611117816110f1565b92915050565b6000806040838503121561113457611133610da0565b5b600061114285828601611108565b925050602061115385828601610fc6565b9150509250929050565b6000806040838503121561117457611173610da0565b5b600061118285828601611108565b925050602083013567ffffffffffffffff8111156111a3576111a2610da5565b5b6111af85828601610ec2565b9150509250929050565b600081519050919050565b600082825260208201905092915050565b60005b838110156111f35780820151818401526020810190506111d8565b60008484015250505050565b600061120a826111b9565b61121481856111c4565b93506112248185602086016111d5565b61122d81610db4565b840191505092915050565b6000602082019050818103600083015261125281846111ff565b905092915050565b6000602082840312156112705761126f610da0565b5b600061127e84828501611108565b91505092915050565b6000819050919050565b61129a81611287565b81146112a557600080fd5b50565b6000813590506112b781611291565b92915050565b600080604083850312156112d4576112d3610da0565b5b60006112e2858286016112a8565b92505060206112f3858286016112a8565b9150509250929050565b61130681611287565b82525050565b600060208201905061132160008301846112fd565b92915050565b611330816110df565b82525050565b600060208201905061134b6000830184611327565b92915050565b60008115159050919050565b61136681611351565b82525050565b6000602082019050611381600083018461135d565b92915050565b61139081610f39565b811461139b57600080fd5b50565b6000813590506113ad81611387565b92915050565b6000806000606084860312156113cc576113cb610da0565b5b600084013567ffffffffffffffff8111156113ea576113e9610da5565b5b6113f686828701610ec2565b935050602061140786828701610fc6565b92505060406114188682870161139e565b9150509250925092565b6000806040838503121561143957611438610da0565b5b600061144785828601610fc6565b9250506020611458858286016112a8565b9150509250929050565b60008151905061147181610faf565b92915050565b60006020828403121561148d5761148c610da0565b5b600061149b84828501611462565b91505092915050565b600081905092915050565b60006114ba826111b9565b6114c481856114a4565b93506114d48185602086016111d5565b80840191505092915050565b60006114ec82846114af565b915081905092915050565b600082825260208201905092915050565b7f63616c6c206661696c6564000000000000000000000000000000000000000000600082015250565b600061153e600b836114f7565b915061154982611508565b602082019050919050565b6000602082019050818103600083015261156d81611531565b9050919050565b60008160601b9050919050565b600061158c82611574565b9050919050565b600061159e82611581565b9050919050565b6115b66115b1826110df565b611593565b82525050565b6000819050919050565b6115d76115d282610f6d565b6115bc565b82525050565b60006115e982856115a5565b6014820191506115f982846115c6565b602082019150819050939250505056fe608060405234801561001057600080fd5b5061001f61002a60201b60201c565b600081905550610037565b6000803890508091505090565b60e4806100456000396000f3fe6080604052348015600f57600080fd5b506004361060325760003560e01c806346e4f9651460375780636319eee0146051575b600080fd5b603d606b565b604051604891906095565b60405180910390f35b60576071565b604051606291906095565b60405180910390f35b60005481565b6000803890508091505090565b6000819050919050565b608f81607e565b82525050565b600060208201905060a860008301846088565b9291505056fea26469706673582212208750f164cad910b1bf82d90ae9043c5a9224c888544efd6d09b7b7ece235945964736f6c63430008170033608060405234801561001057600080fd5b5061001f61002a60201b60201c565b60008190555061003e565b6000806000309050803b9150819250505090565b60eb8061004c6000396000f3fe6080604052348015600f57600080fd5b506004361060325760003560e01c8063c930b95d146037578063ce81828f146051575b600080fd5b603d606b565b60405160489190609c565b60405180910390f35b60576071565b60405160629190609c565b60405180910390f35b60005481565b6000806000309050803b9150819250505090565b6000819050919050565b6096816085565b82525050565b600060208201905060af6000830184608f565b9291505056fea264697066735822122051825a5e1abed978f5b49aa3fb0378340a59ea17f086f18d5100569b2ddc14bf64736f6c63430008170033a264697066735822122080ad29813a744ffddc6c279de77ef20358e467e37dc93e6267a489a1ad450bcb64736f6c63430008170033","linkReferences":{}},"methodIdentifiers":{"Add(uint256,uint256)":"7afbe4f1","Byte(uint256,uint256)":"a55c0d60","CallData(address,bytes)":"4a780769","Calldataload(uint256)":"39ac1267","Caller()":"7350597a","CodeSize()":"09fcc019","Div(uint256,uint256)":"9a03fe1d","Eq(uint256,uint256)":"a3c74c4b","Exp(uint256,uint256)":"3056b9cd","ExtCodeSize()":"7b37a6c1","GetMap1Slot()":"58d82d96","GetMap1Value(address)":"4f6bfe9d","GetMap1Value2(address)":"66775dc9","GetV0()":"c9efdfeb","Keccak256(bytes,uint256)":"e10fde0e","Keccak256_2(bytes)":"015b40fa","Lt(uint256,uint256)":"d65764f4","Mload(bytes,uint256)":"3993a320","Mload_GetLength(bytes)":"9c51d6e1","Mod(uint256,uint256)":"9565b8a7","Mstore(bytes,uint256,bytes32)":"cdae38cd","Mul(uint256,uint256)":"60953744","Not(uint256)":"ff392c10","Sar(uint256,int256)":"e6d16624","Sdiv(int256,int256)":"d9c672fe","SetMap1Value(address,uint256)":"49fa0256","SetV0(uint256)":"87a77dc2","Shr(uint256,uint256)":"c30f89a0","Sload(uint256)":"14b784b1","Slt(int256,int256)":"90d2a240","Smod(int256,int256)":"63468949","Sstore(uint256,uint256)":"b98f404e","Stop()":"bedf0f4a","Sub(uint256,uint256)":"1ec9c2c0"},"id":31}