{"abi":[{"type":"function","name":"Add","inputs":[{"name":"a","type":"uint256","internalType":"uint256"},{"name":"b","type":"uint256","internalType":"uint256"}],"outputs":[{"name":"","type":"uint256","internalType":"uint256"}],"stateMutability":"pure"},{"type":"function","name":"Byte","inputs":[{"name":"a","type":"uint256","internalType":"uint256"},{"name":"b","type":"uint256","internalType":"uint256"}],"outputs":[{"name":"","type":"uint256","internalType":"uint256"}],"stateMutability":"pure"},{"type":"function","name":"CallCode","inputs":[{"name":"addrOfSimpleContract","type":"address","internalType":"address"},{"name":"value","type":"uint256","internalType":"uint256"}],"outputs":[],"stateMutability":"nonpayable"},{"type":"function","name":"CallData","inputs":[{"name":"addr","type":"address","internalType":"address"},{"name":"data","type":"bytes","internalType":"bytes"}],"outputs":[{"name":"","type":"bytes","internalType":"bytes"}],"stateMutability":"nonpayable"},{"type":"function","name":"Calldataload","inputs":[{"name":"p","type":"uint256","internalType":"uint256"}],"outputs":[{"name":"","type":"bytes32","internalType":"bytes32"}],"stateMutability":"pure"},{"type":"function","name":"Caller","inputs":[],"outputs":[{"name":"","type":"address","internalType":"address"}],"stateMutability":"view"},{"type":"function","name":"CodeSize","inputs":[],"outputs":[{"name":"","type":"uint256","internalType":"uint256"},{"name":"","type":"uint256","internalType":"uint256"}],"stateMutability":"nonpayable"},{"type":"function","name":"Div","inputs":[{"name":"a","type":"uint256","internalType":"uint256"},{"name":"b","type":"uint256","internalType":"uint256"}],"outputs":[{"name":"","type":"uint256","internalType":"uint256"}],"stateMutability":"pure"},{"type":"function","name":"Eq","inputs":[{"name":"a","type":"uint256","internalType":"uint256"},{"name":"b","type":"uint256","internalType":"uint256"}],"outputs":[{"name":"","type":"bool","internalType":"bool"}],"stateMutability":"pure"},{"type":"function","name":"Exp","inputs":[{"name":"a","type":"uint256","internalType":"uint256"},{"name":"b","type":"uint256","internalType":"uint256"}],"outputs":[{"name":"","type":"uint256","internalType":"uint256"}],"stateMutability":"pure"},{"type":"function","name":"ExtCodeSize","inputs":[],"outputs":[{"name":"","type":"uint256","internalType":"uint256"},{"name":"","type":"uint256","internalType":"uint256"}],"stateMutability":"nonpayable"},{"type":"function","name":"GetMap1Slot","inputs":[],"outputs":[{"name":"","type":"uint256","internalType":"uint256"}],"stateMutability":"pure"},{"type":"function","name":"GetMap1Value","inputs":[{"name":"key","type":"address","internalType":"address"}],"outputs":[{"name":"","type":"uint256","internalType":"uint256"}],"stateMutability":"view"},{"type":"function","name":"GetMap1Value2","inputs":[{"name":"key","type":"address","internalType":"address"}],"outputs":[{"name":"","type":"uint256","internalType":"uint256"}],"stateMutability":"view"},{"type":"function","name":"GetV0","inputs":[],"outputs":[{"name":"","type":"uint256","internalType":"uint256"}],"stateMutability":"view"},{"type":"function","name":"Keccak256","inputs":[{"name":"a","type":"bytes","internalType":"bytes"},{"name":"length","type":"uint256","internalType":"uint256"}],"outputs":[{"name":"","type":"bytes32","internalType":"bytes32"}],"stateMutability":"pure"},{"type":"function","name":"Keccak256_2","inputs":[{"name":"a","type":"bytes","internalType":"bytes"}],"outputs":[{"name":"","type":"bytes32","internalType":"bytes32"}],"stateMutability":"pure"},{"type":"function","name":"Lt","inputs":[{"name":"a","type":"uint256","internalType":"uint256"},{"name":"b","type":"uint256","internalType":"uint256"}],"outputs":[{"name":"","type":"bool","internalType":"bool"}],"stateMutability":"pure"},{"type":"function","name":"Mload","inputs":[{"name":"a","type":"bytes","internalType":"bytes"},{"name":"offset","type":"uint256","internalType":"uint256"}],"outputs":[{"name":"","type":"bytes32","internalType":"bytes32"}],"stateMutability":"pure"},{"type":"function","name":"Mload_GetLength","inputs":[{"name":"a","type":"bytes","internalType":"bytes"}],"outputs":[{"name":"","type":"uint256","internalType":"uint256"}],"stateMutability":"pure"},{"type":"function","name":"Mod","inputs":[{"name":"a","type":"uint256","internalType":"uint256"},{"name":"b","type":"uint256","internalType":"uint256"}],"outputs":[{"name":"","type":"uint256","internalType":"uint256"}],"stateMutability":"pure"},{"type":"function","name":"Mstore","inputs":[{"name":"a","type":"bytes","internalType":"bytes"},{"name":"offset","type":"uint256","internalType":"uint256"},{"name":"value","type":"bytes32","internalType":"bytes32"}],"outputs":[],"stateMutability":"pure"},{"type":"function","name":"Mul","inputs":[{"name":"a","type":"uint256","internalType":"uint256"},{"name":"b","type":"uint256","internalType":"uint256"}],"outputs":[{"name":"","type":"uint256","internalType":"uint256"}],"stateMutability":"pure"},{"type":"function","name":"Not","inputs":[{"name":"a","type":"uint256","internalType":"uint256"}],"outputs":[{"name":"","type":"uint256","internalType":"uint256"}],"stateMutability":"pure"},{"type":"function","name":"Return","inputs":[],"outputs":[{"name":"","type":"bytes","internalType":"bytes"}],"stateMutability":"pure"},{"type":"function","name":"Sar","inputs":[{"name":"a","type":"uint256","internalType":"uint256"},{"name":"b","type":"int256","internalType":"int256"}],"outputs":[{"name":"","type":"int256","internalType":"int256"}],"stateMutability":"pure"},{"type":"function","name":"Sdiv","inputs":[{"name":"a","type":"int256","internalType":"int256"},{"name":"b","type":"int256","internalType":"int256"}],"outputs":[{"name":"","type":"int256","internalType":"int256"}],"stateMutability":"pure"},{"type":"function","name":"SetMap1Value","inputs":[{"name":"key","type":"address","internalType":"address"},{"name":"value","type":"uint256","internalType":"uint256"}],"outputs":[],"stateMutability":"nonpayable"},{"type":"function","name":"SetV0","inputs":[{"name":"value","type":"uint256","internalType":"uint256"}],"outputs":[],"stateMutability":"nonpayable"},{"type":"function","name":"Shr","inputs":[{"name":"a","type":"uint256","internalType":"uint256"},{"name":"b","type":"uint256","internalType":"uint256"}],"outputs":[{"name":"","type":"uint256","internalType":"uint256"}],"stateMutability":"pure"},{"type":"function","name":"Sload","inputs":[{"name":"slot","type":"uint256","internalType":"uint256"}],"outputs":[{"name":"","type":"uint256","internalType":"uint256"}],"stateMutability":"view"},{"type":"function","name":"Slt","inputs":[{"name":"a","type":"int256","internalType":"int256"},{"name":"b","type":"int256","internalType":"int256"}],"outputs":[{"name":"","type":"bool","internalType":"bool"}],"stateMutability":"pure"},{"type":"function","name":"Smod","inputs":[{"name":"a","type":"int256","internalType":"int256"},{"name":"b","type":"int256","internalType":"int256"}],"outputs":[{"name":"","type":"int256","internalType":"int256"}],"stateMutability":"pure"},{"type":"function","name":"Sstore","inputs":[{"name":"slot","type":"uint256","internalType":"uint256"},{"name":"value","type":"uint256","internalType":"uint256"}],"outputs":[],"stateMutability":"nonpayable"},{"type":"function","name":"Stop","inputs":[],"outputs":[],"stateMutability":"pure"},{"type":"function","name":"Sub","inputs":[{"name":"a","type":"uint256","internalType":"uint256"},{"name":"b","type":"uint256","internalType":"uint256"}],"outputs":[{"name":"","type":"uint256","internalType":"uint256"}],"stateMutability":"pure"}],"bytecode":{"object":"0x608060405234801561001057600080fd5b50611a1d806100206000396000f3fe608060405234801561001057600080fd5b506004361061021c5760003560e01c806390d2a24011610125578063c30f89a0116100ad578063d65764f41161007c578063d65764f4146106fd578063d9c672fe1461072d578063e10fde0e1461075d578063e6d166241461078d578063ff392c10146107bd5761021c565b8063c30f89a014610675578063c9efdfeb146106a5578063cdae38cd146106c3578063ce19a103146106df5761021c565b8063a3c74c4b116100f4578063a3c74c4b146105d3578063a55c0d6014610603578063b4c5af3b14610633578063b98f404e1461064f578063bedf0f4a1461066b5761021c565b806390d2a240146105135780639565b8a7146105435780639a03fe1d146105735780639c51d6e1146105a35761021c565b80634f6bfe9d116101a857806366775dc91161017757806366775dc91461045a5780637350597a1461048a5780637afbe4f1146104a85780637b37a6c1146104d857806387a77dc2146104f75761021c565b80634f6bfe9d146103ac57806358d82d96146103dc57806360953744146103fa578063634689491461042a5761021c565b80633056b9cd116101ef5780633056b9cd146102d05780633993a3201461030057806339ac12671461033057806349fa0256146103605780634a7807691461037c5761021c565b8063015b40fa1461022157806309fcc0191461025157806314b784b1146102705780631ec9c2c0146102a0575b600080fd5b61023b60048036038101906102369190611002565b6107ed565b6040516102489190611064565b60405180910390f35b610259610806565b604051610267929190611098565b60405180910390f35b61028a600480360381019061028591906110ed565b610928565b604051610297919061111a565b60405180910390f35b6102ba60048036038101906102b59190611135565b61093a565b6040516102c7919061111a565b60405180910390f35b6102ea60048036038101906102e59190611135565b61094e565b6040516102f7919061111a565b60405180910390f35b61031a60048036038101906103159190611175565b610962565b6040516103279190611064565b60405180910390f35b61034a600480360381019061034591906110ed565b610979565b6040516103579190611064565b60405180910390f35b61037a6004803603810190610375919061122f565b610989565b005b6103966004803603810190610391919061126f565b6109d1565b6040516103a3919061134a565b60405180910390f35b6103c660048036038101906103c1919061136c565b610aae565b6040516103d3919061111a565b60405180910390f35b6103e4610af7565b6040516103f1919061111a565b60405180910390f35b610414600480360381019061040f9190611135565b610b05565b604051610421919061111a565b60405180910390f35b610444600480360381019061043f91906113cf565b610b19565b604051610451919061141e565b60405180910390f35b610474600480360381019061046f919061136c565b610b2d565b604051610481919061111a565b60405180910390f35b610492610b70565b60405161049f9190611448565b60405180910390f35b6104c260048036038101906104bd9190611135565b610b7d565b6040516104cf919061111a565b60405180910390f35b6104e0610b91565b6040516104ee929190611098565b60405180910390f35b610511600480360381019061050c91906110ed565b610cb3565b005b61052d600480360381019061052891906113cf565b610cbd565b60405161053a919061147e565b60405180910390f35b61055d60048036038101906105589190611135565b610cd1565b60405161056a919061111a565b60405180910390f35b61058d60048036038101906105889190611135565b610ce5565b60405161059a919061111a565b60405180910390f35b6105bd60048036038101906105b89190611002565b610cf9565b6040516105ca919061111a565b60405180910390f35b6105ed60048036038101906105e89190611135565b610d0b565b6040516105fa919061147e565b60405180910390f35b61061d60048036038101906106189190611135565b610d1f565b60405161062a919061111a565b60405180910390f35b61064d6004803603810190610648919061122f565b610d33565b005b61066960048036038101906106649190611135565b610dba565b005b610673610dc1565b005b61068f600480360381019061068a9190611135565b610dc3565b60405161069c919061111a565b60405180910390f35b6106ad610dd7565b6040516106ba919061111a565b60405180910390f35b6106dd60048036038101906106d891906114c5565b610de0565b005b6106e7610dec565b6040516106f4919061134a565b60405180910390f35b61071760048036038101906107129190611135565b610e27565b604051610724919061147e565b60405180910390f35b610747600480360381019061074291906113cf565b610e3b565b604051610754919061141e565b60405180910390f35b61077760048036038101906107729190611175565b610e4f565b6040516107849190611064565b60405180910390f35b6107a760048036038101906107a29190611534565b610e68565b6040516107b4919061141e565b60405180910390f35b6107d760048036038101906107d291906110ed565b610e7c565b6040516107e4919061111a565b60405180910390f35b6000806020830183518120809250505080915050919050565b600080600080600060405161081a90610e8e565b604051809103906000f080158015610836573d6000803e3d6000fd5b5090508073ffffffffffffffffffffffffffffffffffffffff166346e4f9656040518163ffffffff1660e01b8152600401602060405180830381865afa158015610884573d6000803e3d6000fd5b505050506040513d601f19601f820116820180604052508101906108a89190611589565b92508073ffffffffffffffffffffffffffffffffffffffff16636319eee06040518163ffffffff1660e01b8152600401602060405180830381865afa1580156108f5573d6000803e3d6000fd5b505050506040513d601f19601f820116820180604052508101906109199190611589565b91508282945094505050509091565b60008082548091505080915050919050565b600080828403809150508091505092915050565b60008082840a809150508091505092915050565b600080828401805180925050508091505092915050565b6000808235905080915050919050565b80600160008473ffffffffffffffffffffffffffffffffffffffff1673ffffffffffffffffffffffffffffffffffffffff168152602001908152602001600020819055505050565b60608060008473ffffffffffffffffffffffffffffffffffffffff16846040516109fb91906115f2565b6000604051808303816000865af19150503d8060008114610a38576040519150601f19603f3d011682016040523d82523d6000602084013e610a3d565b606091505b5050905080610a81576040517f08c379a0000000000000000000000000000000000000000000000000000000008152600401610a7890611666565b60405180910390fd5b3d6040519250601f19601f6020830101168301604052808352806000602085013e50819250505092915050565b6000600160008373ffffffffffffffffffffffffffffffffffffffff1673ffffffffffffffffffffffffffffffffffffffff168152602001908152602001600020549050919050565b600080600190508091505090565b600080828402809150508091505092915050565b600080828407809150508091505092915050565b600080826001604051602001610b449291906116ef565b6040516020818303038152906040528051906020012060001c9050610b6881610928565b915050919050565b6000803390508091505090565b600080828401809150508091505092915050565b6000806000806000604051610ba590610e9b565b604051809103906000f080158015610bc1573d6000803e3d6000fd5b5090508073ffffffffffffffffffffffffffffffffffffffff1663c930b95d6040518163ffffffff1660e01b8152600401602060405180830381865afa158015610c0f573d6000803e3d6000fd5b505050506040513d601f19601f82011682018060405250810190610c339190611589565b92508073ffffffffffffffffffffffffffffffffffffffff1663ce81828f6040518163ffffffff1660e01b8152600401602060405180830381865afa158015610c80573d6000803e3d6000fd5b505050506040513d601f19601f82011682018060405250810190610ca49190611589565b91508282945094505050509091565b8060008190555050565b600080828412809150508091505092915050565b600080828406809150508091505092915050565b600080828404809150508091505092915050565b60008082518091505080915050919050565b600080828414809150508091505092915050565b60008082841a809150508091505092915050565b60007f5524107728b6898cfcb4f9c8c4692293f130d6580f855e9f0718b1fa98cbecbd905060006040518281528360048201526000816024836000895af291505080610db4576040517f08c379a0000000000000000000000000000000000000000000000000000000008152600401610dab90611767565b60405180910390fd5b50505050565b8082555050565b005b60008082841c809150508091505092915050565b60008054905090565b81830181815250505050565b6060604051600581527f68656c6c6f000000000000000000000000000000000000000000000000000000602082015260258101604052602581f35b600080828410809150508091505092915050565b600080828405809150508091505092915050565b6000806020840183812080925050508091505092915050565b60008082841d809150508091505092915050565b60008082198091505080915050919050565b6101298061178883390190565b610137806118b183390190565b6000604051905090565b600080fd5b600080fd5b600080fd5b600080fd5b6000601f19601f8301169050919050565b7f4e487b7100000000000000000000000000000000000000000000000000000000600052604160045260246000fd5b610f0f82610ec6565b810181811067ffffffffffffffff82111715610f2e57610f2d610ed7565b5b80604052505050565b6000610f41610ea8565b9050610f4d8282610f06565b919050565b600067ffffffffffffffff821115610f6d57610f6c610ed7565b5b610f7682610ec6565b9050602081019050919050565b82818337600083830152505050565b6000610fa5610fa084610f52565b610f37565b905082815260208101848484011115610fc157610fc0610ec1565b5b610fcc848285610f83565b509392505050565b600082601f830112610fe957610fe8610ebc565b5b8135610ff9848260208601610f92565b91505092915050565b60006020828403121561101857611017610eb2565b5b600082013567ffffffffffffffff81111561103657611035610eb7565b5b61104284828501610fd4565b91505092915050565b6000819050919050565b61105e8161104b565b82525050565b60006020820190506110796000830184611055565b92915050565b6000819050919050565b6110928161107f565b82525050565b60006040820190506110ad6000830185611089565b6110ba6020830184611089565b9392505050565b6110ca8161107f565b81146110d557600080fd5b50565b6000813590506110e7816110c1565b92915050565b60006020828403121561110357611102610eb2565b5b6000611111848285016110d8565b91505092915050565b600060208201905061112f6000830184611089565b92915050565b6000806040838503121561114c5761114b610eb2565b5b600061115a858286016110d8565b925050602061116b858286016110d8565b9150509250929050565b6000806040838503121561118c5761118b610eb2565b5b600083013567ffffffffffffffff8111156111aa576111a9610eb7565b5b6111b685828601610fd4565b92505060206111c7858286016110d8565b9150509250929050565b600073ffffffffffffffffffffffffffffffffffffffff82169050919050565b60006111fc826111d1565b9050919050565b61120c816111f1565b811461121757600080fd5b50565b60008135905061122981611203565b92915050565b6000806040838503121561124657611245610eb2565b5b60006112548582860161121a565b9250506020611265858286016110d8565b9150509250929050565b6000806040838503121561128657611285610eb2565b5b60006112948582860161121a565b925050602083013567ffffffffffffffff8111156112b5576112b4610eb7565b5b6112c185828601610fd4565b9150509250929050565b600081519050919050565b600082825260208201905092915050565b60005b838110156113055780820151818401526020810190506112ea565b60008484015250505050565b600061131c826112cb565b61132681856112d6565b93506113368185602086016112e7565b61133f81610ec6565b840191505092915050565b600060208201905081810360008301526113648184611311565b905092915050565b60006020828403121561138257611381610eb2565b5b60006113908482850161121a565b91505092915050565b6000819050919050565b6113ac81611399565b81146113b757600080fd5b50565b6000813590506113c9816113a3565b92915050565b600080604083850312156113e6576113e5610eb2565b5b60006113f4858286016113ba565b9250506020611405858286016113ba565b9150509250929050565b61141881611399565b82525050565b6000602082019050611433600083018461140f565b92915050565b611442816111f1565b82525050565b600060208201905061145d6000830184611439565b92915050565b60008115159050919050565b61147881611463565b82525050565b6000602082019050611493600083018461146f565b92915050565b6114a28161104b565b81146114ad57600080fd5b50565b6000813590506114bf81611499565b92915050565b6000806000606084860312156114de576114dd610eb2565b5b600084013567ffffffffffffffff8111156114fc576114fb610eb7565b5b61150886828701610fd4565b9350506020611519868287016110d8565b925050604061152a868287016114b0565b9150509250925092565b6000806040838503121561154b5761154a610eb2565b5b6000611559858286016110d8565b925050602061156a858286016113ba565b9150509250929050565b600081519050611583816110c1565b92915050565b60006020828403121561159f5761159e610eb2565b5b60006115ad84828501611574565b91505092915050565b600081905092915050565b60006115cc826112cb565b6115d681856115b6565b93506115e68185602086016112e7565b80840191505092915050565b60006115fe82846115c1565b915081905092915050565b600082825260208201905092915050565b7f63616c6c206661696c6564000000000000000000000000000000000000000000600082015250565b6000611650600b83611609565b915061165b8261161a565b602082019050919050565b6000602082019050818103600083015261167f81611643565b9050919050565b60008160601b9050919050565b600061169e82611686565b9050919050565b60006116b082611693565b9050919050565b6116c86116c3826111f1565b6116a5565b82525050565b6000819050919050565b6116e96116e48261107f565b6116ce565b82525050565b60006116fb82856116b7565b60148201915061170b82846116d8565b6020820191508190509392505050565b7f63616c6c20636f6465206661696c656400000000000000000000000000000000600082015250565b6000611751601083611609565b915061175c8261171b565b602082019050919050565b6000602082019050818103600083015261178081611744565b905091905056fe608060405234801561001057600080fd5b5061001f61002a60201b60201c565b600081905550610037565b6000803890508091505090565b60e4806100456000396000f3fe6080604052348015600f57600080fd5b506004361060325760003560e01c806346e4f9651460375780636319eee0146051575b600080fd5b603d606b565b604051604891906095565b60405180910390f35b60576071565b604051606291906095565b60405180910390f35b60005481565b6000803890508091505090565b6000819050919050565b608f81607e565b82525050565b600060208201905060a860008301846088565b9291505056fea264697066735822122039d539c152e590fbbba58b9951e854d347340ade98e5165cda3e9cb858fc646864736f6c63430008170033608060405234801561001057600080fd5b5061001f61002a60201b60201c565b60008190555061003e565b6000806000309050803b9150819250505090565b60eb8061004c6000396000f3fe6080604052348015600f57600080fd5b506004361060325760003560e01c8063c930b95d146037578063ce81828f146051575b600080fd5b603d606b565b60405160489190609c565b60405180910390f35b60576071565b60405160629190609c565b60405180910390f35b60005481565b6000806000309050803b9150819250505090565b6000819050919050565b6096816085565b82525050565b600060208201905060af6000830184608f565b9291505056fea26469706673582212205b4dada3be44eb045bdf66e32aca42516410638d003f26717bc4f146ea9a4da564736f6c63430008170033a2646970667358221220bf931750720bb9a0e40b3ac780035fb6bb4697d24b6a7c8f8fac6a48d6b0244564736f6c63430008170033","linkReferences":{}},"methodIdentifiers":{"Add(uint256,uint256)":"7afbe4f1","Byte(uint256,uint256)":"a55c0d60","CallCode(address,uint256)":"b4c5af3b","CallData(address,bytes)":"4a780769","Calldataload(uint256)":"39ac1267","Caller()":"7350597a","CodeSize()":"09fcc019","Div(uint256,uint256)":"9a03fe1d","Eq(uint256,uint256)":"a3c74c4b","Exp(uint256,uint256)":"3056b9cd","ExtCodeSize()":"7b37a6c1","GetMap1Slot()":"58d82d96","GetMap1Value(address)":"4f6bfe9d","GetMap1Value2(address)":"66775dc9","GetV0()":"c9efdfeb","Keccak256(bytes,uint256)":"e10fde0e","Keccak256_2(bytes)":"015b40fa","Lt(uint256,uint256)":"d65764f4","Mload(bytes,uint256)":"3993a320","Mload_GetLength(bytes)":"9c51d6e1","Mod(uint256,uint256)":"9565b8a7","Mstore(bytes,uint256,bytes32)":"cdae38cd","Mul(uint256,uint256)":"60953744","Not(uint256)":"ff392c10","Return()":"ce19a103","Sar(uint256,int256)":"e6d16624","Sdiv(int256,int256)":"d9c672fe","SetMap1Value(address,uint256)":"49fa0256","SetV0(uint256)":"87a77dc2","Shr(uint256,uint256)":"c30f89a0","Sload(uint256)":"14b784b1","Slt(int256,int256)":"90d2a240","Smod(int256,int256)":"63468949","Sstore(uint256,uint256)":"b98f404e","Stop()":"bedf0f4a","Sub(uint256,uint256)":"1ec9c2c0"},"id":17}