{
  "abi": [
    {
      "inputs": [
        {
          "internalType": "address",
          "name": "addr",
          "type": "address"
        }
      ],
      "name": "ConvertAddressToUint",
      "outputs": [
        {
          "internalType": "uint256",
          "name": "",
          "type": "uint256"
        }
      ],
      "stateMutability": "pure",
      "type": "function"
    },
    {
      "inputs": [
        {
          "internalType": "uint256",
          "name": "u",
          "type": "uint256"
        }
      ],
      "name": "ConvertUintToAddress",
      "outputs": [
        {
          "internalType": "address",
          "name": "",
          "type": "address"
        }
      ],
      "stateMutability": "pure",
      "type": "function"
    },
    {
      "inputs": [
        {
          "internalType": "address payable",
          "name": "to",
          "type": "address"
        }
      ],
      "name": "SendEther",
      "outputs": [],
      "stateMutability": "payable",
      "type": "function"
    }
  ],
  "bytecode": {
    "object": "0x608060405234801561001057600080fd5b506103ac806100206000396000f3fe6080604052600436106100345760003560e01c806332acaa921461003957806352a051bc14610076578063ead03b1214610092575b600080fd5b34801561004557600080fd5b50610060600480360381019061005b91906101c3565b6100cf565b60405161006d9190610231565b60405180910390f35b610090600480360381019061008b919061028a565b610119565b005b34801561009e57600080fd5b506100b960048036038101906100b491906102e3565b610163565b6040516100c6919061031f565b60405180910390f35b600080826040516020016100e3919061035b565b604051602081830303815290604052905060008180519060200120905060008160001c9050600081905080945050505050919050565b8073ffffffffffffffffffffffffffffffffffffffff166108fc349081150290604051600060405180830381858888f1935050505015801561015f573d6000803e3d6000fd5b5050565b6000808290508073ffffffffffffffffffffffffffffffffffffffff16915050919050565b600080fd5b6000819050919050565b6101a08161018d565b81146101ab57600080fd5b50565b6000813590506101bd81610197565b92915050565b6000602082840312156101d9576101d8610188565b5b60006101e7848285016101ae565b91505092915050565b600073ffffffffffffffffffffffffffffffffffffffff82169050919050565b600061021b826101f0565b9050919050565b61022b81610210565b82525050565b60006020820190506102466000830184610222565b92915050565b6000610257826101f0565b9050919050565b6102678161024c565b811461027257600080fd5b50565b6000813590506102848161025e565b92915050565b6000602082840312156102a05761029f610188565b5b60006102ae84828501610275565b91505092915050565b6102c081610210565b81146102cb57600080fd5b50565b6000813590506102dd816102b7565b92915050565b6000602082840312156102f9576102f8610188565b5b6000610307848285016102ce565b91505092915050565b6103198161018d565b82525050565b60006020820190506103346000830184610310565b92915050565b6000819050919050565b6103556103508261018d565b61033a565b82525050565b60006103678284610344565b6020820191508190509291505056fea264697066735822122061e9e9e9f2fac0a2e4d3be4e62b209a0520b9c1933a8a4f073abc7f0bad9b64564736f6c63430008150033",
    "linkReferences": {}
  },
  "methodIdentifiers": {
    "ConvertAddressToUint(address)": "ead03b12",
    "ConvertUintToAddress(uint256)": "32acaa92",
    "SendEther(address)": "52a051bc"
  },
  "id": 19
}