{
  "abi": [
    {
      "inputs": [
        {
          "internalType": "address",
          "name": "to",
          "type": "address"
        }
      ],
      "name": "Destroy",
      "outputs": [],
      "stateMutability": "nonpayable",
      "type": "function"
    }
  ],
  "bytecode": {
    "object": "0x608060405234801561001057600080fd5b5060ae8061001f6000396000f3fe6080604052348015600f57600080fd5b506004361060285760003560e01c80631784cfb614602d575b600080fd5b603c6038366004604a565b603e565b005b806001600160a01b0316ff5b600060208284031215605b57600080fd5b81356001600160a01b0381168114607157600080fd5b939250505056fea264697066735822122027084bf3b156889bfecec5c0707cb85f851438a24b48b64c64cf79de2548344364736f6c63430008150033",
    "linkReferences": {}
  },
  "methodIdentifiers": {
    "Destroy(address)": "1784cfb6"
  },
  "id": 20
}