{"abi":[{"type":"fallback","stateMutability":"payable"},{"type":"receive","stateMutability":"payable"},{"type":"function","name":"Hello","inputs":[],"outputs":[],"stateMutability":"payable"},{"type":"function","name":"LastCalledFuncationName","inputs":[],"outputs":[{"name":"","type":"string","internalType":"string"}],"stateMutability":"view"},{"type":"function","name":"lastCalledFuncationName","inputs":[],"outputs":[{"name":"","type":"string","internalType":"string"}],"stateMutability":"view"}],"bytecode":{"object":"0x608060405234801561001057600080fd5b5061068f806100206000396000f3fe6080604052600436106100385760003560e01c80630d4b07e8146100c95780636d8340fd146100f4578063bcdfe0d51461011f57610083565b36610083576040518060400160405280600781526020017f72656365697665000000000000000000000000000000000000000000000000008152506000908161008191906104e0565b005b6040518060400160405280600881526020017f66616c6c6261636b000000000000000000000000000000000000000000000000815250600090816100c791906104e0565b005b3480156100d557600080fd5b506100de610129565b6040516100eb9190610637565b60405180910390f35b34801561010057600080fd5b506101096101bb565b6040516101169190610637565b60405180910390f35b610127610249565b005b606060008054610138906102f9565b80601f0160208091040260200160405190810160405280929190818152602001828054610164906102f9565b80156101b15780601f10610186576101008083540402835291602001916101b1565b820191906000526020600020905b81548152906001019060200180831161019457829003601f168201915b5050505050905090565b600080546101c8906102f9565b80601f01602080910402602001604051908101604052809291908181526020018280546101f4906102f9565b80156102415780601f1061021657610100808354040283529160200191610241565b820191906000526020600020905b81548152906001019060200180831161022457829003601f168201915b505050505081565b6040518060400160405280600581526020017f48656c6c6f0000000000000000000000000000000000000000000000000000008152506000908161028d91906104e0565b50565b600081519050919050565b7f4e487b7100000000000000000000000000000000000000000000000000000000600052604160045260246000fd5b7f4e487b7100000000000000000000000000000000000000000000000000000000600052602260045260246000fd5b6000600282049050600182168061031157607f821691505b602082108103610324576103236102ca565b5b50919050565b60008190508160005260206000209050919050565b60006020601f8301049050919050565b600082821b905092915050565b60006008830261038c7fffffffffffffffffffffffffffffffffffffffffffffffffffffffffffffffff8261034f565b610396868361034f565b95508019841693508086168417925050509392505050565b6000819050919050565b6000819050919050565b60006103dd6103d86103d3846103ae565b6103b8565b6103ae565b9050919050565b6000819050919050565b6103f7836103c2565b61040b610403826103e4565b84845461035c565b825550505050565b600090565b610420610413565b61042b8184846103ee565b505050565b5b8181101561044f57610444600082610418565b600181019050610431565b5050565b601f821115610494576104658161032a565b61046e8461033f565b8101602085101561047d578190505b6104916104898561033f565b830182610430565b50505b505050565b600082821c905092915050565b60006104b760001984600802610499565b1980831691505092915050565b60006104d083836104a6565b9150826002028217905092915050565b6104e982610290565b67ffffffffffffffff8111156105025761050161029b565b5b61050c82546102f9565b610517828285610453565b600060209050601f83116001811461054a5760008415610538578287015190505b61054285826104c4565b8655506105aa565b601f1984166105588661032a565b60005b828110156105805784890151825560018201915060208501945060208101905061055b565b8683101561059d5784890151610599601f8916826104a6565b8355505b6001600288020188555050505b505050505050565b600082825260208201905092915050565b60005b838110156105e15780820151818401526020810190506105c6565b60008484015250505050565b6000601f19601f8301169050919050565b600061060982610290565b61061381856105b2565b93506106238185602086016105c3565b61062c816105ed565b840191505092915050565b6000602082019050818103600083015261065181846105fe565b90509291505056fea26469706673582212201706810e3ae2867743ab2866580f0975c6c9f48b77c8dc0175fe706204f7d14c64736f6c63430008170033","linkReferences":{}},"methodIdentifiers":{"Hello()":"bcdfe0d5","LastCalledFuncationName()":"0d4b07e8","lastCalledFuncationName()":"6d8340fd"},"id":28}