{
  "abi": [
    {
      "inputs": [],
      "name": "Hello",
      "outputs": [],
      "stateMutability": "payable",
      "type": "function"
    },
    {
      "inputs": [],
      "name": "LastCalledFuncationName",
      "outputs": [
        {
          "internalType": "string",
          "name": "",
          "type": "string"
        }
      ],
      "stateMutability": "view",
      "type": "function"
    },
    {
      "inputs": [],
      "name": "lastCalledFuncationName",
      "outputs": [
        {
          "internalType": "string",
          "name": "",
          "type": "string"
        }
      ],
      "stateMutability": "view",
      "type": "function"
    },
    {
      "stateMutability": "payable",
      "type": "receive"
    }
  ],
  "bytecode": {
    "object": "0x608060405234801561001057600080fd5b5061064e806100206000396000f3fe6080604052600436106100385760003560e01c80630d4b07e8146100885780636d8340fd146100b3578063bcdfe0d5146100de57610083565b36610083576040518060400160405280600781526020017f726563656976650000000000000000000000000000000000000000000000000081525060009081610081919061049f565b005b600080fd5b34801561009457600080fd5b5061009d6100e8565b6040516100aa91906105f6565b60405180910390f35b3480156100bf57600080fd5b506100c861017a565b6040516100d591906105f6565b60405180910390f35b6100e6610208565b005b6060600080546100f7906102b8565b80601f0160208091040260200160405190810160405280929190818152602001828054610123906102b8565b80156101705780601f1061014557610100808354040283529160200191610170565b820191906000526020600020905b81548152906001019060200180831161015357829003601f168201915b5050505050905090565b60008054610187906102b8565b80601f01602080910402602001604051908101604052809291908181526020018280546101b3906102b8565b80156102005780601f106101d557610100808354040283529160200191610200565b820191906000526020600020905b8154815290600101906020018083116101e357829003601f168201915b505050505081565b6040518060400160405280600581526020017f48656c6c6f0000000000000000000000000000000000000000000000000000008152506000908161024c919061049f565b50565b600081519050919050565b7f4e487b7100000000000000000000000000000000000000000000000000000000600052604160045260246000fd5b7f4e487b7100000000000000000000000000000000000000000000000000000000600052602260045260246000fd5b600060028204905060018216806102d057607f821691505b6020821081036102e3576102e2610289565b5b50919050565b60008190508160005260206000209050919050565b60006020601f8301049050919050565b600082821b905092915050565b60006008830261034b7fffffffffffffffffffffffffffffffffffffffffffffffffffffffffffffffff8261030e565b610355868361030e565b95508019841693508086168417925050509392505050565b6000819050919050565b6000819050919050565b600061039c6103976103928461036d565b610377565b61036d565b9050919050565b6000819050919050565b6103b683610381565b6103ca6103c2826103a3565b84845461031b565b825550505050565b600090565b6103df6103d2565b6103ea8184846103ad565b505050565b5b8181101561040e576104036000826103d7565b6001810190506103f0565b5050565b601f82111561045357610424816102e9565b61042d846102fe565b8101602085101561043c578190505b610450610448856102fe565b8301826103ef565b50505b505050565b600082821c905092915050565b600061047660001984600802610458565b1980831691505092915050565b600061048f8383610465565b9150826002028217905092915050565b6104a88261024f565b67ffffffffffffffff8111156104c1576104c061025a565b5b6104cb82546102b8565b6104d6828285610412565b600060209050601f83116001811461050957600084156104f7578287015190505b6105018582610483565b865550610569565b601f198416610517866102e9565b60005b8281101561053f5784890151825560018201915060208501945060208101905061051a565b8683101561055c5784890151610558601f891682610465565b8355505b6001600288020188555050505b505050505050565b600082825260208201905092915050565b60005b838110156105a0578082015181840152602081019050610585565b60008484015250505050565b6000601f19601f8301169050919050565b60006105c88261024f565b6105d28185610571565b93506105e2818560208601610582565b6105eb816105ac565b840191505092915050565b6000602082019050818103600083015261061081846105bd565b90509291505056fea264697066735822122056530580342409fa82a6c81b58031d5fc5913d3f2f3155e29abc3adddab59fea64736f6c63430008150033",
    "linkReferences": {}
  },
  "methodIdentifiers": {
    "Hello()": "bcdfe0d5",
    "LastCalledFuncationName()": "0d4b07e8",
    "lastCalledFuncationName()": "6d8340fd"
  },
  "id": 29
}