{
  "abi": [
    {
      "inputs": [
        {
          "internalType": "string",
          "name": "a",
          "type": "string"
        },
        {
          "internalType": "string",
          "name": "b",
          "type": "string"
        }
      ],
      "name": "Compare",
      "outputs": [
        {
          "internalType": "bool",
          "name": "",
          "type": "bool"
        }
      ],
      "stateMutability": "pure",
      "type": "function"
    },
    {
      "inputs": [
        {
          "internalType": "string",
          "name": "a",
          "type": "string"
        },
        {
          "internalType": "string",
          "name": "b",
          "type": "string"
        }
      ],
      "name": "Compare2",
      "outputs": [
        {
          "internalType": "bool",
          "name": "",
          "type": "bool"
        }
      ],
      "stateMutability": "pure",
      "type": "function"
    },
    {
      "inputs": [
        {
          "internalType": "string",
          "name": "a",
          "type": "string"
        },
        {
          "internalType": "string",
          "name": "b",
          "type": "string"
        }
      ],
      "name": "Compare3",
      "outputs": [
        {
          "internalType": "bool",
          "name": "",
          "type": "bool"
        }
      ],
      "stateMutability": "pure",
      "type": "function"
    },
    {
      "inputs": [
        {
          "internalType": "string",
          "name": "a",
          "type": "string"
        },
        {
          "internalType": "string",
          "name": "b",
          "type": "string"
        }
      ],
      "name": "ConcatString",
      "outputs": [
        {
          "internalType": "string",
          "name": "",
          "type": "string"
        }
      ],
      "stateMutability": "pure",
      "type": "function"
    },
    {
      "inputs": [
        {
          "internalType": "string",
          "name": "s",
          "type": "string"
        }
      ],
      "name": "GetLength",
      "outputs": [
        {
          "internalType": "uint256",
          "name": "",
          "type": "uint256"
        }
      ],
      "stateMutability": "pure",
      "type": "function"
    },
    {
      "inputs": [
        {
          "internalType": "int256",
          "name": "i",
          "type": "int256"
        }
      ],
      "name": "IntToString",
      "outputs": [
        {
          "internalType": "string",
          "name": "",
          "type": "string"
        }
      ],
      "stateMutability": "pure",
      "type": "function"
    },
    {
      "inputs": [
        {
          "internalType": "string",
          "name": "s",
          "type": "string"
        }
      ],
      "name": "StringToInt",
      "outputs": [
        {
          "internalType": "int256",
          "name": "",
          "type": "int256"
        }
      ],
      "stateMutability": "pure",
      "type": "function"
    },
    {
      "inputs": [
        {
          "internalType": "string",
          "name": "s",
          "type": "string"
        },
        {
          "internalType": "uint256",
          "name": "start",
          "type": "uint256"
        },
        {
          "internalType": "uint256",
          "name": "end",
          "type": "uint256"
        }
      ],
      "name": "SubString",
      "outputs": [
        {
          "internalType": "string",
          "name": "",
          "type": "string"
        }
      ],
      "stateMutability": "pure",
      "type": "function"
    }
  ],
  "bytecode": {
    "object": "0x608060405234801561001057600080fd5b506109f5806100206000396000f3fe608060405234801561001057600080fd5b50600436106100885760003560e01c8063637ccee41161005b578063637ccee41461010c57806386e4c20b1461012c578063dca123071461013f578063e2cae1d21461015257600080fd5b80631ed9ca4a1461008d57806338bd426b146100b2578063427daad1146100d557806361cb0df3146100f9575b600080fd5b61009f61009b3660046106bd565b5190565b6040519081526020015b60405180910390f35b6100c56100c03660046106fa565b610165565b60405190151581526020016100a9565b6100c56100e33660046106fa565b8051602091820120825192909101919091201490565b61009f6101073660046106bd565b6101bf565b61011f61011a3660046106fa565b61032e565b6040516100a99190610782565b61011f61013a3660046107b5565b61035a565b61011f61014d366004610803565b61047f565b6100c56101603660046106fa565b6105ff565b600081604051602001610178919061081c565b604051602081830303815290604052805190602001208360405160200161019f919061081c565b604051602081830303815290604052805190602001201490505b92915050565b60008082905060008060008084511180156101ff5750836000815181106101e8576101e8610838565b6020910101516001600160f81b031916602d60f81b145b1561020b575060019050805b805b845181101561031157600360fc1b85828151811061022d5761022d610838565b01602001516001600160f81b0319161080159061026e5750603960f81b85828151811061025c5761025c610838565b01602001516001600160f81b03191611155b6102bf5760405162461bcd60e51b815260206004820152601f60248201527f537472696e67206d75737420626520612076616c696420696e74656765722e0060448201526064015b60405180910390fd5b60308582815181106102d3576102d3610838565b01602001516102e5919060f81c610864565b60000b6102f385600a610885565b6102fd91906108b5565b935080610309816108dd565b91505061020d565b50811561032457610321836108f6565b92505b5090949350505050565b60608282604051602001610343929190610912565b604051602081830303815290604052905092915050565b60608282116103a15760405162461bcd60e51b8152602060048201526013602482015272496e76616c696420696e6465782072616e676560681b60448201526064016102b6565b835182116103af57816103b2565b83515b91508360006103c18585610941565b67ffffffffffffffff8111156103d9576103d961061a565b6040519080825280601f01601f191660200182016040528015610403576020820181803683370190505b509050845b848110156104755782818151811061042257610422610838565b01602001516001600160f81b0319168261043c8884610941565b8151811061044c5761044c610838565b60200101906001600160f81b031916908160001a9053508061046d816108dd565b915050610408565b5095945050505050565b6060816000036104a65750506040805180820190915260018152600360fc1b602082015290565b600080831290835b80156104d457816104be816108dd565b92506104cd9050600a8261096a565b90506104ae565b6000836104e157826104ec565b6104ec836001610998565b67ffffffffffffffff8111156105045761050461061a565b6040519080825280601f01601f19166020018201604052801561052e576020820181803683370190505b50905060008461053e5783610549565b610549846001610998565b9050841561058c5761055a876108f6565b9650602d60f81b8260008151811061057457610574610838565b60200101906001600160f81b031916908160001a9053505b86156104755761059d600182610941565b905060006105ac600a896109ab565b6105b7906030610998565b905060008160f81b9050808484815181106105d4576105d4610838565b60200101906001600160f81b031916908160001a9053506105f6600a8a61096a565b9850505061058c565b600081805190602001208360405160200161019f919061081c565b634e487b7160e01b600052604160045260246000fd5b600082601f83011261064157600080fd5b813567ffffffffffffffff8082111561065c5761065c61061a565b604051601f8301601f19908116603f011681019082821181831017156106845761068461061a565b8160405283815286602085880101111561069d57600080fd5b836020870160208301376000602085830101528094505050505092915050565b6000602082840312156106cf57600080fd5b813567ffffffffffffffff8111156106e657600080fd5b6106f284828501610630565b949350505050565b6000806040838503121561070d57600080fd5b823567ffffffffffffffff8082111561072557600080fd5b61073186838701610630565b9350602085013591508082111561074757600080fd5b5061075485828601610630565b9150509250929050565b60005b83811015610779578181015183820152602001610761565b50506000910152565b60208152600082518060208401526107a181604085016020870161075e565b601f01601f19169190910160400192915050565b6000806000606084860312156107ca57600080fd5b833567ffffffffffffffff8111156107e157600080fd5b6107ed86828701610630565b9660208601359650604090950135949350505050565b60006020828403121561081557600080fd5b5035919050565b6000825161082e81846020870161075e565b9190910192915050565b634e487b7160e01b600052603260045260246000fd5b634e487b7160e01b600052601160045260246000fd5b600082810b9082900b03607f198112607f821317156101b9576101b961084e565b80820260008212600160ff1b841416156108a1576108a161084e565b81810583148215176101b9576101b961084e565b80820182811260008312801582168215821617156108d5576108d561084e565b505092915050565b6000600182016108ef576108ef61084e565b5060010190565b6000600160ff1b820161090b5761090b61084e565b5060000390565b6000835161092481846020880161075e565b83519083019061093881836020880161075e565b01949350505050565b818103818111156101b9576101b961084e565b634e487b7160e01b600052601260045260246000fd5b60008261097957610979610954565b600160ff1b8214600019841416156109935761099361084e565b500590565b808201808211156101b9576101b961084e565b6000826109ba576109ba610954565b50079056fea264697066735822122072b565924e13b42bedd40916b384583010f3cab242ebb1484405c09822fadb1564736f6c63430008150033",
    "linkReferences": {}
  },
  "methodIdentifiers": {
    "Compare(string,string)": "38bd426b",
    "Compare2(string,string)": "427daad1",
    "Compare3(string,string)": "e2cae1d2",
    "ConcatString(string,string)": "637ccee4",
    "GetLength(string)": "1ed9ca4a",
    "IntToString(int256)": "dca12307",
    "StringToInt(string)": "61cb0df3",
    "SubString(string,uint256,uint256)": "86e4c20b"
  },
  "id": 25
}