{"abi":[{"type":"function","name":"Compare","inputs":[{"name":"a","type":"string","internalType":"string"},{"name":"b","type":"string","internalType":"string"}],"outputs":[{"name":"","type":"bool","internalType":"bool"}],"stateMutability":"pure"},{"type":"function","name":"Compare2","inputs":[{"name":"a","type":"string","internalType":"string"},{"name":"b","type":"string","internalType":"string"}],"outputs":[{"name":"","type":"bool","internalType":"bool"}],"stateMutability":"pure"},{"type":"function","name":"Compare3","inputs":[{"name":"a","type":"string","internalType":"string"},{"name":"b","type":"string","internalType":"string"}],"outputs":[{"name":"","type":"bool","internalType":"bool"}],"stateMutability":"pure"},{"type":"function","name":"ConcatString","inputs":[{"name":"a","type":"string","internalType":"string"},{"name":"b","type":"string","internalType":"string"}],"outputs":[{"name":"","type":"string","internalType":"string"}],"stateMutability":"pure"},{"type":"function","name":"GetLength","inputs":[{"name":"s","type":"string","internalType":"string"}],"outputs":[{"name":"","type":"uint256","internalType":"uint256"}],"stateMutability":"pure"},{"type":"function","name":"IntToString","inputs":[{"name":"i","type":"int256","internalType":"int256"}],"outputs":[{"name":"","type":"string","internalType":"string"}],"stateMutability":"pure"},{"type":"function","name":"StringToInt","inputs":[{"name":"s","type":"string","internalType":"string"}],"outputs":[{"name":"","type":"int256","internalType":"int256"}],"stateMutability":"pure"},{"type":"function","name":"SubString","inputs":[{"name":"s","type":"string","internalType":"string"},{"name":"start","type":"uint256","internalType":"uint256"},{"name":"end","type":"uint256","internalType":"uint256"}],"outputs":[{"name":"","type":"string","internalType":"string"}],"stateMutability":"pure"}],"bytecode":{"object":"0x608060405234801561001057600080fd5b50611170806100206000396000f3fe608060405234801561001057600080fd5b50600436106100885760003560e01c8063637ccee41161005b578063637ccee41461014d57806386e4c20b1461017d578063dca12307146101ad578063e2cae1d2146101dd57610088565b80631ed9ca4a1461008d57806338bd426b146100bd578063427daad1146100ed57806361cb0df31461011d575b600080fd5b6100a760048036038101906100a291906109b5565b61020d565b6040516100b49190610a17565b60405180910390f35b6100d760048036038101906100d29190610a32565b610218565b6040516100e49190610ac5565b60405180910390f35b61010760048036038101906101029190610a32565b610271565b6040516101149190610ac5565b60405180910390f35b610137600480360381019061013291906109b5565b61028c565b6040516101449190610af9565b60405180910390f35b61016760048036038101906101629190610a32565b6104a6565b6040516101749190610b93565b60405180910390f35b61019760048036038101906101929190610be1565b6104d2565b6040516101a49190610b93565b60405180910390f35b6101c760048036038101906101c29190610c7c565b61061d565b6040516101d49190610b93565b60405180910390f35b6101f760048036038101906101f29190610a32565b610821565b6040516102049190610ac5565b60405180910390f35b600081519050919050565b60008160405160200161022b9190610ce5565b60405160208183030381529060405280519060200120836040516020016102529190610ce5565b6040516020818303038152906040528051906020012014905092915050565b60008180519060200120838051906020012014905092915050565b600080829050600080600080845111801561030657507f2d00000000000000000000000000000000000000000000000000000000000000846000815181106102d7576102d6610cfc565b5b602001015160f81c60f81b7effffffffffffffffffffffffffffffffffffffffffffffffffffffffffffff1916145b156103145760019150600190505b60008190505b8451811015610486577f300000000000000000000000000000000000000000000000000000000000000085828151811061035757610356610cfc565b5b602001015160f81c60f81b7effffffffffffffffffffffffffffffffffffffffffffffffffffffffffffff1916101580156103f157507f39000000000000000000000000000000000000000000000000000000000000008582815181106103c1576103c0610cfc565b5b602001015160f81c60f81b7effffffffffffffffffffffffffffffffffffffffffffffffffffffffffffff191611155b610430576040517f08c379a000000000000000000000000000000000000000000000000000000000815260040161042790610d77565b60405180910390fd5b603085828151811061044557610444610cfc565b5b602001015160f81c60f81b60f81c61045d9190610dd3565b60000b600a8561046d9190610e2c565b6104779190610ea4565b9350808060010191505061031a565b50811561049a578261049790610ee8565b92505b82945050505050919050565b606082826040516020016104bb929190610f30565b604051602081830303815290604052905092915050565b6060828211610516576040517f08c379a000000000000000000000000000000000000000000000000000000000815260040161050d90610fa0565b60405180910390fd5b835182116105245781610527565b83515b915060008490506000848461053c9190610fc0565b67ffffffffffffffff8111156105555761055461088a565b5b6040519080825280601f01601f1916602001820160405280156105875781602001600182028036833780820191505090505b50905060008590505b84811015610610578281815181106105ab576105aa610cfc565b5b602001015160f81c60f81b8287836105c39190610fc0565b815181106105d4576105d3610cfc565b5b60200101907effffffffffffffffffffffffffffffffffffffffffffffffffffffffffffff1916908160001a9053508080600101915050610590565b5080925050509392505050565b606060008203610664576040518060400160405280600181526020017f3000000000000000000000000000000000000000000000000000000000000000815250905061081c565b600080831290506000808490505b6000811461069c57818061068590610ff4565b925050600a81610695919061106b565b9050610672565b6000836106a957826106b7565b6001836106b691906110d5565b5b67ffffffffffffffff8111156106d0576106cf61088a565b5b6040519080825280601f01601f1916602001820160405280156107025781602001600182028036833780820191505090505b5090506000846107125783610720565b60018461071f91906110d5565b5b9050841561077d578661073290610ee8565b9650602d60f81b8260008151811061074d5761074c610cfc565b5b60200101907effffffffffffffffffffffffffffffffffffffffffffffffffffffffffffff1916908160001a9053505b5b60008714610813576001816107939190610fc0565b90506000600a886107a49190611109565b60306107b091906110d5565b905060008160f81b9050808484815181106107ce576107cd610cfc565b5b60200101907effffffffffffffffffffffffffffffffffffffffffffffffffffffffffffff1916908160001a905350600a8961080a919061106b565b9850505061077e565b81955050505050505b919050565b600081805190602001208360405160200161083c9190610ce5565b6040516020818303038152906040528051906020012014905092915050565b6000604051905090565b600080fd5b600080fd5b600080fd5b600080fd5b6000601f19601f8301169050919050565b7f4e487b7100000000000000000000000000000000000000000000000000000000600052604160045260246000fd5b6108c282610879565b810181811067ffffffffffffffff821117156108e1576108e061088a565b5b80604052505050565b60006108f461085b565b905061090082826108b9565b919050565b600067ffffffffffffffff8211156109205761091f61088a565b5b61092982610879565b9050602081019050919050565b82818337600083830152505050565b600061095861095384610905565b6108ea565b90508281526020810184848401111561097457610973610874565b5b61097f848285610936565b509392505050565b600082601f83011261099c5761099b61086f565b5b81356109ac848260208601610945565b91505092915050565b6000602082840312156109cb576109ca610865565b5b600082013567ffffffffffffffff8111156109e9576109e861086a565b5b6109f584828501610987565b91505092915050565b6000819050919050565b610a11816109fe565b82525050565b6000602082019050610a2c6000830184610a08565b92915050565b60008060408385031215610a4957610a48610865565b5b600083013567ffffffffffffffff811115610a6757610a6661086a565b5b610a7385828601610987565b925050602083013567ffffffffffffffff811115610a9457610a9361086a565b5b610aa085828601610987565b9150509250929050565b60008115159050919050565b610abf81610aaa565b82525050565b6000602082019050610ada6000830184610ab6565b92915050565b6000819050919050565b610af381610ae0565b82525050565b6000602082019050610b0e6000830184610aea565b92915050565b600081519050919050565b600082825260208201905092915050565b60005b83811015610b4e578082015181840152602081019050610b33565b60008484015250505050565b6000610b6582610b14565b610b6f8185610b1f565b9350610b7f818560208601610b30565b610b8881610879565b840191505092915050565b60006020820190508181036000830152610bad8184610b5a565b905092915050565b610bbe816109fe565b8114610bc957600080fd5b50565b600081359050610bdb81610bb5565b92915050565b600080600060608486031215610bfa57610bf9610865565b5b600084013567ffffffffffffffff811115610c1857610c1761086a565b5b610c2486828701610987565b9350506020610c3586828701610bcc565b9250506040610c4686828701610bcc565b9150509250925092565b610c5981610ae0565b8114610c6457600080fd5b50565b600081359050610c7681610c50565b92915050565b600060208284031215610c9257610c91610865565b5b6000610ca084828501610c67565b91505092915050565b600081905092915050565b6000610cbf82610b14565b610cc98185610ca9565b9350610cd9818560208601610b30565b80840191505092915050565b6000610cf18284610cb4565b915081905092915050565b7f4e487b7100000000000000000000000000000000000000000000000000000000600052603260045260246000fd5b7f537472696e67206d75737420626520612076616c696420696e74656765722e00600082015250565b6000610d61601f83610b1f565b9150610d6c82610d2b565b602082019050919050565b60006020820190508181036000830152610d9081610d54565b9050919050565b60008160000b9050919050565b7f4e487b7100000000000000000000000000000000000000000000000000000000600052601160045260246000fd5b6000610dde82610d97565b9150610de983610d97565b92508282039050607f81137fffffffffffffffffffffffffffffffffffffffffffffffffffffffffffffff8082121715610e2657610e25610da4565b5b92915050565b6000610e3782610ae0565b9150610e4283610ae0565b9250828202610e5081610ae0565b91507f80000000000000000000000000000000000000000000000000000000000000008414600084121615610e8857610e87610da4565b5b8282058414831517610e9d57610e9c610da4565b5b5092915050565b6000610eaf82610ae0565b9150610eba83610ae0565b925082820190508281121560008312168382126000841215161715610ee257610ee1610da4565b5b92915050565b6000610ef382610ae0565b91507f80000000000000000000000000000000000000000000000000000000000000008203610f2557610f24610da4565b5b816000039050919050565b6000610f3c8285610cb4565b9150610f488284610cb4565b91508190509392505050565b7f496e76616c696420696e6465782072616e676500000000000000000000000000600082015250565b6000610f8a601383610b1f565b9150610f9582610f54565b602082019050919050565b60006020820190508181036000830152610fb981610f7d565b9050919050565b6000610fcb826109fe565b9150610fd6836109fe565b9250828203905081811115610fee57610fed610da4565b5b92915050565b6000610fff826109fe565b91507fffffffffffffffffffffffffffffffffffffffffffffffffffffffffffffffff820361103157611030610da4565b5b600182019050919050565b7f4e487b7100000000000000000000000000000000000000000000000000000000600052601260045260246000fd5b600061107682610ae0565b915061108183610ae0565b9250826110915761109061103c565b5b600160000383147f8000000000000000000000000000000000000000000000000000000000000000831416156110ca576110c9610da4565b5b828205905092915050565b60006110e0826109fe565b91506110eb836109fe565b925082820190508082111561110357611102610da4565b5b92915050565b600061111482610ae0565b915061111f83610ae0565b92508261112f5761112e61103c565b5b82820790509291505056fea264697066735822122047fc3a31d8aa1ae59ad9c4b0458d3fc7d117418047bcc6a33147d0906054bae564736f6c63430008170033","linkReferences":{}},"methodIdentifiers":{"Compare(string,string)":"38bd426b","Compare2(string,string)":"427daad1","Compare3(string,string)":"e2cae1d2","ConcatString(string,string)":"637ccee4","GetLength(string)":"1ed9ca4a","IntToString(int256)":"dca12307","StringToInt(string)":"61cb0df3","SubString(string,uint256,uint256)":"86e4c20b"},"id":29}