{
  "abi": [
    {
      "inputs": [
        {
          "internalType": "string",
          "name": "message",
          "type": "string"
        },
        {
          "internalType": "uint8",
          "name": "v",
          "type": "uint8"
        },
        {
          "internalType": "bytes32",
          "name": "r",
          "type": "bytes32"
        },
        {
          "internalType": "bytes32",
          "name": "s",
          "type": "bytes32"
        }
      ],
      "name": "RecoverFromMessage",
      "outputs": [
        {
          "internalType": "address",
          "name": "",
          "type": "address"
        }
      ],
      "stateMutability": "pure",
      "type": "function"
    }
  ],
  "bytecode": {
    "object": "0x608060405234801561001057600080fd5b506101d2806100206000396000f3fe608060405234801561001057600080fd5b506004361061002b5760003560e01c80639e7ecaeb14610030575b600080fd5b61004361003e3660046100f3565b61005f565b6040516001600160a01b03909116815260200160405180910390f35b600080868660405160200161007592919061018c565b60408051601f1981840301815282825280516020918201206000845290830180835281905260ff8816918301919091526060820186905260808201859052915060019060a0016020604051602081039080840390855afa1580156100dd573d6000803e3d6000fd5b5050604051601f19015198975050505050505050565b60008060008060006080868803121561010b57600080fd5b853567ffffffffffffffff8082111561012357600080fd5b818801915088601f83011261013757600080fd5b81358181111561014657600080fd5b89602082850101111561015857600080fd5b6020928301975095505086013560ff8116811461017457600080fd5b94979396509394604081013594506060013592915050565b818382376000910190815291905056fea264697066735822122027ebe424dd261e9ca893debdcef91b63391475c5eec87951e49c5e0c72246e2b64736f6c63430008150033",
    "linkReferences": {}
  },
  "methodIdentifiers": {
    "RecoverFromMessage(string,uint8,bytes32,bytes32)": "9e7ecaeb"
  },
  "id": 18
}