{
  "abi": [
    {
      "inputs": [
        {
          "internalType": "uint256[]",
          "name": "arr",
          "type": "uint256[]"
        },
        {
          "internalType": "uint256",
          "name": "start",
          "type": "uint256"
        },
        {
          "internalType": "uint256",
          "name": "len",
          "type": "uint256"
        }
      ],
      "name": "Slice",
      "outputs": [
        {
          "internalType": "uint256[]",
          "name": "",
          "type": "uint256[]"
        }
      ],
      "stateMutability": "pure",
      "type": "function"
    }
  ],
  "bytecode": {
    "object": "0x61052a610053600b82828239805160001a607314610046577f4e487b7100000000000000000000000000000000000000000000000000000000600052600060045260246000fd5b30600052607381538281f3fe73000000000000000000000000000000000000000030146080604052600436106100355760003560e01c80634f7fe0341461003a575b600080fd5b610054600480360381019061004f91906102cb565b61006a565b60405161006191906103f8565b60405180910390f35b606060008267ffffffffffffffff81111561008857610087610152565b5b6040519080825280602002602001820160405280156100b65781602001602082028036833780820191505090505b50905060005b8381101561011c578585826100d19190610449565b815181106100e2576100e161047d565b5b60200260200101518282815181106100fd576100fc61047d565b5b6020026020010181815250508080610114906104ac565b9150506100bc565b50809150509392505050565b6000604051905090565b600080fd5b600080fd5b600080fd5b6000601f19601f8301169050919050565b7f4e487b7100000000000000000000000000000000000000000000000000000000600052604160045260246000fd5b61018a82610141565b810181811067ffffffffffffffff821117156101a9576101a8610152565b5b80604052505050565b60006101bc610128565b90506101c88282610181565b919050565b600067ffffffffffffffff8211156101e8576101e7610152565b5b602082029050602081019050919050565b600080fd5b6000819050919050565b610211816101fe565b811461021c57600080fd5b50565b60008135905061022e81610208565b92915050565b6000610247610242846101cd565b6101b2565b9050808382526020820190506020840283018581111561026a576102696101f9565b5b835b81811015610293578061027f888261021f565b84526020840193505060208101905061026c565b5050509392505050565b600082601f8301126102b2576102b161013c565b5b81356102c2848260208601610234565b91505092915050565b6000806000606084860312156102e4576102e3610132565b5b600084013567ffffffffffffffff81111561030257610301610137565b5b61030e8682870161029d565b935050602061031f8682870161021f565b92505060406103308682870161021f565b9150509250925092565b600081519050919050565b600082825260208201905092915050565b6000819050602082019050919050565b61036f816101fe565b82525050565b60006103818383610366565b60208301905092915050565b6000602082019050919050565b60006103a58261033a565b6103af8185610345565b93506103ba83610356565b8060005b838110156103eb5781516103d28882610375565b97506103dd8361038d565b9250506001810190506103be565b5085935050505092915050565b60006020820190508181036000830152610412818461039a565b905092915050565b7f4e487b7100000000000000000000000000000000000000000000000000000000600052601160045260246000fd5b6000610454826101fe565b915061045f836101fe565b92508282019050808211156104775761047661041a565b5b92915050565b7f4e487b7100000000000000000000000000000000000000000000000000000000600052603260045260246000fd5b60006104b7826101fe565b91507fffffffffffffffffffffffffffffffffffffffffffffffffffffffffffffffff82036104e9576104e861041a565b5b60018201905091905056fea2646970667358221220320728674d3b5df846638aa0ebc75c849af3a015d6d603f96f7cb080333ca0d964736f6c63430008150033",
    "linkReferences": {}
  },
  "methodIdentifiers": {
    "Slice(uint256[],uint256,uint256)": "4f7fe034"
  },
  "id": 24
}