{
  "abi": [
    {
      "inputs": [
        {
          "internalType": "uint256[]",
          "name": "arr",
          "type": "uint256[]"
        },
        {
          "internalType": "uint256",
          "name": "start",
          "type": "uint256"
        },
        {
          "internalType": "uint256",
          "name": "len",
          "type": "uint256"
        }
      ],
      "name": "Slice",
      "outputs": [
        {
          "internalType": "uint256[]",
          "name": "",
          "type": "uint256[]"
        }
      ],
      "stateMutability": "pure",
      "type": "function"
    }
  ],
  "bytecode": {
    "object": "0x6102ce61003a600b82828239805160001a60731461002d57634e487b7160e01b600052600060045260246000fd5b30600052607381538281f3fe73000000000000000000000000000000000000000030146080604052600436106100355760003560e01c80634f7fe0341461003a575b600080fd5b61004d610048366004610128565b610063565b60405161005a91906101f6565b60405180910390f35b606060008267ffffffffffffffff81111561008057610080610112565b6040519080825280602002602001820160405280156100a9578160200160208202803683370190505b50905060005b8381101561010957856100c28683610250565b815181106100d2576100d2610269565b60200260200101518282815181106100ec576100ec610269565b6020908102919091010152806101018161027f565b9150506100af565b50949350505050565b634e487b7160e01b600052604160045260246000fd5b60008060006060848603121561013d57600080fd5b833567ffffffffffffffff8082111561015557600080fd5b818601915086601f83011261016957600080fd5b813560208282111561017d5761017d610112565b8160051b604051601f19603f830116810181811086821117156101a2576101a2610112565b60405292835281830193508481018201928a8411156101c057600080fd5b948201945b838610156101de578535855294820194938201936101c5565b9a918901359950506040909701359695505050505050565b6020808252825182820181905260009190848201906040850190845b8181101561022e57835183529284019291840191600101610212565b50909695505050505050565b634e487b7160e01b600052601160045260246000fd5b808201808211156102635761026361023a565b92915050565b634e487b7160e01b600052603260045260246000fd5b6000600182016102915761029161023a565b506001019056fea2646970667358221220896c0e5ffd05340c35e564ca9673b951a3e6aae793008d0c7677ad0c3fa3a71d64736f6c63430008150033",
    "linkReferences": {}
  },
  "methodIdentifiers": {
    "Slice(uint256[],uint256,uint256)": "4f7fe034"
  },
  "id": 17
}