{"abi":[{"type":"function","name":"DecodeBytes","inputs":[{"name":"encoded","type":"bytes","internalType":"bytes"}],"outputs":[{"name":"","type":"bytes","internalType":"bytes"}],"stateMutability":"pure"},{"type":"function","name":"DecodePackedHelloWorld","inputs":[{"name":"data","type":"bytes","internalType":"bytes"}],"outputs":[{"name":"","type":"string","internalType":"string"},{"name":"","type":"string","internalType":"string"}],"stateMutability":"pure"},{"type":"function","name":"DecodeString","inputs":[{"name":"encoded","type":"bytes","internalType":"bytes"}],"outputs":[{"name":"","type":"string","internalType":"string"}],"stateMutability":"pure"},{"type":"function","name":"DecodeStruct","inputs":[{"name":"encoded","type":"bytes","internalType":"bytes"}],"outputs":[{"name":"","type":"tuple","internalType":"struct People","components":[{"name":"name","type":"string","internalType":"string"},{"name":"age","type":"uint256","internalType":"uint256"}]}],"stateMutability":"pure"}],"bytecode":{"object":"0x608060405234801561001057600080fd5b50610adc806100206000396000f3fe608060405234801561001057600080fd5b506004361061004b5760003560e01c8062ec4fdf1461005057806305647f2814610080578063947ec84b146100b0578063e5094dca146100e1575b600080fd5b61006a600480360381019061006591906104c0565b610111565b6040516100779190610588565b60405180910390f35b61009a600480360381019061009591906104c0565b61012e565b6040516100a79190610655565b60405180910390f35b6100ca60048036038101906100c591906104c0565b610151565b6040516100d89291906106c1565b60405180910390f35b6100fb60048036038101906100f691906104c0565b61032f565b60405161010891906106f8565b60405180910390f35b606081806020019051810190610127919061078a565b9050919050565b61013661034c565b8180602001905181019061014a9190610916565b9050919050565b606080600a835114610198576040517f08c379a000000000000000000000000000000000000000000000000000000000815260040161018f906109ab565b60405180910390fd5b6000600567ffffffffffffffff8111156101b5576101b4610395565b5b6040519080825280601f01601f1916602001820160405280156101e75781602001600182028036833780820191505090505b5090506000600567ffffffffffffffff81111561020757610206610395565b5b6040519080825280601f01601f1916602001820160405280156102395781602001600182028036833780820191505090505b50905060005b60058110156103215785818151811061025b5761025a6109cb565b5b602001015160f81c60f81b838281518110610279576102786109cb565b5b60200101907effffffffffffffffffffffffffffffffffffffffffffffffffffffffffffff1916908160001a905350856005826102b69190610a29565b815181106102c7576102c66109cb565b5b602001015160f81c60f81b8282815181106102e5576102e46109cb565b5b60200101907effffffffffffffffffffffffffffffffffffffffffffffffffffffffffffff1916908160001a905350808060010191505061023f565b508181935093505050915091565b6060818060200190518101906103459190610a5d565b9050919050565b604051806040016040528060608152602001600081525090565b6000604051905090565b600080fd5b600080fd5b600080fd5b600080fd5b6000601f19601f8301169050919050565b7f4e487b7100000000000000000000000000000000000000000000000000000000600052604160045260246000fd5b6103cd82610384565b810181811067ffffffffffffffff821117156103ec576103eb610395565b5b80604052505050565b60006103ff610366565b905061040b82826103c4565b919050565b600067ffffffffffffffff82111561042b5761042a610395565b5b61043482610384565b9050602081019050919050565b82818337600083830152505050565b600061046361045e84610410565b6103f5565b90508281526020810184848401111561047f5761047e61037f565b5b61048a848285610441565b509392505050565b600082601f8301126104a7576104a661037a565b5b81356104b7848260208601610450565b91505092915050565b6000602082840312156104d6576104d5610370565b5b600082013567ffffffffffffffff8111156104f4576104f3610375565b5b61050084828501610492565b91505092915050565b600081519050919050565b600082825260208201905092915050565b60005b83811015610543578082015181840152602081019050610528565b60008484015250505050565b600061055a82610509565b6105648185610514565b9350610574818560208601610525565b61057d81610384565b840191505092915050565b600060208201905081810360008301526105a2818461054f565b905092915050565b600081519050919050565b600082825260208201905092915050565b60006105d1826105aa565b6105db81856105b5565b93506105eb818560208601610525565b6105f481610384565b840191505092915050565b6000819050919050565b610612816105ff565b82525050565b6000604083016000830151848203600086015261063582826105c6565b915050602083015161064a6020860182610609565b508091505092915050565b6000602082019050818103600083015261066f8184610618565b905092915050565b600082825260208201905092915050565b6000610693826105aa565b61069d8185610677565b93506106ad818560208601610525565b6106b681610384565b840191505092915050565b600060408201905081810360008301526106db8185610688565b905081810360208301526106ef8184610688565b90509392505050565b600060208201905081810360008301526107128184610688565b905092915050565b600061072d61072884610410565b6103f5565b9050828152602081018484840111156107495761074861037f565b5b610754848285610525565b509392505050565b600082601f8301126107715761077061037a565b5b815161078184826020860161071a565b91505092915050565b6000602082840312156107a05761079f610370565b5b600082015167ffffffffffffffff8111156107be576107bd610375565b5b6107ca8482850161075c565b91505092915050565b600080fd5b600080fd5b600067ffffffffffffffff8211156107f8576107f7610395565b5b61080182610384565b9050602081019050919050565b600061082161081c846107dd565b6103f5565b90508281526020810184848401111561083d5761083c61037f565b5b610848848285610525565b509392505050565b600082601f8301126108655761086461037a565b5b815161087584826020860161080e565b91505092915050565b610887816105ff565b811461089257600080fd5b50565b6000815190506108a48161087e565b92915050565b6000604082840312156108c0576108bf6107d3565b5b6108ca60406103f5565b9050600082015167ffffffffffffffff8111156108ea576108e96107d8565b5b6108f684828501610850565b600083015250602061090a84828501610895565b60208301525092915050565b60006020828403121561092c5761092b610370565b5b600082015167ffffffffffffffff81111561094a57610949610375565b5b610956848285016108aa565b91505092915050565b7f496e76616c69642064617461206c656e67746800000000000000000000000000600082015250565b6000610995601383610677565b91506109a08261095f565b602082019050919050565b600060208201905081810360008301526109c481610988565b9050919050565b7f4e487b7100000000000000000000000000000000000000000000000000000000600052603260045260246000fd5b7f4e487b7100000000000000000000000000000000000000000000000000000000600052601160045260246000fd5b6000610a34826105ff565b9150610a3f836105ff565b9250828201905080821115610a5757610a566109fa565b5b92915050565b600060208284031215610a7357610a72610370565b5b600082015167ffffffffffffffff811115610a9157610a90610375565b5b610a9d84828501610850565b9150509291505056fea26469706673582212209edd3729e5c939b7eb206f9c4d95f51297de7cce68080debdad4f20b66e5e5d364736f6c63430008170033","linkReferences":{}},"methodIdentifiers":{"DecodeBytes(bytes)":"00ec4fdf","DecodePackedHelloWorld(bytes)":"947ec84b","DecodeString(bytes)":"e5094dca","DecodeStruct(bytes)":"05647f28"},"id":21}