{
  "abi": [
    {
      "inputs": [
        {
          "internalType": "bytes",
          "name": "encoded",
          "type": "bytes"
        }
      ],
      "name": "DecodeBytes",
      "outputs": [
        {
          "internalType": "bytes",
          "name": "",
          "type": "bytes"
        }
      ],
      "stateMutability": "pure",
      "type": "function"
    },
    {
      "inputs": [
        {
          "internalType": "bytes",
          "name": "data",
          "type": "bytes"
        }
      ],
      "name": "DecodePackedHelloWorld",
      "outputs": [
        {
          "internalType": "string",
          "name": "",
          "type": "string"
        },
        {
          "internalType": "string",
          "name": "",
          "type": "string"
        }
      ],
      "stateMutability": "pure",
      "type": "function"
    },
    {
      "inputs": [
        {
          "internalType": "bytes",
          "name": "encoded",
          "type": "bytes"
        }
      ],
      "name": "DecodeString",
      "outputs": [
        {
          "internalType": "string",
          "name": "",
          "type": "string"
        }
      ],
      "stateMutability": "pure",
      "type": "function"
    },
    {
      "inputs": [
        {
          "internalType": "bytes",
          "name": "encoded",
          "type": "bytes"
        }
      ],
      "name": "DecodeStruct",
      "outputs": [
        {
          "components": [
            {
              "internalType": "string",
              "name": "name",
              "type": "string"
            },
            {
              "internalType": "uint256",
              "name": "age",
              "type": "uint256"
            }
          ],
          "internalType": "struct People",
          "name": "",
          "type": "tuple"
        }
      ],
      "stateMutability": "pure",
      "type": "function"
    }
  ],
  "bytecode": {
    "object": "0x608060405234801561001057600080fd5b50610625806100206000396000f3fe608060405234801561001057600080fd5b506004361061004b5760003560e01c8062ec4fdf1461005057806305647f2814610079578063947ec84b14610099578063e5094dca146100ba575b600080fd5b61006361005e3660046102e7565b6100cd565b60405161007091906103b7565b60405180910390f35b61008c6100873660046102e7565b6100e9565b60405161007091906103d1565b6100ac6100a73660046102e7565b610112565b604051610070929190610403565b6100636100c83660046102e7565b610262565b6060818060200190518101906100e39190610461565b92915050565b604080518082019091526060815260006020820152818060200190518101906100e391906104d2565b6060808251600a146101605760405162461bcd60e51b8152602060048201526013602482015272092dcecc2d8d2c840c8c2e8c240d8cadccee8d606b1b604482015260640160405180910390fd5b6040805160058082528183019092526000916020820181803683375050604080516005808252818301909252929350600092915060208201818036833701905050905060005b6005811015610257578581815181106101c1576101c1610562565b602001015160f81c60f81b8382815181106101de576101de610562565b60200101906001600160f81b031916908160001a9053508561020182600561058e565b8151811061021157610211610562565b602001015160f81c60f81b82828151811061022e5761022e610562565b60200101906001600160f81b031916908160001a9053508061024f816105a1565b9150506101a6565b509094909350915050565b6060818060200190518101906100e391906105ba565b634e487b7160e01b600052604160045260246000fd5b604051601f8201601f1916810167ffffffffffffffff811182821017156102b7576102b7610278565b604052919050565b600067ffffffffffffffff8211156102d9576102d9610278565b50601f01601f191660200190565b6000602082840312156102f957600080fd5b813567ffffffffffffffff81111561031057600080fd5b8201601f8101841361032157600080fd5b803561033461032f826102bf565b61028e565b81815285602083850101111561034957600080fd5b81602084016020830137600091810160200191909152949350505050565b60005b8381101561038257818101518382015260200161036a565b50506000910152565b600081518084526103a3816020860160208601610367565b601f01601f19169290920160200192915050565b6020815260006103ca602083018461038b565b9392505050565b6020815260008251604060208401526103ed606084018261038b565b9050602084015160408401528091505092915050565b604081526000610416604083018561038b565b8281036020840152610428818561038b565b95945050505050565b600061043f61032f846102bf565b905082815283838301111561045357600080fd5b6103ca836020830184610367565b60006020828403121561047357600080fd5b815167ffffffffffffffff81111561048a57600080fd5b8201601f8101841361049b57600080fd5b6104aa84825160208401610431565b949350505050565b600082601f8301126104c357600080fd5b6103ca83835160208501610431565b6000602082840312156104e457600080fd5b815167ffffffffffffffff808211156104fc57600080fd5b908301906040828603121561051057600080fd5b60405160408101818110838211171561052b5761052b610278565b60405282518281111561053d57600080fd5b610549878286016104b2565b8252506020830151602082015280935050505092915050565b634e487b7160e01b600052603260045260246000fd5b634e487b7160e01b600052601160045260246000fd5b808201808211156100e3576100e3610578565b6000600182016105b3576105b3610578565b5060010190565b6000602082840312156105cc57600080fd5b815167ffffffffffffffff8111156105e357600080fd5b6104aa848285016104b256fea26469706673582212207f0d1079083210e2e16201253a84943e258466499d241aba8818618d26cc4ee564736f6c63430008150033",
    "linkReferences": {}
  },
  "methodIdentifiers": {
    "DecodeBytes(bytes)": "00ec4fdf",
    "DecodePackedHelloWorld(bytes)": "947ec84b",
    "DecodeString(bytes)": "e5094dca",
    "DecodeStruct(bytes)": "05647f28"
  },
  "id": 22
}