{"abi":[{"type":"function","name":"Add","inputs":[{"name":"a","type":"uint256","internalType":"uint256"},{"name":"b","type":"uint256","internalType":"uint256"}],"outputs":[{"name":"","type":"uint256","internalType":"uint256"}],"stateMutability":"pure"},{"type":"function","name":"EncodeBytes","inputs":[{"name":"b","type":"bytes","internalType":"bytes"}],"outputs":[{"name":"","type":"bytes","internalType":"bytes"}],"stateMutability":"pure"},{"type":"function","name":"EncodeCallAdd","inputs":[],"outputs":[{"name":"","type":"bytes","internalType":"bytes"}],"stateMutability":"view"},{"type":"function","name":"EncodePackedHelloWorld","inputs":[],"outputs":[{"name":"","type":"bytes","internalType":"bytes"}],"stateMutability":"pure"},{"type":"function","name":"EncodeString","inputs":[{"name":"str","type":"string","internalType":"string"}],"outputs":[{"name":"","type":"bytes","internalType":"bytes"}],"stateMutability":"pure"},{"type":"function","name":"EncodeStruct","inputs":[{"name":"p","type":"tuple","internalType":"struct People","components":[{"name":"name","type":"string","internalType":"string"},{"name":"age","type":"uint256","internalType":"uint256"}]}],"outputs":[{"name":"","type":"bytes","internalType":"bytes"}],"stateMutability":"pure"}],"bytecode":{"object":"0x608060405234801561001057600080fd5b50610a54806100206000396000f3fe608060405234801561001057600080fd5b50600436106100625760003560e01c806336dd19b01461006757806340d924111461008557806378c3bd71146100b55780637afbe4f1146100e5578063bc6a04fd14610115578063c6d39b5914610133575b600080fd5b61006f610163565b60405161007c9190610323565b60405180910390f35b61009f600480360381019061009a919061048e565b6101dd565b6040516100ac9190610323565b60405180910390f35b6100cf60048036038101906100ca9190610578565b610206565b6040516100dc9190610323565b60405180910390f35b6100ff60048036038101906100fa91906105f7565b61022f565b60405161010c9190610646565b60405180910390f35b61011d610245565b60405161012a9190610323565b60405180910390f35b61014d600480360381019061014891906106d7565b61026a565b60405161015a9190610323565b60405180910390f35b60603073ffffffffffffffffffffffffffffffffffffffff16637afbe4f1600160026040516024016101969291906107a0565b604051602081830303815290604052915060e01b6020820180517bffffffffffffffffffffffffffffffffffffffffffffffffffffffff8381831617835250505050905090565b6060816040516020016101f09190610323565b6040516020818303038152906040529050919050565b606081604051602001610219919061081e565b6040516020818303038152906040529050919050565b6000818361023d919061086f565b905092915050565b606060405160200161025690610946565b604051602081830303815290604052905090565b60608160405160200161027d91906109fc565b6040516020818303038152906040529050919050565b600081519050919050565b600082825260208201905092915050565b60005b838110156102cd5780820151818401526020810190506102b2565b60008484015250505050565b6000601f19601f8301169050919050565b60006102f582610293565b6102ff818561029e565b935061030f8185602086016102af565b610318816102d9565b840191505092915050565b6000602082019050818103600083015261033d81846102ea565b905092915050565b6000604051905090565b600080fd5b600080fd5b600080fd5b600080fd5b7f4e487b7100000000000000000000000000000000000000000000000000000000600052604160045260246000fd5b61039b826102d9565b810181811067ffffffffffffffff821117156103ba576103b9610363565b5b80604052505050565b60006103cd610345565b90506103d98282610392565b919050565b600067ffffffffffffffff8211156103f9576103f8610363565b5b610402826102d9565b9050602081019050919050565b82818337600083830152505050565b600061043161042c846103de565b6103c3565b90508281526020810184848401111561044d5761044c61035e565b5b61045884828561040f565b509392505050565b600082601f83011261047557610474610359565b5b813561048584826020860161041e565b91505092915050565b6000602082840312156104a4576104a361034f565b5b600082013567ffffffffffffffff8111156104c2576104c1610354565b5b6104ce84828501610460565b91505092915050565b600067ffffffffffffffff8211156104f2576104f1610363565b5b6104fb826102d9565b9050602081019050919050565b600061051b610516846104d7565b6103c3565b9050828152602081018484840111156105375761053661035e565b5b61054284828561040f565b509392505050565b600082601f83011261055f5761055e610359565b5b813561056f848260208601610508565b91505092915050565b60006020828403121561058e5761058d61034f565b5b600082013567ffffffffffffffff8111156105ac576105ab610354565b5b6105b88482850161054a565b91505092915050565b6000819050919050565b6105d4816105c1565b81146105df57600080fd5b50565b6000813590506105f1816105cb565b92915050565b6000806040838503121561060e5761060d61034f565b5b600061061c858286016105e2565b925050602061062d858286016105e2565b9150509250929050565b610640816105c1565b82525050565b600060208201905061065b6000830184610637565b92915050565b600080fd5b600080fd5b60006040828403121561068157610680610661565b5b61068b60406103c3565b9050600082013567ffffffffffffffff8111156106ab576106aa610666565b5b6106b78482850161054a565b60008301525060206106cb848285016105e2565b60208301525092915050565b6000602082840312156106ed576106ec61034f565b5b600082013567ffffffffffffffff81111561070b5761070a610354565b5b6107178482850161066b565b91505092915050565b6000819050919050565b6000819050919050565b600061074f61074a61074584610720565b61072a565b6105c1565b9050919050565b61075f81610734565b82525050565b6000819050919050565b600061078a61078561078084610765565b61072a565b6105c1565b9050919050565b61079a8161076f565b82525050565b60006040820190506107b56000830185610756565b6107c26020830184610791565b9392505050565b600081519050919050565b600082825260208201905092915050565b60006107f0826107c9565b6107fa81856107d4565b935061080a8185602086016102af565b610813816102d9565b840191505092915050565b6000602082019050818103600083015261083881846107e5565b905092915050565b7f4e487b7100000000000000000000000000000000000000000000000000000000600052601160045260246000fd5b600061087a826105c1565b9150610885836105c1565b925082820190508082111561089d5761089c610840565b5b92915050565b600081905092915050565b7f68656c6c6f000000000000000000000000000000000000000000000000000000600082015250565b60006108e46005836108a3565b91506108ef826108ae565b600582019050919050565b7f776f726c64000000000000000000000000000000000000000000000000000000600082015250565b60006109306005836108a3565b915061093b826108fa565b600582019050919050565b6000610951826108d7565b915061095c82610923565b9150819050919050565b600082825260208201905092915050565b6000610982826107c9565b61098c8185610966565b935061099c8185602086016102af565b6109a5816102d9565b840191505092915050565b6109b9816105c1565b82525050565b600060408301600083015184820360008601526109dc8282610977565b91505060208301516109f160208601826109b0565b508091505092915050565b60006020820190508181036000830152610a1681846109bf565b90509291505056fea264697066735822122014c65a3ee1c9ec5b38b39e7a03267dbd04d987dd12b587d43720e2f865c42af864736f6c63430008170033","linkReferences":{}},"methodIdentifiers":{"Add(uint256,uint256)":"7afbe4f1","EncodeBytes(bytes)":"40d92411","EncodeCallAdd()":"36dd19b0","EncodePackedHelloWorld()":"bc6a04fd","EncodeString(string)":"78c3bd71","EncodeStruct((string,uint256))":"c6d39b59"},"id":21}