{
  "abi": [
    {
      "inputs": [
        {
          "internalType": "uint256",
          "name": "a",
          "type": "uint256"
        },
        {
          "internalType": "uint256",
          "name": "b",
          "type": "uint256"
        }
      ],
      "name": "Add",
      "outputs": [
        {
          "internalType": "uint256",
          "name": "",
          "type": "uint256"
        }
      ],
      "stateMutability": "pure",
      "type": "function"
    },
    {
      "inputs": [
        {
          "internalType": "bytes",
          "name": "b",
          "type": "bytes"
        }
      ],
      "name": "EncodeBytes",
      "outputs": [
        {
          "internalType": "bytes",
          "name": "",
          "type": "bytes"
        }
      ],
      "stateMutability": "pure",
      "type": "function"
    },
    {
      "inputs": [],
      "name": "EncodeCallAdd",
      "outputs": [
        {
          "internalType": "bytes",
          "name": "",
          "type": "bytes"
        }
      ],
      "stateMutability": "view",
      "type": "function"
    },
    {
      "inputs": [],
      "name": "EncodePackedHelloWorld",
      "outputs": [
        {
          "internalType": "bytes",
          "name": "",
          "type": "bytes"
        }
      ],
      "stateMutability": "pure",
      "type": "function"
    },
    {
      "inputs": [
        {
          "internalType": "string",
          "name": "str",
          "type": "string"
        }
      ],
      "name": "EncodeString",
      "outputs": [
        {
          "internalType": "bytes",
          "name": "",
          "type": "bytes"
        }
      ],
      "stateMutability": "pure",
      "type": "function"
    },
    {
      "inputs": [
        {
          "components": [
            {
              "internalType": "string",
              "name": "name",
              "type": "string"
            },
            {
              "internalType": "uint256",
              "name": "age",
              "type": "uint256"
            }
          ],
          "internalType": "struct People",
          "name": "p",
          "type": "tuple"
        }
      ],
      "name": "EncodeStruct",
      "outputs": [
        {
          "internalType": "bytes",
          "name": "",
          "type": "bytes"
        }
      ],
      "stateMutability": "pure",
      "type": "function"
    }
  ],
  "bytecode": {
    "object": "0x608060405234801561001057600080fd5b50610468806100206000396000f3fe608060405234801561001057600080fd5b50600436106100625760003560e01c806336dd19b01461006757806340d92411146100c557806378c3bd71146100d85780637afbe4f1146100e6578063bc6a04fd14610107578063c6d39b591461013e575b600080fd5b6100af604080516001602482015260026044808301919091528251808303909101815260649091019091526020810180516001600160e01b0316637afbe4f160e01b17905290565b6040516100bc91906101e8565b60405180910390f35b6100af6100d3366004610287565b610151565b6100af6100d33660046102f8565b6100f96100f436600461032d565b61017a565b6040519081526020016100bc565b604080516468656c6c6f60d81b6020820152641ddbdc9b1960da1b60258201528151808203600a018152602a9091019091526100af565b6100af61014c36600461034f565b61018f565b60608160405160200161016491906101e8565b6040516020818303038152906040529050919050565b600061018682846103df565b90505b92915050565b6060816040516020016101649190610400565b6000815180845260005b818110156101c8576020818501810151868301820152016101ac565b506000602082860101526020601f19601f83011685010191505092915050565b60208152600061018660208301846101a2565b634e487b7160e01b600052604160045260246000fd5b600067ffffffffffffffff8084111561022c5761022c6101fb565b604051601f8501601f19908116603f01168101908282118183101715610254576102546101fb565b8160405280935085815286868601111561026d57600080fd5b858560208301376000602087830101525050509392505050565b60006020828403121561029957600080fd5b813567ffffffffffffffff8111156102b057600080fd5b8201601f810184136102c157600080fd5b6102d084823560208401610211565b949350505050565b600082601f8301126102e957600080fd5b61018683833560208501610211565b60006020828403121561030a57600080fd5b813567ffffffffffffffff81111561032157600080fd5b6102d0848285016102d8565b6000806040838503121561034057600080fd5b50508035926020909101359150565b60006020828403121561036157600080fd5b813567ffffffffffffffff8082111561037957600080fd5b908301906040828603121561038d57600080fd5b6040516040810181811083821117156103a8576103a86101fb565b6040528235828111156103ba57600080fd5b6103c6878286016102d8565b8252506020830135602082015280935050505092915050565b8082018082111561018957634e487b7160e01b600052601160045260246000fd5b60208152600082516040602084015261041c60608401826101a2565b905060208401516040840152809150509291505056fea26469706673582212205db7b6f0c49d38bf3ab751c28698a58c65002c007347d0f7372fb113ea0e04df64736f6c63430008150033",
    "linkReferences": {}
  },
  "methodIdentifiers": {
    "Add(uint256,uint256)": "7afbe4f1",
    "EncodeBytes(bytes)": "40d92411",
    "EncodeCallAdd()": "36dd19b0",
    "EncodePackedHelloWorld()": "bc6a04fd",
    "EncodeString(string)": "78c3bd71",
    "EncodeStruct((string,uint256))": "c6d39b59"
  },
  "id": 22
}