{
  "abi": [
    {
      "inputs": [
        {
          "internalType": "bytes",
          "name": "b",
          "type": "bytes"
        }
      ],
      "name": "EncodeBytes",
      "outputs": [
        {
          "internalType": "bytes",
          "name": "",
          "type": "bytes"
        }
      ],
      "stateMutability": "pure",
      "type": "function"
    },
    {
      "inputs": [
        {
          "internalType": "string",
          "name": "str",
          "type": "string"
        }
      ],
      "name": "EncodeString",
      "outputs": [
        {
          "internalType": "bytes",
          "name": "",
          "type": "bytes"
        }
      ],
      "stateMutability": "pure",
      "type": "function"
    },
    {
      "inputs": [
        {
          "components": [
            {
              "internalType": "string",
              "name": "name",
              "type": "string"
            },
            {
              "internalType": "uint256",
              "name": "age",
              "type": "uint256"
            }
          ],
          "internalType": "struct People",
          "name": "p",
          "type": "tuple"
        }
      ],
      "name": "EncodeStruct",
      "outputs": [
        {
          "internalType": "bytes",
          "name": "",
          "type": "bytes"
        }
      ],
      "stateMutability": "pure",
      "type": "function"
    }
  ],
  "bytecode": {
    "object": "0x608060405234801561001057600080fd5b50610356806100206000396000f3fe608060405234801561001057600080fd5b50600436106100415760003560e01c806340d924111461004657806378c3bd711461006f578063c6d39b591461007d575b600080fd5b610059610054366004610158565b610090565b60405161006691906101ef565b60405180910390f35b610059610054366004610229565b61005961008b36600461025e565b6100b9565b6060816040516020016100a391906101ef565b6040516020818303038152906040529050919050565b6060816040516020016100a391906102ee565b634e487b7160e01b600052604160045260246000fd5b600067ffffffffffffffff808411156100fd576100fd6100cc565b604051601f8501601f19908116603f01168101908282118183101715610125576101256100cc565b8160405280935085815286868601111561013e57600080fd5b858560208301376000602087830101525050509392505050565b60006020828403121561016a57600080fd5b813567ffffffffffffffff81111561018157600080fd5b8201601f8101841361019257600080fd5b6101a1848235602084016100e2565b949350505050565b6000815180845260005b818110156101cf576020818501810151868301820152016101b3565b506000602082860101526020601f19601f83011685010191505092915050565b60208152600061020260208301846101a9565b9392505050565b600082601f83011261021a57600080fd5b610202838335602085016100e2565b60006020828403121561023b57600080fd5b813567ffffffffffffffff81111561025257600080fd5b6101a184828501610209565b60006020828403121561027057600080fd5b813567ffffffffffffffff8082111561028857600080fd5b908301906040828603121561029c57600080fd5b6040516040810181811083821117156102b7576102b76100cc565b6040528235828111156102c957600080fd5b6102d587828601610209565b8252506020830135602082015280935050505092915050565b60208152600082516040602084015261030a60608401826101a9565b905060208401516040840152809150509291505056fea264697066735822122034475950fa5099b2e65c39f0b6fefd5e1d24bfa30a48ee657f2b7043eac0f88d64736f6c63430008130033",
    "linkReferences": {}
  },
  "methodIdentifiers": {
    "EncodeBytes(bytes)": "40d92411",
    "EncodeString(string)": "78c3bd71",
    "EncodeStruct((string,uint256))": "c6d39b59"
  },
  "id": 17
}