{"abi":[{"type":"function","name":"RecoverFromMessage","inputs":[{"name":"message","type":"string","internalType":"string"},{"name":"v","type":"uint8","internalType":"uint8"},{"name":"r","type":"bytes32","internalType":"bytes32"},{"name":"s","type":"bytes32","internalType":"bytes32"}],"outputs":[{"name":"","type":"address","internalType":"address"}],"stateMutability":"pure"}],"bytecode":{"object":"0x608060405234801561001057600080fd5b5061039c806100206000396000f3fe608060405234801561001057600080fd5b506004361061002b5760003560e01c80639e7ecaeb14610030575b600080fd5b61004a600480360381019061004591906101c7565b610060565b6040516100579190610290565b60405180910390f35b60008086866040516020016100769291906102ea565b604051602081830303815290604052805190602001209050600181868686604051600081526020016040526040516100b19493929190610321565b6020604051602081039080840390855afa1580156100d3573d6000803e3d6000fd5b5050506020604051035191505095945050505050565b600080fd5b600080fd5b600080fd5b600080fd5b600080fd5b60008083601f840112610118576101176100f3565b5b8235905067ffffffffffffffff811115610135576101346100f8565b5b602083019150836001820283011115610151576101506100fd565b5b9250929050565b600060ff82169050919050565b61016e81610158565b811461017957600080fd5b50565b60008135905061018b81610165565b92915050565b6000819050919050565b6101a481610191565b81146101af57600080fd5b50565b6000813590506101c18161019b565b92915050565b6000806000806000608086880312156101e3576101e26100e9565b5b600086013567ffffffffffffffff811115610201576102006100ee565b5b61020d88828901610102565b955095505060206102208882890161017c565b9350506040610231888289016101b2565b9250506060610242888289016101b2565b9150509295509295909350565b600073ffffffffffffffffffffffffffffffffffffffff82169050919050565b600061027a8261024f565b9050919050565b61028a8161026f565b82525050565b60006020820190506102a56000830184610281565b92915050565b600081905092915050565b82818337600083830152505050565b60006102d183856102ab565b93506102de8385846102b6565b82840190509392505050565b60006102f78284866102c5565b91508190509392505050565b61030c81610191565b82525050565b61031b81610158565b82525050565b60006080820190506103366000830187610303565b6103436020830186610312565b6103506040830185610303565b61035d6060830184610303565b9594505050505056fea26469706673582212209471de4526e594b2a76fca758a5a7c80c6a7ee0f06268a730580ddd7217d10a364736f6c63430008170033","linkReferences":{}},"methodIdentifiers":{"RecoverFromMessage(string,uint8,bytes32,bytes32)":"9e7ecaeb"},"id":22}