{"abi":[{"type":"receive","stateMutability":"payable"},{"type":"function","name":"deposit","inputs":[],"outputs":[],"stateMutability":"payable"},{"type":"function","name":"getIsLocked","inputs":[],"outputs":[{"name":"","type":"bool","internalType":"bool"}],"stateMutability":"view"},{"type":"function","name":"withdraw","inputs":[],"outputs":[],"stateMutability":"nonpayable"}],"bytecode":{"object":"0x608060405234801561001057600080fd5b50610571806100206000396000f3fe6080604052600436106100385760003560e01c80633ccfd60b14610044578063583b18961461005b578063d0e30db0146100865761003f565b3661003f57005b600080fd5b34801561005057600080fd5b50610059610090565b005b34801561006757600080fd5b5061007061028f565b60405161007d9190610318565b60405180910390f35b61008e6102a6565b005b600160009054906101000a900460ff16156100e0576040517f08c379a00000000000000000000000000000000000000000000000000000000081526004016100d790610390565b60405180910390fd5b60018060006101000a81548160ff02191690831515021790555060008060003373ffffffffffffffffffffffffffffffffffffffff1673ffffffffffffffffffffffffffffffffffffffff16815260200190815260200160002054905060008111610180576040517f08c379a0000000000000000000000000000000000000000000000000000000008152600401610177906103fc565b60405180910390fd5b60008060003373ffffffffffffffffffffffffffffffffffffffff1673ffffffffffffffffffffffffffffffffffffffff1681526020019081526020016000208190555060003373ffffffffffffffffffffffffffffffffffffffff16826040516101ea9061044d565b60006040518083038185875af1925050503d8060008114610227576040519150601f19603f3d011682016040523d82523d6000602084013e61022c565b606091505b5050905080610270576040517f08c379a0000000000000000000000000000000000000000000000000000000008152600401610267906104ae565b60405180910390fd5b50506000600160006101000a81548160ff021916908315150217905550565b6000600160009054906101000a900460ff16905090565b346000803373ffffffffffffffffffffffffffffffffffffffff1673ffffffffffffffffffffffffffffffffffffffff16815260200190815260200160002060008282546102f49190610507565b92505081905550565b60008115159050919050565b610312816102fd565b82525050565b600060208201905061032d6000830184610309565b92915050565b600082825260208201905092915050565b7f5265656e7472616e63792064657465637465642e000000000000000000000000600082015250565b600061037a601483610333565b915061038582610344565b602082019050919050565b600060208201905081810360008301526103a98161036d565b9050919050565b7f496e73756666696369656e742062616c616e63652e0000000000000000000000600082015250565b60006103e6601583610333565b91506103f1826103b0565b602082019050919050565b60006020820190508181036000830152610415816103d9565b9050919050565b600081905092915050565b50565b600061043760008361041c565b915061044282610427565b600082019050919050565b60006104588261042a565b9150819050919050565b7f5472616e73666572206661696c65642e00000000000000000000000000000000600082015250565b6000610498601083610333565b91506104a382610462565b602082019050919050565b600060208201905081810360008301526104c78161048b565b9050919050565b6000819050919050565b7f4e487b7100000000000000000000000000000000000000000000000000000000600052601160045260246000fd5b6000610512826104ce565b915061051d836104ce565b9250828201905080821115610535576105346104d8565b5b9291505056fea26469706673582212200537d2e929a91179a0989c95ad2db7319dcab95515f0d77857201c9a4aac02ba64736f6c63430008170033","linkReferences":{}},"methodIdentifiers":{"deposit()":"d0e30db0","getIsLocked()":"583b1896","withdraw()":"3ccfd60b"},"id":24}