{
  "abi": [
    {
      "inputs": [],
      "name": "deposit",
      "outputs": [],
      "stateMutability": "payable",
      "type": "function"
    },
    {
      "inputs": [],
      "name": "getIsLocked",
      "outputs": [
        {
          "internalType": "bool",
          "name": "",
          "type": "bool"
        }
      ],
      "stateMutability": "view",
      "type": "function"
    },
    {
      "inputs": [],
      "name": "withdraw",
      "outputs": [],
      "stateMutability": "nonpayable",
      "type": "function"
    },
    {
      "stateMutability": "payable",
      "type": "receive"
    }
  ],
  "bytecode": {
    "object": "0x608060405234801561001057600080fd5b50610214806100206000396000f3fe6080604052600436106100385760003560e01c80633ccfd60b14610044578063583b18961461005b578063d0e30db01461008257600080fd5b3661003f57005b600080fd5b34801561005057600080fd5b5061005961008a565b005b34801561006757600080fd5b5060015460ff16604051901515815260200160405180910390f35b610059610191565b60015460ff16156100d95760405162461bcd60e51b81526020600482015260146024820152732932b2b73a3930b731bc903232ba32b1ba32b21760611b60448201526064015b60405180910390fd5b6001805460ff19168117905533600081815260208190526040808220805490839055905190929083908381818185875af1925050503d806000811461013a576040519150601f19603f3d011682016040523d82523d6000602084013e61013f565b606091505b50509050806101835760405162461bcd60e51b815260206004820152601060248201526f2a3930b739b332b9103330b4b632b21760811b60448201526064016100d0565b50506001805460ff19169055565b33600090815260208190526040812080543492906101b09084906101b7565b9091555050565b808201808211156101d857634e487b7160e01b600052601160045260246000fd5b9291505056fea26469706673582212204f165f0906b1f757e9ba1bef9db1cc552c51ac82e8aac5548fe8bc7d6c63b78564736f6c63430008150033",
    "linkReferences": {}
  },
  "methodIdentifiers": {
    "deposit()": "d0e30db0",
    "getIsLocked()": "583b1896",
    "withdraw()": "3ccfd60b"
  },
  "id": 17
}