{
  "abi": [
    {
      "inputs": [],
      "name": "deposit",
      "outputs": [],
      "stateMutability": "payable",
      "type": "function"
    },
    {
      "inputs": [],
      "name": "withdraw",
      "outputs": [],
      "stateMutability": "nonpayable",
      "type": "function"
    },
    {
      "stateMutability": "payable",
      "type": "receive"
    }
  ],
  "bytecode": {
    "object": "0x608060405234801561001057600080fd5b506101e2806100206000396000f3fe60806040526004361061002d5760003560e01c80633ccfd60b14610039578063d0e30db01461005057600080fd5b3661003457005b600080fd5b34801561004557600080fd5b5061004e610058565b005b61004e61015f565b60015460ff16156100a75760405162461bcd60e51b81526020600482015260146024820152732932b2b73a3930b731bc903232ba32b1ba32b21760611b60448201526064015b60405180910390fd5b6001805460ff19168117905533600081815260208190526040808220805490839055905190929083908381818185875af1925050503d8060008114610108576040519150601f19603f3d011682016040523d82523d6000602084013e61010d565b606091505b50509050806101515760405162461bcd60e51b815260206004820152601060248201526f2a3930b739b332b9103330b4b632b21760811b604482015260640161009e565b50506001805460ff19169055565b336000908152602081905260408120805434929061017e908490610185565b9091555050565b808201808211156101a657634e487b7160e01b600052601160045260246000fd5b9291505056fea2646970667358221220e01768b7a1c424f70934c98a9a53a39f25c3dd0abc1b22cd59c81e9635ee119364736f6c63430008150033",
    "linkReferences": {}
  },
  "methodIdentifiers": {
    "deposit()": "d0e30db0",
    "withdraw()": "3ccfd60b"
  },
  "id": 17
}