{
  "abi": [
    {
      "inputs": [
        {
          "internalType": "string",
          "name": "greetings",
          "type": "string"
        },
        {
          "internalType": "bytes32",
          "name": "salt",
          "type": "bytes32"
        }
      ],
      "name": "Create2HelloContractWithArgs",
      "outputs": [
        {
          "internalType": "address",
          "name": "",
          "type": "address"
        }
      ],
      "stateMutability": "nonpayable",
      "type": "function"
    },
    {
      "inputs": [],
      "name": "CreateHelloContract",
      "outputs": [
        {
          "internalType": "address",
          "name": "",
          "type": "address"
        }
      ],
      "stateMutability": "nonpayable",
      "type": "function"
    },
    {
      "inputs": [
        {
          "internalType": "string",
          "name": "greetings",
          "type": "string"
        }
      ],
      "name": "CreateHelloContractWithArgs",
      "outputs": [
        {
          "internalType": "address",
          "name": "",
          "type": "address"
        }
      ],
      "stateMutability": "nonpayable",
      "type": "function"
    },
    {
      "inputs": [],
      "name": "NewHelloContract",
      "outputs": [
        {
          "internalType": "address",
          "name": "",
          "type": "address"
        }
      ],
      "stateMutability": "nonpayable",
      "type": "function"
    }
  ],
  "bytecode": {
    "object": "0x608060405234801561001057600080fd5b5061107b806100206000396000f3fe60806040523480156200001157600080fd5b5060043610620000525760003560e01c8063991865c61462000057578063bb6ee8d1146200008d578063bcf9b76614620000af578063c6c3c11114620000d1575b600080fd5b6200007560048036038101906200006f919062000489565b62000107565b60405162000084919062000523565b60405180910390f35b6200009762000208565b604051620000a6919062000523565b60405180910390f35b620000b9620002ba565b604051620000c8919062000523565b60405180910390f35b620000ef6004803603810190620000e991906200057b565b620002f2565b604051620000fe919062000523565b60405180910390f35b600080604051806020016200011c90620003f5565b6020820181038252601f19601f82011660405250905060008185856040516020016200014a92919062000649565b6040516020818303038152906040526040516020016200016c929190620006e8565b604051602081830303815290604052905060008151602083016000f09050600073ffffffffffffffffffffffffffffffffffffffff168173ffffffffffffffffffffffffffffffffffffffff1603620001fc576040517f08c379a0000000000000000000000000000000000000000000000000000000008152600401620001f39062000760565b60405180910390fd5b80935050505092915050565b600080604051806020016200021d9062000403565b6020820181038252601f19601f82011660405250905060008151602083016000f09050600073ffffffffffffffffffffffffffffffffffffffff168173ffffffffffffffffffffffffffffffffffffffff1603620002b2576040517f08c379a0000000000000000000000000000000000000000000000000000000008152600401620002a99062000760565b60405180910390fd5b809250505090565b600080604051620002cb9062000403565b604051809103906000f080158015620002e8573d6000803e3d6000fd5b5090508091505090565b600080604051806020016200030790620003f5565b6020820181038252601f19601f82011660405250905060008186866040516020016200033592919062000649565b60405160208183030381529060405260405160200162000357929190620006e8565b60405160208183030381529060405290506000848251602084016000f59050600073ffffffffffffffffffffffffffffffffffffffff168173ffffffffffffffffffffffffffffffffffffffff1603620003e8576040517f08c379a0000000000000000000000000000000000000000000000000000000008152600401620003df9062000760565b60405180910390fd5b8093505050509392505050565b610730806200078383390190565b6101938062000eb383390190565b600080fd5b600080fd5b600080fd5b600080fd5b600080fd5b60008083601f8401126200044357620004426200041b565b5b8235905067ffffffffffffffff81111562000463576200046262000420565b5b60208301915083600182028301111562000482576200048162000425565b5b9250929050565b60008060208385031215620004a357620004a262000411565b5b600083013567ffffffffffffffff811115620004c457620004c362000416565b5b620004d2858286016200042a565b92509250509250929050565b600073ffffffffffffffffffffffffffffffffffffffff82169050919050565b60006200050b82620004de565b9050919050565b6200051d81620004fe565b82525050565b60006020820190506200053a600083018462000512565b92915050565b6000819050919050565b620005558162000540565b81146200056157600080fd5b50565b60008135905062000575816200054a565b92915050565b60008060006040848603121562000597576200059662000411565b5b600084013567ffffffffffffffff811115620005b857620005b762000416565b5b620005c6868287016200042a565b93509350506020620005db8682870162000564565b9150509250925092565b600082825260208201905092915050565b82818337600083830152505050565b6000601f19601f8301169050919050565b6000620006248385620005e5565b935062000633838584620005f6565b6200063e8362000605565b840190509392505050565b600060208201905081810360008301526200066681848662000616565b90509392505050565b600081519050919050565b600081905092915050565b60005b83811015620006a557808201518184015260208101905062000688565b60008484015250505050565b6000620006be826200066f565b620006ca81856200067a565b9350620006dc81856020860162000685565b80840191505092915050565b6000620006f68285620006b1565b9150620007048284620006b1565b91508190509392505050565b7f637265617465206661696c656400000000000000000000000000000000000000600082015250565b600062000748600d83620005e5565b9150620007558262000710565b602082019050919050565b600060208201905081810360008301526200077b8162000739565b905091905056fe608060405234801561001057600080fd5b50604051610730380380610730833981810160405281019061003291906101bd565b80600090816100419190610427565b50506104f9565b6000604051905090565b600080fd5b600080fd5b600080fd5b600080fd5b6000601f19601f8301169050919050565b7f4e487b7100000000000000000000000000000000000000000000000000000000600052604160045260246000fd5b6100af82610066565b810181811067ffffffffffffffff821117156100ce576100cd610077565b5b80604052505050565b60006100e1610048565b90506100ed82826100a6565b919050565b600067ffffffffffffffff82111561010d5761010c610077565b5b61011682610066565b9050602081019050919050565b60005b83811015610141578082015181840152602081019050610126565b60008484015250505050565b600061016061015b846100f2565b6100d7565b90508281526020810184848401111561017c5761017b610061565b5b610187848285610123565b509392505050565b600082601f8301126101a4576101a361005c565b5b81516101b484826020860161014d565b91505092915050565b6000602082840312156101d3576101d2610052565b5b600082015167ffffffffffffffff8111156101f1576101f0610057565b5b6101fd8482850161018f565b91505092915050565b600081519050919050565b7f4e487b7100000000000000000000000000000000000000000000000000000000600052602260045260246000fd5b6000600282049050600182168061025857607f821691505b60208210810361026b5761026a610211565b5b50919050565b60008190508160005260206000209050919050565b60006020601f8301049050919050565b600082821b905092915050565b6000600883026102d37fffffffffffffffffffffffffffffffffffffffffffffffffffffffffffffffff82610296565b6102dd8683610296565b95508019841693508086168417925050509392505050565b6000819050919050565b6000819050919050565b600061032461031f61031a846102f5565b6102ff565b6102f5565b9050919050565b6000819050919050565b61033e83610309565b61035261034a8261032b565b8484546102a3565b825550505050565b600090565b61036761035a565b610372818484610335565b505050565b5b818110156103965761038b60008261035f565b600181019050610378565b5050565b601f8211156103db576103ac81610271565b6103b584610286565b810160208510156103c4578190505b6103d86103d085610286565b830182610377565b50505b505050565b600082821c905092915050565b60006103fe600019846008026103e0565b1980831691505092915050565b600061041783836103ed565b9150826002028217905092915050565b61043082610206565b67ffffffffffffffff81111561044957610448610077565b5b6104538254610240565b61045e82828561039a565b600060209050601f831160018114610491576000841561047f578287015190505b610489858261040b565b8655506104f1565b601f19841661049f86610271565b60005b828110156104c7578489015182556001820191506020850194506020810190506104a2565b868310156104e457848901516104e0601f8916826103ed565b8355505b6001600288020188555050505b505050505050565b610228806105086000396000f3fe608060405234801561001057600080fd5b506004361061002b5760003560e01c806319ff1d2114610030575b600080fd5b61003861004e565b6040516100459190610170565b60405180910390f35b60606000805461005d906101c1565b80601f0160208091040260200160405190810160405280929190818152602001828054610089906101c1565b80156100d65780601f106100ab576101008083540402835291602001916100d6565b820191906000526020600020905b8154815290600101906020018083116100b957829003601f168201915b5050505050905090565b600081519050919050565b600082825260208201905092915050565b60005b8381101561011a5780820151818401526020810190506100ff565b60008484015250505050565b6000601f19601f8301169050919050565b6000610142826100e0565b61014c81856100eb565b935061015c8185602086016100fc565b61016581610126565b840191505092915050565b6000602082019050818103600083015261018a8184610137565b905092915050565b7f4e487b7100000000000000000000000000000000000000000000000000000000600052602260045260246000fd5b600060028204905060018216806101d957607f821691505b6020821081036101ec576101eb610192565b5b5091905056fea26469706673582212208ea9d4d3764e2f8d353ff0e7765e38f16b16912929e24b39c6cf26233a6f42a064736f6c63430008150033608060405234801561001057600080fd5b50610173806100206000396000f3fe608060405234801561001057600080fd5b506004361061002b5760003560e01c806319ff1d2114610030575b600080fd5b61003861004e565b604051610045919061011b565b60405180910390f35b60606040518060400160405280600b81526020017f48656c6c6f20576f726c64000000000000000000000000000000000000000000815250905090565b600081519050919050565b600082825260208201905092915050565b60005b838110156100c55780820151818401526020810190506100aa565b60008484015250505050565b6000601f19601f8301169050919050565b60006100ed8261008b565b6100f78185610096565b93506101078185602086016100a7565b610110816100d1565b840191505092915050565b6000602082019050818103600083015261013581846100e2565b90509291505056fea264697066735822122074dc6697c551aab04f84ac87590c1e15186e0f600737949cf5ddbeddb472f86464736f6c63430008150033a26469706673582212209c311daa0dfb51597e1fa02a8aa7ba2f6a81d8d8ef2431add5ab6320c52c1ba664736f6c63430008150033",
    "linkReferences": {}
  },
  "methodIdentifiers": {
    "Create2HelloContractWithArgs(string,bytes32)": "c6c3c111",
    "CreateHelloContract()": "bb6ee8d1",
    "CreateHelloContractWithArgs(string)": "991865c6",
    "NewHelloContract()": "bcf9b766"
  },
  "id": 27
}