{
  "abi": [
    {
      "inputs": [
        {
          "internalType": "string",
          "name": "greetings",
          "type": "string"
        },
        {
          "internalType": "bytes32",
          "name": "salt",
          "type": "bytes32"
        }
      ],
      "name": "Create2HelloContractWithArgs",
      "outputs": [
        {
          "internalType": "address",
          "name": "",
          "type": "address"
        }
      ],
      "stateMutability": "nonpayable",
      "type": "function"
    },
    {
      "inputs": [],
      "name": "CreateHelloContract",
      "outputs": [
        {
          "internalType": "address",
          "name": "",
          "type": "address"
        }
      ],
      "stateMutability": "nonpayable",
      "type": "function"
    },
    {
      "inputs": [
        {
          "internalType": "string",
          "name": "greetings",
          "type": "string"
        }
      ],
      "name": "CreateHelloContractWithArgs",
      "outputs": [
        {
          "internalType": "address",
          "name": "",
          "type": "address"
        }
      ],
      "stateMutability": "nonpayable",
      "type": "function"
    },
    {
      "inputs": [],
      "name": "NewHelloContract",
      "outputs": [
        {
          "internalType": "address",
          "name": "",
          "type": "address"
        }
      ],
      "stateMutability": "nonpayable",
      "type": "function"
    }
  ],
  "bytecode": {
    "object": "0x608060405234801561001057600080fd5b50610978806100206000396000f3fe608060405234801561001057600080fd5b506004361061004c5760003560e01c8063991865c614610051578063bb6ee8d114610080578063bcf9b76614610088578063c6c3c11114610090575b600080fd5b61006461005f3660046102f9565b6100a3565b6040516001600160a01b03909116815260200160405180910390f35b610064610156565b6100646101b8565b61006461009e36600461033b565b6101ea565b600080604051806020016100b690610296565b6020820181038252601f19601f82011660405250905060008185856040516020016100e2929190610387565b60408051601f198184030181529082905261010092916020016103e6565b604051602081830303815290604052905060008151602083016000f090506001600160a01b03811661014d5760405162461bcd60e51b815260040161014490610403565b60405180910390fd5b95945050505050565b60008060405180602001610169906102a3565b6020820181038252601f19601f82011660405250905060008151602083016000f090506001600160a01b0381166101b25760405162461bcd60e51b815260040161014490610403565b92915050565b6000806040516101c7906102a3565b604051809103906000f0801580156101e3573d6000803e3d6000fd5b5092915050565b600080604051806020016101fd90610296565b6020820181038252601f19601f8201166040525090506000818686604051602001610229929190610387565b60408051601f198184030181529082905261024792916020016103e6565b60405160208183030381529060405290506000848251602084016000f590506001600160a01b03811661028c5760405162461bcd60e51b815260040161014490610403565b9695505050505050565b6104168061042b83390190565b6101028061084183390190565b60008083601f8401126102c257600080fd5b50813567ffffffffffffffff8111156102da57600080fd5b6020830191508360208285010111156102f257600080fd5b9250929050565b6000806020838503121561030c57600080fd5b823567ffffffffffffffff81111561032357600080fd5b61032f858286016102b0565b90969095509350505050565b60008060006040848603121561035057600080fd5b833567ffffffffffffffff81111561036757600080fd5b610373868287016102b0565b909790965060209590950135949350505050565b60208152816020820152818360408301376000818301604090810191909152601f909201601f19160101919050565b6000815160005b818110156103d757602081850181015186830152016103bd565b50600093019283525090919050565b60006103fb6103f583866103b6565b846103b6565b949350505050565b6020808252600d908201526c18dc99585d194819985a5b1959609a1b60408201526060019056fe608060405234801561001057600080fd5b5060405161041638038061041683398101604081905261002f91610058565b600061003b82826101aa565b5050610269565b634e487b7160e01b600052604160045260246000fd5b6000602080838503121561006b57600080fd5b82516001600160401b038082111561008257600080fd5b818501915085601f83011261009657600080fd5b8151818111156100a8576100a8610042565b604051601f8201601f19908116603f011681019083821181831017156100d0576100d0610042565b8160405282815288868487010111156100e857600080fd5b600093505b8284101561010a57848401860151818501870152928501926100ed565b600086848301015280965050505050505092915050565b600181811c9082168061013557607f821691505b60208210810361015557634e487b7160e01b600052602260045260246000fd5b50919050565b601f8211156101a557600081815260208120601f850160051c810160208610156101825750805b601f850160051c820191505b818110156101a15782815560010161018e565b5050505b505050565b81516001600160401b038111156101c3576101c3610042565b6101d7816101d18454610121565b8461015b565b602080601f83116001811461020c57600084156101f45750858301515b600019600386901b1c1916600185901b1785556101a1565b600085815260208120601f198616915b8281101561023b5788860151825594840194600190910190840161021c565b50858210156102595787850151600019600388901b60f8161c191681555b5050505050600190811b01905550565b61019e806102786000396000f3fe608060405234801561001057600080fd5b506004361061002b5760003560e01c806319ff1d2114610030575b600080fd5b61003861004e565b60405161004591906100e0565b60405180910390f35b60606000805461005d9061012e565b80601f01602080910402602001604051908101604052809291908181526020018280546100899061012e565b80156100d65780601f106100ab576101008083540402835291602001916100d6565b820191906000526020600020905b8154815290600101906020018083116100b957829003601f168201915b5050505050905090565b600060208083528351808285015260005b8181101561010d578581018301518582016040015282016100f1565b506000604082860101526040601f19601f8301168501019250505092915050565b600181811c9082168061014257607f821691505b60208210810361016257634e487b7160e01b600052602260045260246000fd5b5091905056fea26469706673582212205be3fc952a795ff64242236b9db18fd1845d8003755cf853a03c0572975b438164736f6c63430008150033608060405234801561001057600080fd5b5060e38061001f6000396000f3fe6080604052348015600f57600080fd5b506004361060285760003560e01c806319ff1d2114602d575b600080fd5b604080518082018252600b81526a12195b1b1bc815dbdc9b1960aa1b60208201529051605891906061565b60405180910390f35b600060208083528351808285015260005b81811015608c578581018301518582016040015282016072565b506000604082860101526040601f19601f830116850101925050509291505056fea2646970667358221220b5c46390f3c6884246cf0128033641dcb26de75180fc5c19aaba358030da652464736f6c63430008150033a2646970667358221220596008beb5397fdd22f794bba375d641a68ea92bc55ca13598e0f3eef7d840b464736f6c63430008150033",
    "linkReferences": {}
  },
  "methodIdentifiers": {
    "Create2HelloContractWithArgs(string,bytes32)": "c6c3c111",
    "CreateHelloContract()": "bb6ee8d1",
    "CreateHelloContractWithArgs(string)": "991865c6",
    "NewHelloContract()": "bcf9b766"
  },
  "id": 17
}