{
  "abi": [
    {
      "inputs": [],
      "name": "CreateNewHelloContract",
      "outputs": [
        {
          "internalType": "address",
          "name": "",
          "type": "address"
        }
      ],
      "stateMutability": "nonpayable",
      "type": "function"
    }
  ],
  "bytecode": {
    "object": "0x608060405234801561001057600080fd5b506101cb806100206000396000f3fe608060405234801561001057600080fd5b506004361061002b5760003560e01c8063c33e7fec14610030575b600080fd5b610038610054565b6040516001600160a01b03909116815260200160405180910390f35b60008060405161006390610086565b604051809103906000f08015801561007f573d6000803e3d6000fd5b5092915050565b610102806100948339019056fe608060405234801561001057600080fd5b5060e38061001f6000396000f3fe6080604052348015600f57600080fd5b506004361060285760003560e01c806319ff1d2114602d575b600080fd5b604080518082018252600b81526a12195b1b1bc815dbdc9b1960aa1b60208201529051605891906061565b60405180910390f35b600060208083528351808285015260005b81811015608c578581018301518582016040015282016072565b506000604082860101526040601f19601f830116850101925050509291505056fea26469706673582212202e8070f7c8236d5d27b5da0679322b356f9dae1402dbbc1b06bd5033642a5bd364736f6c63430008150033a26469706673582212209e4b499629cd3790e9685493482cd052f75010d4e9fb6533c252560b54b92c5264736f6c63430008150033",
    "linkReferences": {}
  },
  "methodIdentifiers": {
    "CreateNewHelloContract()": "c33e7fec"
  },
  "id": 17
}