{
  "abi": [
    {
      "inputs": [],
      "name": "getValue",
      "outputs": [
        {
          "internalType": "uint256",
          "name": "",
          "type": "uint256"
        }
      ],
      "stateMutability": "view",
      "type": "function"
    },
    {
      "inputs": [
        {
          "internalType": "uint256",
          "name": "_value",
          "type": "uint256"
        }
      ],
      "name": "setValue",
      "outputs": [],
      "stateMutability": "nonpayable",
      "type": "function"
    }
  ],
  "bytecode": {
    "object": "0x608060405234801561001057600080fd5b5060eb8061001f6000396000f3fe6080604052348015600f57600080fd5b506004361060325760003560e01c8063209652551460375780635524107714604f575b600080fd5b603d6061565b60405190815260200160405180910390f35b605f605a3660046073565b600055565b005b60008054606e90600a608b565b905090565b600060208284031215608457600080fd5b5035919050565b808202811582820484141760af57634e487b7160e01b600052601160045260246000fd5b9291505056fea264697066735822122010985191203db8a1b3871364ea39a17039c17e18b58c559e561f2c19b65908ea64736f6c63430008150033",
    "linkReferences": {}
  },
  "methodIdentifiers": {
    "getValue()": "20965255",
    "setValue(uint256)": "55241077"
  },
  "id": 17
}